EDI_DC40  5000000000024403028740 3012  Z1BTDOC                                                     ZSC_BTEND                                        SAPMEP    LS  MEPCLNT500                                                                                           I041      US  BARTENDER                                                                                            20180824133008                                                                                                                LABEL_IDOC_T001899_E
Z2BTMH01000                   5000000000024403028000001000000021635              
Z2BTLH01000                   500000000002440302800000200000103LBL008156         
Z2BTLC01000                   500000000002440302800000300000204STERILITYTYPE                 NONSTERILE                    T:\MEDICAL\NA\RTP\TEAM CENTER\TEMPLATES\GRAPHICS\blank-01.tif                                                                                                                                                                                                   
Z2BTLC01000                   500000000002440302800000400000204TFXLOGO                       Y                             T:\MEDICAL\NA\RTP\TEAM CENTER\TEMPLATES\GRAPHICS\TeleflexMedical.tif                                                                                                                                                                                            
Z2BTLC01000                   500000000002440302800000500000204REVISION                      R00                           R00                                                                                                                                                                                                                                                             
Z2BTLC01000                   500000000002440302800000600000204QUANTITY                      1                             1                                                                                                                                                                                                                                                               
Z2BTLC01000                   500000000002440302800000700000204REF                           N                             T:\MEDICAL\NA\RTP\TEAM CENTER\TEMPLATES\GRAPHICS\BLANK-01.TIF                                                                                                                                                                                                   
Z2BTLC01000                   500000000002440302800000800000204CAUTIONSTATE                  P65                           T:\MEDICAL\NA\RTP\TEAM CENTER\TEMPLATES\GRAPHICS\P65.tif                                                                                                                                                                                                        
Z2BTLC01000                   500000000002440302800000900000204LABELGRAPH1                   LBL008156_1                   T:\MEDICAL\NA\RTP\TEAM CENTER\TEMPLATES\GRAPHICS\LBL008156_1.tif                                                                                                                                                                                                
Z2BTLC01000                   500000000002440302800001000000204LABELGRAPH2                   LBL008156_2                   T:\MEDICAL\NA\RTP\TEAM CENTER\TEMPLATES\GRAPHICS\LBL008156_2.tif                                                                                                                                                                                                
Z2BTLC01000                   500000000002440302800001100000204KEEPAWAYHEAT                  N                             T:\MEDICAL\NA\RTP\TEAM CENTER\TEMPLATES\GRAPHICS\BLANK-01.TIF                                                                                                                                                                                                   
Z2BTLC01000                   500000000002440302800001200000204PHTDEHP                       N                             T:\MEDICAL\NA\RTP\TEAM CENTER\TEMPLATES\GRAPHICS\BLANK-01.TIF                                                                                                                                                                                                   
Z2BTLC01000                   500000000002440302800001300000204SIZELOGO                      N                             No                                                                                                                                                                                                                                                              
Z2BTLC01000                   500000000002440302800001400000204HIGHLOW                       NO                            T:\MEDICAL\NA\RTP\TEAM CENTER\TEMPLATES\GRAPHICS\blank-01.tif                                                                                                                                                                                                   
Z2BTLC01000                   500000000002440302800001500000204GS1                           NO                            T:\MEDICAL\NA\RTP\TEAM CENTER\TEMPLATES\GRAPHICS\blank-01.tif                                                                                                                                                                                                   
Z2BTLC01000                   500000000002440302800001600000204BARCODE1                      NO                            T:\MEDICAL\NA\RTP\TEAM CENTER\TEMPLATES\GRAPHICS\blank-01.TIF                                                                                                                                                                                                   
Z2BTLC01000                   500000000002440302800001700000204VERSION                       NO                            T:\MEDICAL\NA\RTP\TEAM CENTER\TEMPLATES\GRAPHICS\blank-01.tif                                                                                                                                                                                                   
Z2BTLC01000                   500000000002440302800001800000204DISTRIBUTEDBY                 NO                            T:\MEDICAL\NA\RTP\TEAM CENTER\TEMPLATES\GRAPHICS\blank-01.tif                                                                                                                                                                                                   
Z2BTLC01000                   500000000002440302800001900000204MANUFACTUREDBY                NO                            T:\MEDICAL\NA\RTP\TEAM CENTER\TEMPLATES\GRAPHICS\blank-01.tif                                                                                                                                                                                                   
Z2BTLC01000                   500000000002440302800002000000204LOGO3                         HUDSONTRADEMARK5              T:\MEDICAL\NA\RTP\TEAM CENTER\TEMPLATES\GRAPHICS\HudsonTradeMark5.tif                                                                                                                                                                                           
Z2BTLC01000                   500000000002440302800002100000204LOGO4                         NO                            T:\MEDICAL\NA\RTP\TEAM CENTER\TEMPLATES\GRAPHICS\blank-01.tif                                                                                                                                                                                                   
Z2BTLC01000                   500000000002440302800002200000204LOGO5                         NO                            T:\MEDICAL\NA\RTP\TEAM CENTER\TEMPLATES\GRAPHICS\blank-01.tif                                                                                                                                                                                                   
Z2BTLC01000                   500000000002440302800002300000204LTNUMBER                      IPN042671                     IPN042671                                                                                                                                                                                                                                                       
Z2BTLC01000                   500000000002440302800002400000204LATEXSTATEMENT                NOTMADELATEX                  T:\MEDICAL\NA\RTP\TEAM CENTER\TEMPLATES\GRAPHICS\NotMadeLatex.tif                                                                                                                                                                                               
Z2BTLC01000                   500000000002440302800002500000204TEMPLATENUMBER                T001899                       T001899                                                                                                                                                                                                                                                         
Z2BTLC01000                   500000000002440302800002600000204BARCODETEXT                   14026704594938                14026704594938                                                                                                                                                                                                                                                  
Z2BTLC01000                   500000000002440302800002700000204ADDRESS                       TFX4LINEADD3I                 T:\MEDICAL\NA\RTP\TEAM CENTER\TEMPLATES\GRAPHICS\TFX4LineAdd3i.tif                                                                                                                                                                                              
Z2BTLC01000                   500000000002440302800002800000204CE0120                        NO                            T:\MEDICAL\NA\RTP\TEAM CENTER\TEMPLATES\GRAPHICS\blank-01.tif                                                                                                                                                                                                   
Z2BTLC01000                   500000000002440302800002900000204COOSTATE                      COOPRODUSPACKMEX              T:\MEDICAL\NA\RTP\TEAM CENTER\TEMPLATES\GRAPHICS\COOProdUSPackMex.tif                                                                                                                                                                                           
Z2BTLC01000                   500000000002440302800003000000204ECREP                         N                             T:\MEDICAL\NA\RTP\TEAM CENTER\TEMPLATES\GRAPHICS\BLANK-01.TIF                                                                                                                                                                                                   
Z2BTLC01000                   500000000002440302800003100000204ECREPADDRESS                  NO                            T:\MEDICAL\NA\RTP\TEAM CENTER\TEMPLATES\GRAPHICS\blank-01.tif                                                                                                                                                                                                   
Z2BTLC01000                   500000000002440302800003200000204EXPDATE                       N                             T:\MEDICAL\NA\RTP\TEAM CENTER\TEMPLATES\GRAPHICS\BLANK-01.TIF                                                                                                                                                                                                   
Z2BTLC01000                   500000000002440302800003300000204LEVEL                         UNITOFUSE                     Unit Of Use                                                                                                                                                                                                                                                     
Z2BTLC01000                   500000000002440302800003400000204LOGO1                         HUDSONRCI                     T:\MEDICAL\NA\RTP\TEAM CENTER\TEMPLATES\GRAPHICS\HUDSONRCI.tif                                                                                                                                                                                                  
Z2BTLC01000                   500000000002440302800003500000204LOGO2                         SINGLEPATIENUSE2              T:\MEDICAL\NA\RTP\TEAM CENTER\TEMPLATES\GRAPHICS\SinglePatienUse2.tif                                                                                                                                                                                           
Z2BTLC01000                   500000000002440302800003600000204LOTGRAPHIC                    Y                             T:\MEDICAL\NA\RTP\TEAM CENTER\TEMPLATES\GRAPHICS\Lot.tif                                                                                                                                                                                                        
Z2BTLC01000                   500000000002440302800003700000204STERILESTA                    NO                            T:\MEDICAL\NA\RTP\TEAM CENTER\TEMPLATES\GRAPHICS\blank-01.tif                                                                                                                                                                                                   
Z2BTLC01000                   500000000002440302800003800000204SIZE                          D198                          3.25 x 4                                                                                                                                                                                                                                                        
Z2BTLC01000                   500000000002440302800003900000204SERIAL                        N                             T:\MEDICAL\NA\RTP\TEAM CENTER\TEMPLATES\GRAPHICS\BLANK-01.TIF                                                                                                                                                                                                   
Z2BTLC01000                   500000000002440302800004000000204RXONLY                        Y                             T:\MEDICAL\NA\RTP\TEAM CENTER\TEMPLATES\GRAPHICS\RX Only.tif                                                                                                                                                                                                    
Z2BTLC01000                   500000000002440302800004100000204REFNUMBER                     Y                             T:\MEDICAL\NA\RTP\TEAM CENTER\TEMPLATES\GRAPHICS\REF.tif                                                                                                                                                                                                        
Z2BTLC01000                   500000000002440302800004200000204PATENTSTA                     NO                            T:\MEDICAL\NA\RTP\TEAM CENTER\TEMPLATES\GRAPHICS\blank-01.tif                                                                                                                                                                                                   
Z2BTLC01000                   500000000002440302800004300000204GRAPHIC01                     Y                             T:\MEDICAL\NA\RTP\TEAM CENTER\TEMPLATES\GRAPHICS\Non-sterile.tif                                                                                                                                                                                                
Z2BTLC01000                   500000000002440302800004400000204MFGDATE                       Y                             T:\MEDICAL\NA\RTP\TEAM CENTER\TEMPLATES\GRAPHICS\DateofManufacture.tif                                                                                                                                                                                          
Z2BTLC01000                   500000000002440302800004500000204MANUFACTURER                  Y                             T:\MEDICAL\NA\RTP\TEAM CENTER\TEMPLATES\GRAPHICS\Manufacturer.tif                                                                                                                                                                                               
Z2BTMH01000                   5000000000024403028000046000000021637              
Z2BTLH01000                   500000000002440302800004700004603LBL008158         
Z2BTLC01000                   500000000002440302800004800004704STERILITYTYPE                 NONSTERILE                    T:\MEDICAL\NA\RTP\TEAM CENTER\TEMPLATES\GRAPHICS\blank-01.tif                                                                                                                                                                                                   
Z2BTLC01000                   500000000002440302800004900004704TFXLOGO                       Y                             T:\MEDICAL\NA\RTP\TEAM CENTER\TEMPLATES\GRAPHICS\TeleflexMedical.tif                                                                                                                                                                                            
Z2BTLC01000                   500000000002440302800005000004704REVISION                      R00                           R00                                                                                                                                                                                                                                                             
Z2BTLC01000                   500000000002440302800005100004704QUANTITY                      1                             1                                                                                                                                                                                                                                                               
Z2BTLC01000                   500000000002440302800005200004704REF                           N                             T:\MEDICAL\NA\RTP\TEAM CENTER\TEMPLATES\GRAPHICS\BLANK-01.TIF                                                                                                                                                                                                   
Z2BTLC01000                   500000000002440302800005300004704CAUTIONSTATE                  P65                           T:\MEDICAL\NA\RTP\TEAM CENTER\TEMPLATES\GRAPHICS\P65.tif                                                                                                                                                                                                        
Z2BTLC01000                   500000000002440302800005400004704LABELGRAPH1                   LBL008158_1                   T:\MEDICAL\NA\RTP\TEAM CENTER\TEMPLATES\GRAPHICS\LBL008158_1.tif                                                                                                                                                                                                
Z2BTLC01000                   500000000002440302800005500004704LABELGRAPH2                   LBL008158_2                   T:\MEDICAL\NA\RTP\TEAM CENTER\TEMPLATES\GRAPHICS\LBL008158_2.tif                                                                                                                                                                                                
Z2BTLC01000                   500000000002440302800005600004704KEEPAWAYHEAT                  N                             T:\MEDICAL\NA\RTP\TEAM CENTER\TEMPLATES\GRAPHICS\BLANK-01.TIF                                                                                                                                                                                                   
Z2BTLC01000                   500000000002440302800005700004704PHTDEHP                       N                             T:\MEDICAL\NA\RTP\TEAM CENTER\TEMPLATES\GRAPHICS\BLANK-01.TIF                                                                                                                                                                                                   
Z2BTLC01000                   500000000002440302800005800004704SIZELOGO                      N                             No                                                                                                                                                                                                                                                              
Z2BTLC01000                   500000000002440302800005900004704HIGHLOW                       NO                            T:\MEDICAL\NA\RTP\TEAM CENTER\TEMPLATES\GRAPHICS\blank-01.tif                                                                                                                                                                                                   
Z2BTLC01000                   500000000002440302800006000004704GS1                           NO                            T:\MEDICAL\NA\RTP\TEAM CENTER\TEMPLATES\GRAPHICS\blank-01.tif                                                                                                                                                                                                   
Z2BTLC01000                   500000000002440302800006100004704BARCODE1                      NO                            T:\MEDICAL\NA\RTP\TEAM CENTER\TEMPLATES\GRAPHICS\blank-01.TIF                                                                                                                                                                                                   
Z2BTLC01000                   500000000002440302800006200004704VERSION                       NO                            T:\MEDICAL\NA\RTP\TEAM CENTER\TEMPLATES\GRAPHICS\blank-01.tif                                                                                                                                                                                                   
Z2BTLC01000                   500000000002440302800006300004704DISTRIBUTEDBY                 NO                            T:\MEDICAL\NA\RTP\TEAM CENTER\TEMPLATES\GRAPHICS\blank-01.tif                                                                                                                                                                                                   
Z2BTLC01000                   500000000002440302800006400004704MANUFACTUREDBY                NO                            T:\MEDICAL\NA\RTP\TEAM CENTER\TEMPLATES\GRAPHICS\blank-01.tif                                                                                                                                                                                                   
Z2BTLC01000                   500000000002440302800006500004704LOGO3                         HUDSONTRADEMARK5              T:\MEDICAL\NA\RTP\TEAM CENTER\TEMPLATES\GRAPHICS\HudsonTradeMark5.tif                                                                                                                                                                                           
Z2BTLC01000                   500000000002440302800006600004704LOGO4                         NO                            T:\MEDICAL\NA\RTP\TEAM CENTER\TEMPLATES\GRAPHICS\blank-01.tif                                                                                                                                                                                                   
Z2BTLC01000                   500000000002440302800006700004704LOGO5                         NO                            T:\MEDICAL\NA\RTP\TEAM CENTER\TEMPLATES\GRAPHICS\blank-01.tif                                                                                                                                                                                                   
Z2BTLC01000                   500000000002440302800006800004704LTNUMBER                      IPN042672                     IPN042672                                                                                                                                                                                                                                                       
Z2BTLC01000                   500000000002440302800006900004704LATEXSTATEMENT                NOTMADELATEX                  T:\MEDICAL\NA\RTP\TEAM CENTER\TEMPLATES\GRAPHICS\NotMadeLatex.tif                                                                                                                                                                                               
Z2BTLC01000                   500000000002440302800007000004704TEMPLATENUMBER                T001899                       T001899                                                                                                                                                                                                                                                         
Z2BTLC01000                   500000000002440302800007100004704BARCODETEXT                   14026704594945                14026704594945                                                                                                                                                                                                                                                  
Z2BTLC01000                   500000000002440302800007200004704ADDRESS                       TFX4LINEADD3I                 T:\MEDICAL\NA\RTP\TEAM CENTER\TEMPLATES\GRAPHICS\TFX4LineAdd3i.tif                                                                                                                                                                                              
Z2BTLC01000                   500000000002440302800007300004704CE0120                        NO                            T:\MEDICAL\NA\RTP\TEAM CENTER\TEMPLATES\GRAPHICS\blank-01.tif                                                                                                                                                                                                   
Z2BTLC01000                   500000000002440302800007400004704COOSTATE                      COOPRODUSPACKMEX              T:\MEDICAL\NA\RTP\TEAM CENTER\TEMPLATES\GRAPHICS\COOProdUSPackMex.tif                                                                                                                                                                                           
Z2BTLC01000                   500000000002440302800007500004704ECREP                         N                             T:\MEDICAL\NA\RTP\TEAM CENTER\TEMPLATES\GRAPHICS\BLANK-01.TIF                                                                                                                                                                                                   
Z2BTLC01000                   500000000002440302800007600004704ECREPADDRESS                  NO                            T:\MEDICAL\NA\RTP\TEAM CENTER\TEMPLATES\GRAPHICS\blank-01.tif                                                                                                                                                                                                   
Z2BTLC01000                   500000000002440302800007700004704EXPDATE                       N                             T:\MEDICAL\NA\RTP\TEAM CENTER\TEMPLATES\GRAPHICS\BLANK-01.TIF                                                                                                                                                                                                   
Z2BTLC01000                   500000000002440302800007800004704LEVEL                         UNITOFUSE                     Unit Of Use                                                                                                                                                                                                                                                     
Z2BTLC01000                   500000000002440302800007900004704LOGO1                         HUDSONRCI                     T:\MEDICAL\NA\RTP\TEAM CENTER\TEMPLATES\GRAPHICS\HUDSONRCI.tif                                                                                                                                                                                                  
Z2BTLC01000                   500000000002440302800008000004704LOGO2                         SINGLEPATIENUSE2              T:\MEDICAL\NA\RTP\TEAM CENTER\TEMPLATES\GRAPHICS\SinglePatienUse2.tif                                                                                                                                                                                           
Z2BTLC01000                   500000000002440302800008100004704LOTGRAPHIC                    Y                             T:\MEDICAL\NA\RTP\TEAM CENTER\TEMPLATES\GRAPHICS\Lot.tif                                                                                                                                                                                                        
Z2BTLC01000                   500000000002440302800008200004704MANUFACTURER                  Y                             T:\MEDICAL\NA\RTP\TEAM CENTER\TEMPLATES\GRAPHICS\Manufacturer.tif                                                                                                                                                                                               
Z2BTLC01000                   500000000002440302800008300004704MFGDATE                       Y                             T:\MEDICAL\NA\RTP\TEAM CENTER\TEMPLATES\GRAPHICS\DateofManufacture.tif                                                                                                                                                                                          
Z2BTLC01000                   500000000002440302800008400004704GRAPHIC01                     Y                             T:\MEDICAL\NA\RTP\TEAM CENTER\TEMPLATES\GRAPHICS\Non-sterile.tif                                                                                                                                                                                                
Z2BTLC01000                   500000000002440302800008500004704PATENTSTA                     NO                            T:\MEDICAL\NA\RTP\TEAM CENTER\TEMPLATES\GRAPHICS\blank-01.tif                                                                                                                                                                                                   
Z2BTLC01000                   500000000002440302800008600004704REFNUMBER                     Y                             T:\MEDICAL\NA\RTP\TEAM CENTER\TEMPLATES\GRAPHICS\REF.tif                                                                                                                                                                                                        
Z2BTLC01000                   500000000002440302800008700004704RXONLY                        Y                             T:\MEDICAL\NA\RTP\TEAM CENTER\TEMPLATES\GRAPHICS\RX Only.tif                                                                                                                                                                                                    
Z2BTLC01000                   500000000002440302800008800004704SERIAL                        N                             T:\MEDICAL\NA\RTP\TEAM CENTER\TEMPLATES\GRAPHICS\BLANK-01.TIF                                                                                                                                                                                                   
Z2BTLC01000                   500000000002440302800008900004704SIZE                          D198                          3.25 x 4                                                                                                                                                                                                                                                        
Z2BTLC01000                   500000000002440302800009000004704STERILESTA                    NO                            T:\MEDICAL\NA\RTP\TEAM CENTER\TEMPLATES\GRAPHICS\blank-01.tif                                                                                                                                                                                                   
Z2BTMH01000                   5000000000024403029000001000000021635              
Z2BTLH01000                   500000000002440302900000200000103LBL008157         
Z2BTTX01000                   500000000002440302900000300000204GRUNE  ENMATERIAL  LBL008157                                                             Disposable Thermometer                                                * 
Z2BTLC01000                   500000000002440302900000400000204STERILITYTYPE                 NONSTERILE                    T:\MEDICAL\NA\RTP\TEAM CENTER\TEMPLATES\GRAPHICS\blank-01.tif                                                                                                                                                                                                   
Z2BTLC01000                   500000000002440302900000500000204TFXLOGO                       Y                             T:\MEDICAL\NA\RTP\TEAM CENTER\TEMPLATES\GRAPHICS\TeleflexMedical.tif                                                                                                                                                                                            
Z2BTLC01000                   500000000002440302900000600000204REVISION                      R00                           R00                                                                                                                                                                                                                                                             
Z2BTLC01000                   500000000002440302900000700000204QUANTITY                      50                            50                                                                                                                                                                                                                                                              
Z2BTLC01000                   500000000002440302900000800000204REF                           N                             T:\MEDICAL\NA\RTP\TEAM CENTER\TEMPLATES\GRAPHICS\BLANK-01.TIF                                                                                                                                                                                                   
Z2BTLC01000                   500000000002440302900000900000204CAUTIONSTATE                  NO                            T:\MEDICAL\NA\RTP\TEAM CENTER\TEMPLATES\GRAPHICS\blank-01.tif                                                                                                                                                                                                   
Z2BTLC01000                   500000000002440302900001000000204LABELGRAPH1                   NO                            T:\MEDICAL\NA\RTP\TEAM CENTER\TEMPLATES\GRAPHICS\blank-01.tif                                                                                                                                                                                                   
Z2BTLC01000                   500000000002440302900001100000204LABELGRAPH2                   NO                            T:\MEDICAL\NA\RTP\TEAM CENTER\TEMPLATES\GRAPHICS\blank-01.tif                                                                                                                                                                                                   
Z2BTLC01000                   500000000002440302900001200000204KEEPAWAYHEAT                  N                             T:\MEDICAL\NA\RTP\TEAM CENTER\TEMPLATES\GRAPHICS\BLANK-01.TIF                                                                                                                                                                                                   
Z2BTLC01000                   500000000002440302900001300000204PHTDEHP                       N                             T:\MEDICAL\NA\RTP\TEAM CENTER\TEMPLATES\GRAPHICS\BLANK-01.TIF                                                                                                                                                                                                   
Z2BTLC01000                   500000000002440302900001400000204SIZELOGO                      N                             No                                                                                                                                                                                                                                                              
Z2BTLC01000                   500000000002440302900001500000204HIGHLOW                       NO                            T:\MEDICAL\NA\RTP\TEAM CENTER\TEMPLATES\GRAPHICS\blank-01.tif                                                                                                                                                                                                   
Z2BTLC01000                   500000000002440302900001600000204GS1                           NO                            T:\MEDICAL\NA\RTP\TEAM CENTER\TEMPLATES\GRAPHICS\blank-01.tif                                                                                                                                                                                                   
Z2BTLC01000                   500000000002440302900001700000204BARCODE1                      NO                            T:\MEDICAL\NA\RTP\TEAM CENTER\TEMPLATES\GRAPHICS\blank-01.TIF                                                                                                                                                                                                   
Z2BTLC01000                   500000000002440302900001800000204VERSION                       NO                            T:\MEDICAL\NA\RTP\TEAM CENTER\TEMPLATES\GRAPHICS\blank-01.tif                                                                                                                                                                                                   
Z2BTLC01000                   500000000002440302900001900000204DISTRIBUTEDBY                 NO                            T:\MEDICAL\NA\RTP\TEAM CENTER\TEMPLATES\GRAPHICS\blank-01.tif                                                                                                                                                                                                   
Z2BTLC01000                   500000000002440302900002000000204MANUFACTUREDBY                NO                            T:\MEDICAL\NA\RTP\TEAM CENTER\TEMPLATES\GRAPHICS\blank-01.tif                                                                                                                                                                                                   
Z2BTLC01000                   500000000002440302900002100000204LOGO3                         NO                            T:\MEDICAL\NA\RTP\TEAM CENTER\TEMPLATES\GRAPHICS\blank-01.tif                                                                                                                                                                                                   
Z2BTLC01000                   500000000002440302900002200000204LOGO4                         NO                            T:\MEDICAL\NA\RTP\TEAM CENTER\TEMPLATES\GRAPHICS\blank-01.tif                                                                                                                                                                                                   
Z2BTLC01000                   500000000002440302900002300000204LOGO5                         NO                            T:\MEDICAL\NA\RTP\TEAM CENTER\TEMPLATES\GRAPHICS\blank-01.tif                                                                                                                                                                                                   
Z2BTLC01000                   500000000002440302900002400000204LTNUMBER                      IPN042671                     IPN042671                                                                                                                                                                                                                                                       
Z2BTLC01000                   500000000002440302900002500000204LATEXSTATEMENT                NOTMADELATEX                  T:\MEDICAL\NA\RTP\TEAM CENTER\TEMPLATES\GRAPHICS\NotMadeLatex.tif                                                                                                                                                                                               
Z2BTLC01000                   500000000002440302900002600000204TEMPLATENUMBER                T001903                       T001903                                                                                                                                                                                                                                                         
Z2BTLC01000                   500000000002440302900002700000204GRAPHIC01                     Y                             T:\MEDICAL\NA\RTP\TEAM CENTER\TEMPLATES\GRAPHICS\SinglePatienUse.tif                                                                                                                                                                                            
Z2BTLC01000                   500000000002440302900002800000204BARCODETEXT                   34026704594932                34026704594932                                                                                                                                                                                                                                                  
Z2BTLC01000                   500000000002440302900002900000204ADDRESS                       TFX4LINEADD3                  T:\MEDICAL\NA\RTP\TEAM CENTER\TEMPLATES\GRAPHICS\TFX4LINEADD3.TIF                                                                                                                                                                                               
Z2BTLC01000                   500000000002440302900003000000204GRAPHIC02                     Y                             T:\MEDICAL\NA\RTP\TEAM CENTER\TEMPLATES\GRAPHICS\Caution.tif                                                                                                                                                                                                    
Z2BTLC01000                   500000000002440302900003100000204CE0120                        NO                            T:\MEDICAL\NA\RTP\TEAM CENTER\TEMPLATES\GRAPHICS\blank-01.tif                                                                                                                                                                                                   
Z2BTLC01000                   500000000002440302900003200000204GRAPHIC03                     Y                             T:\MEDICAL\NA\RTP\TEAM CENTER\TEMPLATES\GRAPHICS\ConsultIFU.tif                                                                                                                                                                                                 
Z2BTLC01000                   500000000002440302900003300000204COOSTATE                      COOPRODUSPACKMEX              T:\MEDICAL\NA\RTP\TEAM CENTER\TEMPLATES\GRAPHICS\COOProdUSPackMex.tif                                                                                                                                                                                           
Z2BTLC01000                   500000000002440302900003400000204ECREP                         N                             T:\MEDICAL\NA\RTP\TEAM CENTER\TEMPLATES\GRAPHICS\BLANK-01.TIF                                                                                                                                                                                                   
Z2BTLC01000                   500000000002440302900003500000204ECREPADDRESS                  NO                            T:\MEDICAL\NA\RTP\TEAM CENTER\TEMPLATES\GRAPHICS\blank-01.tif                                                                                                                                                                                                   
Z2BTLC01000                   500000000002440302900003600000204EXPDATE                       N                             T:\MEDICAL\NA\RTP\TEAM CENTER\TEMPLATES\GRAPHICS\BLANK-01.TIF                                                                                                                                                                                                   
Z2BTLC01000                   500000000002440302900003700000204LEVEL                         SALESUNIT                     Sales Unit                                                                                                                                                                                                                                                      
Z2BTLC01000                   500000000002440302900003800000204LOGO1                         HUDSONRCI                     T:\MEDICAL\NA\RTP\TEAM CENTER\TEMPLATES\GRAPHICS\HUDSONRCI.tif                                                                                                                                                                                                  
Z2BTLC01000                   500000000002440302900003900000204LOGO2                         NO                            T:\MEDICAL\NA\RTP\TEAM CENTER\TEMPLATES\GRAPHICS\blank-01.tif                                                                                                                                                                                                   
Z2BTLC01000                   500000000002440302900004000000204LOTGRAPHIC                    Y                             T:\MEDICAL\NA\RTP\TEAM CENTER\TEMPLATES\GRAPHICS\Lot.tif                                                                                                                                                                                                        
Z2BTLC01000                   500000000002440302900004100000204STERILESTA                    NO                            T:\MEDICAL\NA\RTP\TEAM CENTER\TEMPLATES\GRAPHICS\blank-01.tif                                                                                                                                                                                                   
Z2BTLC01000                   500000000002440302900004200000204SIZE                          6.125 X 3.62                  6.125 x 3.625                                                                                                                                                                                                                                                   
Z2BTLC01000                   500000000002440302900004300000204SERIAL                        N                             T:\MEDICAL\NA\RTP\TEAM CENTER\TEMPLATES\GRAPHICS\BLANK-01.TIF                                                                                                                                                                                                   
Z2BTLC01000                   500000000002440302900004400000204RXONLY                        Y                             T:\MEDICAL\NA\RTP\TEAM CENTER\TEMPLATES\GRAPHICS\RX Only.tif                                                                                                                                                                                                    
Z2BTLC01000                   500000000002440302900004500000204REFNUMBER                     N                             T:\MEDICAL\NA\RTP\TEAM CENTER\TEMPLATES\GRAPHICS\BLANK-01.TIF                                                                                                                                                                                                   
Z2BTLC01000                   500000000002440302900004600000204PATENTSTA                     NO                            T:\MEDICAL\NA\RTP\TEAM CENTER\TEMPLATES\GRAPHICS\blank-01.tif                                                                                                                                                                                                   
Z2BTLC01000                   500000000002440302900004700000204GRAPHIC04                     Y                             T:\MEDICAL\NA\RTP\TEAM CENTER\TEMPLATES\GRAPHICS\Non-sterile.tif                                                                                                                                                                                                
Z2BTLC01000                   500000000002440302900004800000204MFGDATE                       Y                             T:\MEDICAL\NA\RTP\TEAM CENTER\TEMPLATES\GRAPHICS\DateofManufacture.tif                                                                                                                                                                                          
Z2BTLC01000                   500000000002440302900004900000204MANUFACTURER                  Y                             T:\MEDICAL\NA\RTP\TEAM CENTER\TEMPLATES\GRAPHICS\Manufacturer.tif                                                                                                                                                                                               
Z2BTMH01000                   5000000000024403029000050000000021637              
Z2BTLH01000                   500000000002440302900005100005003LBL008159         
Z2BTTX01000                   500000000002440302900005200005104GRUNE  ENMATERIAL  LBL008159                                                             Disposable Thermometer##with Tee Adaptor                              * 
Z2BTLC01000                   500000000002440302900005300005104STERILITYTYPE                 NONSTERILE                    T:\MEDICAL\NA\RTP\TEAM CENTER\TEMPLATES\GRAPHICS\blank-01.tif                                                                                                                                                                                                   
Z2BTLC01000                   500000000002440302900005400005104TFXLOGO                       Y                             T:\MEDICAL\NA\RTP\TEAM CENTER\TEMPLATES\GRAPHICS\TeleflexMedical.tif                                                                                                                                                                                            
Z2BTLC01000                   500000000002440302900005500005104REVISION                      R00                           R00                                                                                                                                                                                                                                                             
Z2BTLC01000                   500000000002440302900005600005104QUANTITY                      50                            50                                                                                                                                                                                                                                                              
Z2BTLC01000                   500000000002440302900005700005104REF                           N                             T:\MEDICAL\NA\RTP\TEAM CENTER\TEMPLATES\GRAPHICS\BLANK-01.TIF                                                                                                                                                                                                   
Z2BTLC01000                   500000000002440302900005800005104CAUTIONSTATE                  NO                            T:\MEDICAL\NA\RTP\TEAM CENTER\TEMPLATES\GRAPHICS\blank-01.tif                                                                                                                                                                                                   
Z2BTLC01000                   500000000002440302900005900005104LABELGRAPH1                   NO                            T:\MEDICAL\NA\RTP\TEAM CENTER\TEMPLATES\GRAPHICS\blank-01.tif                                                                                                                                                                                                   
Z2BTLC01000                   500000000002440302900006000005104LABELGRAPH2                   NO                            T:\MEDICAL\NA\RTP\TEAM CENTER\TEMPLATES\GRAPHICS\blank-01.tif                                                                                                                                                                                                   
Z2BTLC01000                   500000000002440302900006100005104KEEPAWAYHEAT                  N                             T:\MEDICAL\NA\RTP\TEAM CENTER\TEMPLATES\GRAPHICS\BLANK-01.TIF                                                                                                                                                                                                   
Z2BTLC01000                   500000000002440302900006200005104PHTDEHP                       N                             T:\MEDICAL\NA\RTP\TEAM CENTER\TEMPLATES\GRAPHICS\BLANK-01.TIF                                                                                                                                                                                                   
Z2BTLC01000                   500000000002440302900006300005104SIZELOGO                      N                             No                                                                                                                                                                                                                                                              
Z2BTLC01000                   500000000002440302900006400005104HIGHLOW                       NO                            T:\MEDICAL\NA\RTP\TEAM CENTER\TEMPLATES\GRAPHICS\blank-01.tif                                                                                                                                                                                                   
Z2BTLC01000                   500000000002440302900006500005104GS1                           NO                            T:\MEDICAL\NA\RTP\TEAM CENTER\TEMPLATES\GRAPHICS\blank-01.tif                                                                                                                                                                                                   
Z2BTLC01000                   500000000002440302900006600005104BARCODE1                      NO                            T:\MEDICAL\NA\RTP\TEAM CENTER\TEMPLATES\GRAPHICS\blank-01.TIF                                                                                                                                                                                                   
Z2BTLC01000                   500000000002440302900006700005104VERSION                       NO                            T:\MEDICAL\NA\RTP\TEAM CENTER\TEMPLATES\GRAPHICS\blank-01.tif                                                                                                                                                                                                   
Z2BTLC01000                   500000000002440302900006800005104DISTRIBUTEDBY                 NO                            T:\MEDICAL\NA\RTP\TEAM CENTER\TEMPLATES\GRAPHICS\blank-01.tif                                                                                                                                                                                                   
Z2BTLC01000                   500000000002440302900006900005104MANUFACTUREDBY                NO                            T:\MEDICAL\NA\RTP\TEAM CENTER\TEMPLATES\GRAPHICS\blank-01.tif                                                                                                                                                                                                   
Z2BTLC01000                   500000000002440302900007000005104LOGO3                         NO                            T:\MEDICAL\NA\RTP\TEAM CENTER\TEMPLATES\GRAPHICS\blank-01.tif                                                                                                                                                                                                   
Z2BTLC01000                   500000000002440302900007100005104LOGO4                         NO                            T:\MEDICAL\NA\RTP\TEAM CENTER\TEMPLATES\GRAPHICS\blank-01.tif                                                                                                                                                                                                   
Z2BTLC01000                   500000000002440302900007200005104LOGO5                         NO                            T:\MEDICAL\NA\RTP\TEAM CENTER\TEMPLATES\GRAPHICS\blank-01.tif                                                                                                                                                                                                   
Z2BTLC01000                   500000000002440302900007300005104LTNUMBER                      IPN042672                     IPN042672                                                                                                                                                                                                                                                       
Z2BTLC01000                   500000000002440302900007400005104LATEXSTATEMENT                NO                            T:\MEDICAL\NA\RTP\TEAM CENTER\TEMPLATES\GRAPHICS\blank-01.tif                                                                                                                                                                                                   
Z2BTLC01000                   500000000002440302900007500005104TEMPLATENUMBER                T001903                       T001903                                                                                                                                                                                                                                                         
Z2BTLC01000                   500000000002440302900007600005104GRAPHIC01                     Y                             T:\MEDICAL\NA\RTP\TEAM CENTER\TEMPLATES\GRAPHICS\SinglePatienUse.tif                                                                                                                                                                                            
Z2BTLC01000                   500000000002440302900007700005104BARCODETEXT                   34026704594949                34026704594949                                                                                                                                                                                                                                                  
Z2BTLC01000                   500000000002440302900007800005104ADDRESS                       TFX4LINEADD3                  T:\MEDICAL\NA\RTP\TEAM CENTER\TEMPLATES\GRAPHICS\TFX4LINEADD3.TIF                                                                                                                                                                                               
Z2BTLC01000                   500000000002440302900007900005104GRAPHIC02                     Y                             T:\MEDICAL\NA\RTP\TEAM CENTER\TEMPLATES\GRAPHICS\Caution.tif                                                                                                                                                                                                    
Z2BTLC01000                   500000000002440302900008000005104CE0120                        NO                            T:\MEDICAL\NA\RTP\TEAM CENTER\TEMPLATES\GRAPHICS\blank-01.tif                                                                                                                                                                                                   
Z2BTLC01000                   500000000002440302900008100005104GRAPHIC03                     Y                             T:\MEDICAL\NA\RTP\TEAM CENTER\TEMPLATES\GRAPHICS\ConsultIFU.tif                                                                                                                                                                                                 
Z2BTLC01000                   500000000002440302900008200005104COOSTATE                      COOPRODUSPACKMEX              T:\MEDICAL\NA\RTP\TEAM CENTER\TEMPLATES\GRAPHICS\COOProdUSPackMex.tif                                                                                                                                                                                           
Z2BTLC01000                   500000000002440302900008300005104ECREP                         N                             T:\MEDICAL\NA\RTP\TEAM CENTER\TEMPLATES\GRAPHICS\BLANK-01.TIF                                                                                                                                                                                                   
Z2BTLC01000                   500000000002440302900008400005104ECREPADDRESS                  NO                            T:\MEDICAL\NA\RTP\TEAM CENTER\TEMPLATES\GRAPHICS\blank-01.tif                                                                                                                                                                                                   
Z2BTLC01000                   500000000002440302900008500005104EXPDATE                       N                             T:\MEDICAL\NA\RTP\TEAM CENTER\TEMPLATES\GRAPHICS\BLANK-01.TIF                                                                                                                                                                                                   
Z2BTLC01000                   500000000002440302900008600005104LEVEL                         SALESUNIT                     Sales Unit                                                                                                                                                                                                                                                      
Z2BTLC01000                   500000000002440302900008700005104LOGO1                         HUDSONRCI                     T:\MEDICAL\NA\RTP\TEAM CENTER\TEMPLATES\GRAPHICS\HUDSONRCI.tif                                                                                                                                                                                                  
Z2BTLC01000                   500000000002440302900008800005104LOGO2                         NO                            T:\MEDICAL\NA\RTP\TEAM CENTER\TEMPLATES\GRAPHICS\blank-01.tif                                                                                                                                                                                                   
Z2BTLC01000                   500000000002440302900008900005104LOTGRAPHIC                    Y                             T:\MEDICAL\NA\RTP\TEAM CENTER\TEMPLATES\GRAPHICS\Lot.tif                                                                                                                                                                                                        
Z2BTLC01000                   500000000002440302900009000005104STERILESTA                    NO                            T:\MEDICAL\NA\RTP\TEAM CENTER\TEMPLATES\GRAPHICS\blank-01.tif                                                                                                                                                                                                   
Z2BTLC01000                   500000000002440302900009100005104SIZE                          6.125 X 3.62                  6.125 x 3.625                                                                                                                                                                                                                                                   
Z2BTLC01000                   500000000002440302900009200005104SERIAL                        N                             T:\MEDICAL\NA\RTP\TEAM CENTER\TEMPLATES\GRAPHICS\BLANK-01.TIF                                                                                                                                                                                                   
Z2BTLC01000                   500000000002440302900009300005104RXONLY                        Y                             T:\MEDICAL\NA\RTP\TEAM CENTER\TEMPLATES\GRAPHICS\RX Only.tif                                                                                                                                                                                                    
Z2BTLC01000                   500000000002440302900009400005104REFNUMBER                     N                             T:\MEDICAL\NA\RTP\TEAM CENTER\TEMPLATES\GRAPHICS\BLANK-01.TIF                                                                                                                                                                                                   
Z2BTLC01000                   500000000002440302900009500005104MANUFACTURER                  Y                             T:\MEDICAL\NA\RTP\TEAM CENTER\TEMPLATES\GRAPHICS\Manufacturer.tif                                                                                                                                                                                               
Z2BTLC01000                   500000000002440302900009600005104MFGDATE                       Y                             T:\MEDICAL\NA\RTP\TEAM CENTER\TEMPLATES\GRAPHICS\DateofManufacture.tif                                                                                                                                                                                          
Z2BTLC01000                   500000000002440302900009700005104GRAPHIC04                     Y                             T:\MEDICAL\NA\RTP\TEAM CENTER\TEMPLATES\GRAPHICS\Non-sterile.tif                                                                                                                                                                                                
Z2BTLC01000                   500000000002440302900009800005104PATENTSTA                     NO                            T:\MEDICAL\NA\RTP\TEAM CENTER\TEMPLATES\GRAPHICS\blank-01.tif                                                                                                                                                                                                   
Z2BTMH01000                   5000000000024403029000099000000021640              
Z2BTLH01000                   500000000002440302900010000009903LBL008164         
Z2BTLC01000                   500000000002440302900010100010004KEEPAWAYHEAT                  N                             T:\MEDICAL\NA\RTP\TEAM CENTER\TEMPLATES\GRAPHICS\BLANK-01.TIF                                                                                                                                                                                                   
Z2BTLC01000                   500000000002440302900010200010004LABELGRAPH2                   HUDSONCR_07-11-16             T:\MEDICAL\NA\RTP\TEAM CENTER\TEMPLATES\GRAPHICS\HudsonCR_07-11-16.tif                                                                                                                                                                                          
Z2BTLC01000                   500000000002440302900010300010004PHTDEHP                       N                             T:\MEDICAL\NA\RTP\TEAM CENTER\TEMPLATES\GRAPHICS\BLANK-01.TIF                                                                                                                                                                                                   
Z2BTLC01000                   500000000002440302900010400010004SIZELOGO                      N                             No                                                                                                                                                                                                                                                              
Z2BTLC01000                   500000000002440302900010500010004HIGHLOW                       NO                            T:\MEDICAL\NA\RTP\TEAM CENTER\TEMPLATES\GRAPHICS\blank-01.tif                                                                                                                                                                                                   
Z2BTLC01000                   500000000002440302900010600010004LABELGRAPH1                   LBL008164                     T:\MEDICAL\NA\RTP\TEAM CENTER\TEMPLATES\GRAPHICS\LBL008164.tif                                                                                                                                                                                                  
Z2BTLC01000                   500000000002440302900010700010004CAUTIONSTATE                  P65                           T:\MEDICAL\NA\RTP\TEAM CENTER\TEMPLATES\GRAPHICS\P65.tif                                                                                                                                                                                                        
Z2BTLC01000                   500000000002440302900010800010004REF                           N                             T:\MEDICAL\NA\RTP\TEAM CENTER\TEMPLATES\GRAPHICS\BLANK-01.TIF                                                                                                                                                                                                   
Z2BTLC01000                   500000000002440302900010900010004QUANTITY                      1                             1                                                                                                                                                                                                                                                               
Z2BTLC01000                   500000000002440302900011000010004REVISION                      R00                           R00                                                                                                                                                                                                                                                             
Z2BTLC01000                   500000000002440302900011100010004TFXLOGO                       Y                             T:\MEDICAL\NA\RTP\TEAM CENTER\TEMPLATES\GRAPHICS\TeleflexMedical.tif                                                                                                                                                                                            
Z2BTLC01000                   500000000002440302900011200010004STERILITYTYPE                 NONSTERILE                    T:\MEDICAL\NA\RTP\TEAM CENTER\TEMPLATES\GRAPHICS\blank-01.tif                                                                                                                                                                                                   
Z2BTLC01000                   500000000002440302900011300010004GS1                           NO                            T:\MEDICAL\NA\RTP\TEAM CENTER\TEMPLATES\GRAPHICS\blank-01.tif                                                                                                                                                                                                   
Z2BTLC01000                   500000000002440302900011400010004BARCODE1                      NO                            T:\MEDICAL\NA\RTP\TEAM CENTER\TEMPLATES\GRAPHICS\blank-01.TIF                                                                                                                                                                                                   
Z2BTLC01000                   500000000002440302900011500010004VERSION                       NO                            T:\MEDICAL\NA\RTP\TEAM CENTER\TEMPLATES\GRAPHICS\blank-01.tif                                                                                                                                                                                                   
Z2BTLC01000                   500000000002440302900011600010004DISTRIBUTEDBY                 NO                            T:\MEDICAL\NA\RTP\TEAM CENTER\TEMPLATES\GRAPHICS\blank-01.tif                                                                                                                                                                                                   
Z2BTLC01000                   500000000002440302900011700010004MANUFACTUREDBY                NO                            T:\MEDICAL\NA\RTP\TEAM CENTER\TEMPLATES\GRAPHICS\blank-01.tif                                                                                                                                                                                                   
Z2BTLC01000                   500000000002440302900011800010004LOGO3                         HUDSONTRADEMARK3              T:\MEDICAL\NA\RTP\TEAM CENTER\TEMPLATES\GRAPHICS\HudsonTradeMark3.tif                                                                                                                                                                                           
Z2BTLC01000                   500000000002440302900011900010004LOGO4                         NO                            T:\MEDICAL\NA\RTP\TEAM CENTER\TEMPLATES\GRAPHICS\blank-01.tif                                                                                                                                                                                                   
Z2BTLC01000                   500000000002440302900012000010004LOGO5                         NO                            T:\MEDICAL\NA\RTP\TEAM CENTER\TEMPLATES\GRAPHICS\blank-01.tif                                                                                                                                                                                                   
Z2BTLC01000                   500000000002440302900012100010004LTNUMBER                      IPN042675                     IPN042675                                                                                                                                                                                                                                                       
Z2BTLC01000                   500000000002440302900012200010004LATEXSTATEMENT                NOTMADELATEX                  T:\MEDICAL\NA\RTP\TEAM CENTER\TEMPLATES\GRAPHICS\NotMadeLatex.tif                                                                                                                                                                                               
Z2BTLC01000                   500000000002440302900012300010004TEMPLATENUMBER                T001903                       T001903                                                                                                                                                                                                                                                         
Z2BTLC01000                   500000000002440302900012400010004BARCODETEXT                   14026704594976                14026704594976                                                                                                                                                                                                                                                  
Z2BTLC01000                   500000000002440302900012500010004ADDRESS                       TFX4LINEADD3I                 T:\MEDICAL\NA\RTP\TEAM CENTER\TEMPLATES\GRAPHICS\TFX4LineAdd3i.tif                                                                                                                                                                                              
Z2BTLC01000                   500000000002440302900012600010004CE0120                        NO                            T:\MEDICAL\NA\RTP\TEAM CENTER\TEMPLATES\GRAPHICS\blank-01.tif                                                                                                                                                                                                   
Z2BTLC01000                   500000000002440302900012700010004COOSTATE                      COOASSMMEXUSFOREIGN           T:\MEDICAL\NA\RTP\TEAM CENTER\TEMPLATES\GRAPHICS\COOAssmMexUSForeign.tif                                                                                                                                                                                        
Z2BTLC01000                   500000000002440302900012800010004ECREP                         N                             T:\MEDICAL\NA\RTP\TEAM CENTER\TEMPLATES\GRAPHICS\BLANK-01.TIF                                                                                                                                                                                                   
Z2BTLC01000                   500000000002440302900012900010004ECREPADDRESS                  NO                            T:\MEDICAL\NA\RTP\TEAM CENTER\TEMPLATES\GRAPHICS\blank-01.tif                                                                                                                                                                                                   
Z2BTLC01000                   500000000002440302900013000010004EXPDATE                       N                             T:\MEDICAL\NA\RTP\TEAM CENTER\TEMPLATES\GRAPHICS\BLANK-01.TIF                                                                                                                                                                                                   
Z2BTLC01000                   500000000002440302900013100010004LEVEL                         EA                            Each                                                                                                                                                                                                                                                            
Z2BTLC01000                   500000000002440302900013200010004LOGO1                         HUDSONRCI                     T:\MEDICAL\NA\RTP\TEAM CENTER\TEMPLATES\GRAPHICS\HUDSONRCI.tif                                                                                                                                                                                                  
Z2BTLC01000                   500000000002440302900013300010004LOGO2                         SINGLEPATIENUSE2              T:\MEDICAL\NA\RTP\TEAM CENTER\TEMPLATES\GRAPHICS\SinglePatienUse2.tif                                                                                                                                                                                           
Z2BTLC01000                   500000000002440302900013400010004LOTGRAPHIC                    Y                             T:\MEDICAL\NA\RTP\TEAM CENTER\TEMPLATES\GRAPHICS\Lot.tif                                                                                                                                                                                                        
Z2BTLC01000                   500000000002440302900013500010004STERILESTA                    NO                            T:\MEDICAL\NA\RTP\TEAM CENTER\TEMPLATES\GRAPHICS\blank-01.tif                                                                                                                                                                                                   
Z2BTLC01000                   500000000002440302900013600010004SIZE                          D198                          3.25 x 4                                                                                                                                                                                                                                                        
Z2BTLC01000                   500000000002440302900013700010004SERIAL                        N                             T:\MEDICAL\NA\RTP\TEAM CENTER\TEMPLATES\GRAPHICS\BLANK-01.TIF                                                                                                                                                                                                   
Z2BTLC01000                   500000000002440302900013800010004RXONLY                        Y                             T:\MEDICAL\NA\RTP\TEAM CENTER\TEMPLATES\GRAPHICS\RX Only.tif                                                                                                                                                                                                    
Z2BTLC01000                   500000000002440302900013900010004REFNUMBER                     Y                             T:\MEDICAL\NA\RTP\TEAM CENTER\TEMPLATES\GRAPHICS\REF.tif                                                                                                                                                                                                        
Z2BTLC01000                   500000000002440302900014000010004PATENTSTA                     NO                            T:\MEDICAL\NA\RTP\TEAM CENTER\TEMPLATES\GRAPHICS\blank-01.tif                                                                                                                                                                                                   
Z2BTLC01000                   500000000002440302900014100010004GRAPHIC01                     Y                             T:\MEDICAL\NA\RTP\TEAM CENTER\TEMPLATES\GRAPHICS\Non-sterile.tif                                                                                                                                                                                                
Z2BTLC01000                   500000000002440302900014200010004MFGDATE                       Y                             T:\MEDICAL\NA\RTP\TEAM CENTER\TEMPLATES\GRAPHICS\DateofManufacture.tif                                                                                                                                                                                          
Z2BTLC01000                   500000000002440302900014300010004MANUFACTURER                  Y                             T:\MEDICAL\NA\RTP\TEAM CENTER\TEMPLATES\GRAPHICS\Manufacturer.tif                                                                                                                                                                                               
Z2BTLH01000                   500000000002440302900014400009903LBL008165         
Z2BTTX01000                   500000000002440302900014500014404GRUNE  ENMATERIAL  LBL008165                                                             Tubing Adaptor##22mm I.D. x 22mm O.D.                                 * 
Z2BTLC01000                   500000000002440302900014600014404STERILITYTYPE                 NONSTERILE                    T:\MEDICAL\NA\RTP\TEAM CENTER\TEMPLATES\GRAPHICS\blank-01.tif                                                                                                                                                                                                   
Z2BTLC01000                   500000000002440302900014700014404TFXLOGO                       Y                             T:\MEDICAL\NA\RTP\TEAM CENTER\TEMPLATES\GRAPHICS\TeleflexMedical.tif                                                                                                                                                                                            
Z2BTLC01000                   500000000002440302900014800014404REVISION                      R00                           R00                                                                                                                                                                                                                                                             
Z2BTLC01000                   500000000002440302900014900014404QUANTITY                      50                            50                                                                                                                                                                                                                                                              
Z2BTLC01000                   500000000002440302900015000014404REF                           N                             T:\MEDICAL\NA\RTP\TEAM CENTER\TEMPLATES\GRAPHICS\BLANK-01.TIF                                                                                                                                                                                                   
Z2BTLC01000                   500000000002440302900015100014404CAUTIONSTATE                  NO                            T:\MEDICAL\NA\RTP\TEAM CENTER\TEMPLATES\GRAPHICS\blank-01.tif                                                                                                                                                                                                   
Z2BTLC01000                   500000000002440302900015200014404LABELGRAPH1                   NO                            T:\MEDICAL\NA\RTP\TEAM CENTER\TEMPLATES\GRAPHICS\blank-01.tif                                                                                                                                                                                                   
Z2BTLC01000                   500000000002440302900015300014404LABELGRAPH2                   NO                            T:\MEDICAL\NA\RTP\TEAM CENTER\TEMPLATES\GRAPHICS\blank-01.tif                                                                                                                                                                                                   
Z2BTLC01000                   500000000002440302900015400014404KEEPAWAYHEAT                  N                             T:\MEDICAL\NA\RTP\TEAM CENTER\TEMPLATES\GRAPHICS\BLANK-01.TIF                                                                                                                                                                                                   
Z2BTLC01000                   500000000002440302900015500014404PHTDEHP                       N                             T:\MEDICAL\NA\RTP\TEAM CENTER\TEMPLATES\GRAPHICS\BLANK-01.TIF                                                                                                                                                                                                   
Z2BTLC01000                   500000000002440302900015600014404SIZELOGO                      N                             No                                                                                                                                                                                                                                                              
Z2BTLC01000                   500000000002440302900015700014404HIGHLOW                       NO                            T:\MEDICAL\NA\RTP\TEAM CENTER\TEMPLATES\GRAPHICS\blank-01.tif                                                                                                                                                                                                   
Z2BTLC01000                   500000000002440302900015800014404GS1                           NO                            T:\MEDICAL\NA\RTP\TEAM CENTER\TEMPLATES\GRAPHICS\blank-01.tif                                                                                                                                                                                                   
Z2BTLC01000                   500000000002440302900015900014404BARCODE1                      NO                            T:\MEDICAL\NA\RTP\TEAM CENTER\TEMPLATES\GRAPHICS\blank-01.TIF                                                                                                                                                                                                   
Z2BTLC01000                   500000000002440302900016000014404VERSION                       NO                            T:\MEDICAL\NA\RTP\TEAM CENTER\TEMPLATES\GRAPHICS\blank-01.tif                                                                                                                                                                                                   
Z2BTLC01000                   500000000002440302900016100014404DISTRIBUTEDBY                 NO                            T:\MEDICAL\NA\RTP\TEAM CENTER\TEMPLATES\GRAPHICS\blank-01.tif                                                                                                                                                                                                   
Z2BTLC01000                   500000000002440302900016200014404MANUFACTUREDBY                NO                            T:\MEDICAL\NA\RTP\TEAM CENTER\TEMPLATES\GRAPHICS\blank-01.tif                                                                                                                                                                                                   
Z2BTLC01000                   500000000002440302900016300014404LOGO3                         NO                            T:\MEDICAL\NA\RTP\TEAM CENTER\TEMPLATES\GRAPHICS\blank-01.tif                                                                                                                                                                                                   
Z2BTLC01000                   500000000002440302900016400014404LOGO4                         NO                            T:\MEDICAL\NA\RTP\TEAM CENTER\TEMPLATES\GRAPHICS\blank-01.tif                                                                                                                                                                                                   
Z2BTLC01000                   500000000002440302900016500014404LOGO5                         NO                            T:\MEDICAL\NA\RTP\TEAM CENTER\TEMPLATES\GRAPHICS\blank-01.tif                                                                                                                                                                                                   
Z2BTLC01000                   500000000002440302900016600014404LTNUMBER                      IPN042675                     IPN042675                                                                                                                                                                                                                                                       
Z2BTLC01000                   500000000002440302900016700014404LATEXSTATEMENT                NOTMADELATEX                  T:\MEDICAL\NA\RTP\TEAM CENTER\TEMPLATES\GRAPHICS\NotMadeLatex.tif                                                                                                                                                                                               
Z2BTLC01000                   500000000002440302900016800014404TEMPLATENUMBER                T001903                       T001903                                                                                                                                                                                                                                                         
Z2BTLC01000                   500000000002440302900016900014404GRAPHIC01                     Y                             T:\MEDICAL\NA\RTP\TEAM CENTER\TEMPLATES\GRAPHICS\SinglePatienUse.tif                                                                                                                                                                                            
Z2BTLC01000                   500000000002440302900017000014404BARCODETEXT                   34026704594970                34026704594970                                                                                                                                                                                                                                                  
Z2BTLC01000                   500000000002440302900017100014404ADDRESS                       TFX4LINEADD3                  T:\MEDICAL\NA\RTP\TEAM CENTER\TEMPLATES\GRAPHICS\TFX4LINEADD3.TIF                                                                                                                                                                                               
Z2BTLC01000                   500000000002440302900017200014404CE0120                        NO                            T:\MEDICAL\NA\RTP\TEAM CENTER\TEMPLATES\GRAPHICS\blank-01.tif                                                                                                                                                                                                   
Z2BTLC01000                   500000000002440302900017300014404COOSTATE                      COOASSMMEXUSFOREIGN           T:\MEDICAL\NA\RTP\TEAM CENTER\TEMPLATES\GRAPHICS\COOAssmMexUSForeign.tif                                                                                                                                                                                        
Z2BTLC01000                   500000000002440302900017400014404ECREP                         N                             T:\MEDICAL\NA\RTP\TEAM CENTER\TEMPLATES\GRAPHICS\BLANK-01.TIF                                                                                                                                                                                                   
Z2BTLC01000                   500000000002440302900017500014404ECREPADDRESS                  NO                            T:\MEDICAL\NA\RTP\TEAM CENTER\TEMPLATES\GRAPHICS\blank-01.tif                                                                                                                                                                                                   
Z2BTLC01000                   500000000002440302900017600014404EXPDATE                       N                             T:\MEDICAL\NA\RTP\TEAM CENTER\TEMPLATES\GRAPHICS\BLANK-01.TIF                                                                                                                                                                                                   
Z2BTLC01000                   500000000002440302900017700014404LEVEL                         SALESUNIT                     Sales Unit                                                                                                                                                                                                                                                      
Z2BTLC01000                   500000000002440302900017800014404LOGO1                         HUDSONRCI                     T:\MEDICAL\NA\RTP\TEAM CENTER\TEMPLATES\GRAPHICS\HUDSONRCI.tif                                                                                                                                                                                                  
Z2BTLC01000                   500000000002440302900017900014404LOGO2                         NO                            T:\MEDICAL\NA\RTP\TEAM CENTER\TEMPLATES\GRAPHICS\blank-01.tif                                                                                                                                                                                                   
Z2BTLC01000                   500000000002440302900018000014404LOTGRAPHIC                    Y                             T:\MEDICAL\NA\RTP\TEAM CENTER\TEMPLATES\GRAPHICS\Lot.tif                                                                                                                                                                                                        
Z2BTLC01000                   500000000002440302900018100014404STERILESTA                    NO                            T:\MEDICAL\NA\RTP\TEAM CENTER\TEMPLATES\GRAPHICS\blank-01.tif                                                                                                                                                                                                   
