EDI_DC40  5000000000002541435740 3012  Z1BTDOC                                                     ZSC_BTEND                                        SAPMEP    LS  MEPCLNT500                                                                                           I041      US  BARTENDER                                                                                            20110617145728                                                                                                                Material_EN         
Z2BTMH01000                   50000000000025414350000010000000220018-M56         
Z2BTLH01000                   500000000000254143500000200000103LBL024656         
Z2BTTX01000                   500000000000254143500000300000204GRUNE  ENMATERIAL  LBL024656                                                             5.5Fr (1.8mm) x 45.7cm##                                              *
Z2BTTX01000                   500000000000254143500000400000204GRUNE  ENMATERIAL  LBL024656                                                                                                                                   /
Z2BTLC01000                   500000000000254143500000500000204TEMPLATENUMBER                T002521                       T002521                                                                                                                                                                                                                                                        
Z2BTLC01000                   500000000000254143500000600000204REVISION                      R00                           R00                                                                                                                                                                                                                                                            
Z2BTLC01000                   500000000000254143500000700000204SIZE                          4.125" X 2.188"               4.125" X 2.188"                                                                                                                                                                                                                                                
Z2BTLC01000                   500000000000254143500000800000204LEVEL                         Each Unit                     Each Unit                                                                                                                                                                                                                                                      
Z2BTLC01000                   500000000000254143500000900000204QUANTITY                      1                             1                                                                                                                                                                                                                                                              
Z2BTLC01000                   500000000000254143500001000000204BARCODETEXT                   14026704656407                14026704656407                                                                                                                                                                                                                                                 
Z2BTLC01000                   500000000000254143500001100000204LTNUMBER                      IPN029599                     IPN029599                                                                                                                                                                                                                                                      
Z2BTLC01000                   500000000000254143500001200000204ECREP                         N                             T:\MEDICAL\NA\RTP\TEAM CENTER\TEMPLATES\GRAPHICS\blank-01.tif                                                                                                                                                                                                  
Z2BTLC01000                   500000000000254143500001300000204EXPDATE                       Y                             T:\MEDICAL\NA\RTP\TEAM CENTER\TEMPLATES\GRAPHICS\Expiration Date.tif                                                                                                                                                                                           
Z2BTLC01000                   500000000000254143500001400000204KEEPAWAYHEAT                  N                             T:\MEDICAL\NA\RTP\TEAM CENTER\TEMPLATES\GRAPHICS\blank-01.tif                                                                                                                                                                                                  
Z2BTLC01000                   500000000000254143500001500000204LOTGRAPHIC                    Y                             T:\MEDICAL\NA\RTP\TEAM CENTER\TEMPLATES\GRAPHICS\Lot.tif                                                                                                                                                                                                       
Z2BTLC01000                   500000000000254143500001600000204MANUFACTURER                  N                             T:\MEDICAL\NA\RTP\TEAM CENTER\TEMPLATES\GRAPHICS\blank-01.tif                                                                                                                                                                                                  
Z2BTLC01000                   500000000000254143500001700000204REF                           N                             T:\MEDICAL\NA\RTP\TEAM CENTER\TEMPLATES\GRAPHICS\blank-01.tif                                                                                                                                                                                                  
Z2BTLC01000                   500000000000254143500001800000204RXONLY                        N                             T:\MEDICAL\NA\RTP\TEAM CENTER\TEMPLATES\GRAPHICS\blank-01.tif                                                                                                                                                                                                  
Z2BTLC01000                   500000000000254143500001900000204SIZELOGO                      N                             T:\MEDICAL\NA\RTP\TEAM CENTER\TEMPLATES\GRAPHICS\blank-01.tif                                                                                                                                                                                                  
Z2BTLC01000                   500000000000254143500002000000204TFXLOGO                       N                             T:\MEDICAL\NA\RTP\TEAM CENTER\TEMPLATES\GRAPHICS\blank-01.tif                                                                                                                                                                                                  
Z2BTLC01000                   500000000000254143500002100000204ADDRESS                       TFX4LineAdd10i                T:\MEDICAL\NA\RTP\TEAM CENTER\TEMPLATES\GRAPHICS\TFX4LineAdd10i.tif                                                                                                                                                                                            
Z2BTLC01000                   500000000000254143500002200000204CE0120                        NO                            T:\MEDICAL\NA\RTP\TEAM CENTER\TEMPLATES\GRAPHICS\blank-01.tif                                                                                                                                                                                                  
Z2BTLC01000                   500000000000254143500002300000204COOSTATE                      NO                            T:\MEDICAL\NA\RTP\TEAM CENTER\TEMPLATES\GRAPHICS\blank-01.tif                                                                                                                                                                                                  
Z2BTLC01000                   500000000000254143500002400000204ECREPADDRESS                  NO                            T:\MEDICAL\NA\RTP\TEAM CENTER\TEMPLATES\GRAPHICS\blank-01.tif                                                                                                                                                                                                  
Z2BTLC01000                   500000000000254143500002500000204FLGRAPHIC                     NO                            T:\MEDICAL\NA\RTP\TEAM CENTER\TEMPLATES\GRAPHICS\blank-01.tif                                                                                                                                                                                                  
Z2BTLC01000                   500000000000254143500002600000204LATEXSTATEMENT                NO                            T:\MEDICAL\NA\RTP\TEAM CENTER\TEMPLATES\GRAPHICS\blank-01.tif                                                                                                                                                                                                  
Z2BTLC01000                   500000000000254143500002700000204LOGO1                         NO                            T:\MEDICAL\NA\RTP\TEAM CENTER\TEMPLATES\GRAPHICS\blank-01.tif                                                                                                                                                                                                  
Z2BTLC01000                   500000000000254143500002800000204STERILITYTYPE                 NONSTERILE                    T:\MEDICAL\NA\RTP\TEAM CENTER\TEMPLATES\GRAPHICS\NONSTERILE.tif                                                                                                                                                                                                
Z2BTLC01000                   500000000000254143500002900000204PREV                          LBL000023                     T:\MEDICAL\NA\RTP\TEAM CENTER\TEMPLATES\GRAPHICS\LBL000023.tif                                                                                                                                                                                                 
Z2BTLC01000                   500000000000254143500003000000204OLDTEMP                       T000039                       T:\MEDICAL\NA\RTP\TEAM CENTER\TEMPLATES\GRAPHICS\T000039.tif                                                                                                                                                                                                   
Z2BTMH01000                   50000000000025414350000310000300220018-M57         
Z2BTLH01000                   500000000000254143500003200003103LBL024657         
Z2BTTX01000                   500000000000254143500003300003204GRUNE  ENMATERIAL  LBL024657                                                             6.5Fr (2.2mm) x 45.7cm##                                              *
Z2BTTX01000                   500000000000254143500003400003204GRUNE  ENMATERIAL  LBL024657                                                                                                                                   /
Z2BTLC01000                   500000000000254143500003500003204TEMPLATENUMBER                T002521                       T002521                                                                                                                                                                                                                                                        
Z2BTLC01000                   500000000000254143500003600003204REVISION                      R00                           R00                                                                                                                                                                                                                                                            
Z2BTLC01000                   500000000000254143500003700003204SIZE                          4.125" X 2.188"               4.125" X 2.188"                                                                                                                                                                                                                                                
Z2BTLC01000                   500000000000254143500003800003204LEVEL                         Each Unit                     Each Unit                                                                                                                                                                                                                                                      
Z2BTLC01000                   500000000000254143500003900003204QUANTITY                      1                             1                                                                                                                                                                                                                                                              
Z2BTLC01000                   500000000000254143500004000003204BARCODETEXT                   14026704656414                14026704656414                                                                                                                                                                                                                                                 
Z2BTLC01000                   500000000000254143500004100003204LTNUMBER                      IPN029600                     IPN029600                                                                                                                                                                                                                                                      
Z2BTLC01000                   500000000000254143500004200003204ECREP                         N                             T:\MEDICAL\NA\RTP\TEAM CENTER\TEMPLATES\GRAPHICS\blank-01.tif                                                                                                                                                                                                  
Z2BTLC01000                   500000000000254143500004300003204EXPDATE                       Y                             T:\MEDICAL\NA\RTP\TEAM CENTER\TEMPLATES\GRAPHICS\Expiration Date.tif                                                                                                                                                                                           
Z2BTLC01000                   500000000000254143500004400003204KEEPAWAYHEAT                  N                             T:\MEDICAL\NA\RTP\TEAM CENTER\TEMPLATES\GRAPHICS\blank-01.tif                                                                                                                                                                                                  
Z2BTLC01000                   500000000000254143500004500003204LOTGRAPHIC                    Y                             T:\MEDICAL\NA\RTP\TEAM CENTER\TEMPLATES\GRAPHICS\Lot.tif                                                                                                                                                                                                       
Z2BTLC01000                   500000000000254143500004600003204MANUFACTURER                  N                             T:\MEDICAL\NA\RTP\TEAM CENTER\TEMPLATES\GRAPHICS\blank-01.tif                                                                                                                                                                                                  
Z2BTLC01000                   500000000000254143500004700003204REF                           N                             T:\MEDICAL\NA\RTP\TEAM CENTER\TEMPLATES\GRAPHICS\blank-01.tif                                                                                                                                                                                                  
Z2BTLC01000                   500000000000254143500004800003204RXONLY                        N                             T:\MEDICAL\NA\RTP\TEAM CENTER\TEMPLATES\GRAPHICS\blank-01.tif                                                                                                                                                                                                  
Z2BTLC01000                   500000000000254143500004900003204SIZELOGO                      N                             T:\MEDICAL\NA\RTP\TEAM CENTER\TEMPLATES\GRAPHICS\blank-01.tif                                                                                                                                                                                                  
Z2BTLC01000                   500000000000254143500005000003204TFXLOGO                       N                             T:\MEDICAL\NA\RTP\TEAM CENTER\TEMPLATES\GRAPHICS\blank-01.tif                                                                                                                                                                                                  
Z2BTLC01000                   500000000000254143500005100003204ADDRESS                       TFX4LineAdd10i                T:\MEDICAL\NA\RTP\TEAM CENTER\TEMPLATES\GRAPHICS\TFX4LineAdd10i.tif                                                                                                                                                                                            
Z2BTLC01000                   500000000000254143500005200003204CE0120                        NO                            T:\MEDICAL\NA\RTP\TEAM CENTER\TEMPLATES\GRAPHICS\blank-01.tif                                                                                                                                                                                                  
Z2BTLC01000                   500000000000254143500005300003204COOSTATE                      NO                            T:\MEDICAL\NA\RTP\TEAM CENTER\TEMPLATES\GRAPHICS\blank-01.tif                                                                                                                                                                                                  
Z2BTLC01000                   500000000000254143500005400003204ECREPADDRESS                  NO                            T:\MEDICAL\NA\RTP\TEAM CENTER\TEMPLATES\GRAPHICS\blank-01.tif                                                                                                                                                                                                  
Z2BTLC01000                   500000000000254143500005500003204FLGRAPHIC                     NO                            T:\MEDICAL\NA\RTP\TEAM CENTER\TEMPLATES\GRAPHICS\blank-01.tif                                                                                                                                                                                                  
Z2BTLC01000                   500000000000254143500005600003204LATEXSTATEMENT                NO                            T:\MEDICAL\NA\RTP\TEAM CENTER\TEMPLATES\GRAPHICS\blank-01.tif                                                                                                                                                                                                  
Z2BTLC01000                   500000000000254143500005700003204LOGO1                         NO                            T:\MEDICAL\NA\RTP\TEAM CENTER\TEMPLATES\GRAPHICS\blank-01.tif                                                                                                                                                                                                  
Z2BTLC01000                   500000000000254143500005800003204STERILITYTYPE                 NONSTERILE                    T:\MEDICAL\NA\RTP\TEAM CENTER\TEMPLATES\GRAPHICS\NONSTERILE.tif                                                                                                                                                                                                
Z2BTLC01000                   500000000000254143500005900003204PREV                          LBL000024                     T:\MEDICAL\NA\RTP\TEAM CENTER\TEMPLATES\GRAPHICS\LBL000024.tif                                                                                                                                                                                                 
Z2BTLC01000                   500000000000254143500006000003204OLDTEMP                       T000039                       T:\MEDICAL\NA\RTP\TEAM CENTER\TEMPLATES\GRAPHICS\T000039.tif                                                                                                                                                                                                   
Z2BTMH01000                   50000000000025414350000610000600220018-010         
Z2BTLH01000                   500000000000254143500006200006103LBL024658         
Z2BTTX01000                   500000000000254143500006300006204GRUNE  ENMATERIAL  LBL024658                                                             7.5Fr (2.5mm) x 45.7cm##                                              *
Z2BTTX01000                   500000000000254143500006400006204GRUNE  ENMATERIAL  LBL024658                                                                                                                                   /
Z2BTLC01000                   500000000000254143500006500006204TEMPLATENUMBER                T002521                       T002521                                                                                                                                                                                                                                                        
Z2BTLC01000                   500000000000254143500006600006204REVISION                      R00                           R00                                                                                                                                                                                                                                                            
Z2BTLC01000                   500000000000254143500006700006204SIZE                          4.125" X 2.188"               4.125" X 2.188"                                                                                                                                                                                                                                                
Z2BTLC01000                   500000000000254143500006800006204LEVEL                         Each Unit                     Each Unit                                                                                                                                                                                                                                                      
Z2BTLC01000                   500000000000254143500006900006204QUANTITY                      1                             1                                                                                                                                                                                                                                                              
Z2BTLC01000                   500000000000254143500007000006204BARCODETEXT                   14026704656384                14026704656384                                                                                                                                                                                                                                                 
Z2BTLC01000                   500000000000254143500007100006204LTNUMBER                      IPN029597                     IPN029597                                                                                                                                                                                                                                                      
Z2BTLC01000                   500000000000254143500007200006204ECREP                         N                             T:\MEDICAL\NA\RTP\TEAM CENTER\TEMPLATES\GRAPHICS\blank-01.tif                                                                                                                                                                                                  
Z2BTLC01000                   500000000000254143500007300006204EXPDATE                       Y                             T:\MEDICAL\NA\RTP\TEAM CENTER\TEMPLATES\GRAPHICS\Expiration Date.tif                                                                                                                                                                                           
Z2BTLC01000                   500000000000254143500007400006204KEEPAWAYHEAT                  N                             T:\MEDICAL\NA\RTP\TEAM CENTER\TEMPLATES\GRAPHICS\blank-01.tif                                                                                                                                                                                                  
Z2BTLC01000                   500000000000254143500007500006204LOTGRAPHIC                    Y                             T:\MEDICAL\NA\RTP\TEAM CENTER\TEMPLATES\GRAPHICS\Lot.tif                                                                                                                                                                                                       
Z2BTLC01000                   500000000000254143500007600006204MANUFACTURER                  N                             T:\MEDICAL\NA\RTP\TEAM CENTER\TEMPLATES\GRAPHICS\blank-01.tif                                                                                                                                                                                                  
Z2BTLC01000                   500000000000254143500007700006204REF                           N                             T:\MEDICAL\NA\RTP\TEAM CENTER\TEMPLATES\GRAPHICS\blank-01.tif                                                                                                                                                                                                  
Z2BTLC01000                   500000000000254143500007800006204RXONLY                        N                             T:\MEDICAL\NA\RTP\TEAM CENTER\TEMPLATES\GRAPHICS\blank-01.tif                                                                                                                                                                                                  
Z2BTLC01000                   500000000000254143500007900006204SIZELOGO                      N                             T:\MEDICAL\NA\RTP\TEAM CENTER\TEMPLATES\GRAPHICS\blank-01.tif                                                                                                                                                                                                  
Z2BTLC01000                   500000000000254143500008000006204TFXLOGO                       N                             T:\MEDICAL\NA\RTP\TEAM CENTER\TEMPLATES\GRAPHICS\blank-01.tif                                                                                                                                                                                                  
Z2BTLC01000                   500000000000254143500008100006204ADDRESS                       TFX4LineAdd10i                T:\MEDICAL\NA\RTP\TEAM CENTER\TEMPLATES\GRAPHICS\TFX4LineAdd10i.tif                                                                                                                                                                                            
Z2BTLC01000                   500000000000254143500008200006204CE0120                        NO                            T:\MEDICAL\NA\RTP\TEAM CENTER\TEMPLATES\GRAPHICS\blank-01.tif                                                                                                                                                                                                  
Z2BTLC01000                   500000000000254143500008300006204COOSTATE                      NO                            T:\MEDICAL\NA\RTP\TEAM CENTER\TEMPLATES\GRAPHICS\blank-01.tif                                                                                                                                                                                                  
Z2BTLC01000                   500000000000254143500008400006204ECREPADDRESS                  NO                            T:\MEDICAL\NA\RTP\TEAM CENTER\TEMPLATES\GRAPHICS\blank-01.tif                                                                                                                                                                                                  
Z2BTLC01000                   500000000000254143500008500006204FLGRAPHIC                     NO                            T:\MEDICAL\NA\RTP\TEAM CENTER\TEMPLATES\GRAPHICS\blank-01.tif                                                                                                                                                                                                  
Z2BTLC01000                   500000000000254143500008600006204LATEXSTATEMENT                NO                            T:\MEDICAL\NA\RTP\TEAM CENTER\TEMPLATES\GRAPHICS\blank-01.tif                                                                                                                                                                                                  
Z2BTLC01000                   500000000000254143500008700006204LOGO1                         NO                            T:\MEDICAL\NA\RTP\TEAM CENTER\TEMPLATES\GRAPHICS\blank-01.tif                                                                                                                                                                                                  
Z2BTLC01000                   500000000000254143500008800006204STERILITYTYPE                 NONSTERILE                    T:\MEDICAL\NA\RTP\TEAM CENTER\TEMPLATES\GRAPHICS\NONSTERILE.tif                                                                                                                                                                                                
Z2BTLC01000                   500000000000254143500008900006204PREV                          LBL000025                     T:\MEDICAL\NA\RTP\TEAM CENTER\TEMPLATES\GRAPHICS\LBL000025.tif                                                                                                                                                                                                 
Z2BTLC01000                   500000000000254143500009000006204OLDTEMP                       T000039                       T:\MEDICAL\NA\RTP\TEAM CENTER\TEMPLATES\GRAPHICS\T000039.tif                                                                                                                                                                                                   
Z2BTMH01000                   500000000000254143500009100009002965600            
Z2BTLH01000                   500000000000254143500009200009103LBL024659         
Z2BTTX01000                   500000000000254143500009300009204GRUNE  ENMATERIAL  LBL024659                                                             5.5Fr (1.8mm) x 45.7cm ##                                             *
Z2BTTX01000                   500000000000254143500009400009204GRUNE  ENMATERIAL  LBL024659                                                                                                                                   /
Z2BTLC01000                   500000000000254143500009500009204TEMPLATENUMBER                T002521                       T002521                                                                                                                                                                                                                                                        
Z2BTLC01000                   500000000000254143500009600009204REVISION                      R00                           R00                                                                                                                                                                                                                                                            
Z2BTLC01000                   500000000000254143500009700009204SIZE                          4.125" X 2.188"               4.125" X 2.188"                                                                                                                                                                                                                                                
Z2BTLC01000                   500000000000254143500009800009204LEVEL                         Each Unit                     Each Unit                                                                                                                                                                                                                                                      
Z2BTLC01000                   500000000000254143500009900009204QUANTITY                      1                             1                                                                                                                                                                                                                                                              
Z2BTLC01000                   500000000000254143500010000009204BARCODETEXT                   14026704656438                14026704656438                                                                                                                                                                                                                                                 
Z2BTLC01000                   500000000000254143500010100009204LTNUMBER                      IPN029595                     IPN029595                                                                                                                                                                                                                                                      
Z2BTLC01000                   500000000000254143500010200009204ECREP                         N                             T:\MEDICAL\NA\RTP\TEAM CENTER\TEMPLATES\GRAPHICS\blank-01.tif                                                                                                                                                                                                  
Z2BTLC01000                   500000000000254143500010300009204EXPDATE                       Y                             T:\MEDICAL\NA\RTP\TEAM CENTER\TEMPLATES\GRAPHICS\Expiration Date.tif                                                                                                                                                                                           
Z2BTLC01000                   500000000000254143500010400009204KEEPAWAYHEAT                  N                             T:\MEDICAL\NA\RTP\TEAM CENTER\TEMPLATES\GRAPHICS\blank-01.tif                                                                                                                                                                                                  
Z2BTLC01000                   500000000000254143500010500009204LOTGRAPHIC                    Y                             T:\MEDICAL\NA\RTP\TEAM CENTER\TEMPLATES\GRAPHICS\Lot.tif                                                                                                                                                                                                       
Z2BTLC01000                   500000000000254143500010600009204MANUFACTURER                  N                             T:\MEDICAL\NA\RTP\TEAM CENTER\TEMPLATES\GRAPHICS\blank-01.tif                                                                                                                                                                                                  
Z2BTLC01000                   500000000000254143500010700009204REF                           N                             T:\MEDICAL\NA\RTP\TEAM CENTER\TEMPLATES\GRAPHICS\blank-01.tif                                                                                                                                                                                                  
Z2BTLC01000                   500000000000254143500010800009204RXONLY                        N                             T:\MEDICAL\NA\RTP\TEAM CENTER\TEMPLATES\GRAPHICS\blank-01.tif                                                                                                                                                                                                  
Z2BTLC01000                   500000000000254143500010900009204SIZELOGO                      Y                             T:\MEDICAL\NA\RTP\TEAM CENTER\TEMPLATES\GRAPHICS\BLANK-01.TIF                                                                                                                                                                                                  
Z2BTLC01000                   500000000000254143500011000009204TFXLOGO                       N                             T:\MEDICAL\NA\RTP\TEAM CENTER\TEMPLATES\GRAPHICS\blank-01.tif                                                                                                                                                                                                  
Z2BTLC01000                   500000000000254143500011100009204ADDRESS                       TFX4LineAdd10i                T:\MEDICAL\NA\RTP\TEAM CENTER\TEMPLATES\GRAPHICS\TFX4LineAdd10i.tif                                                                                                                                                                                            
Z2BTLC01000                   500000000000254143500011200009204CE0120                        NO                            T:\MEDICAL\NA\RTP\TEAM CENTER\TEMPLATES\GRAPHICS\blank-01.tif                                                                                                                                                                                                  
Z2BTLC01000                   500000000000254143500011300009204COOSTATE                      NO                            T:\MEDICAL\NA\RTP\TEAM CENTER\TEMPLATES\GRAPHICS\blank-01.tif                                                                                                                                                                                                  
Z2BTLC01000                   500000000000254143500011400009204ECREPADDRESS                  NO                            T:\MEDICAL\NA\RTP\TEAM CENTER\TEMPLATES\GRAPHICS\blank-01.tif                                                                                                                                                                                                  
Z2BTLC01000                   500000000000254143500011500009204FLGRAPHIC                     NO                            T:\MEDICAL\NA\RTP\TEAM CENTER\TEMPLATES\GRAPHICS\blank-01.tif                                                                                                                                                                                                  
Z2BTLC01000                   500000000000254143500011600009204LATEXSTATEMENT                NO                            T:\MEDICAL\NA\RTP\TEAM CENTER\TEMPLATES\GRAPHICS\blank-01.tif                                                                                                                                                                                                  
Z2BTLC01000                   500000000000254143500011700009204LOGO1                         NO                            T:\MEDICAL\NA\RTP\TEAM CENTER\TEMPLATES\GRAPHICS\blank-01.tif                                                                                                                                                                                                  
Z2BTLC01000                   500000000000254143500011800009204STERILITYTYPE                 NONSTERILE                    T:\MEDICAL\NA\RTP\TEAM CENTER\TEMPLATES\GRAPHICS\NONSTERILE.tif                                                                                                                                                                                                
Z2BTLC01000                   500000000000254143500011900009204PREV                          LBL000121                     T:\MEDICAL\NA\RTP\TEAM CENTER\TEMPLATES\GRAPHICS\LBL000121.tif                                                                                                                                                                                                 
Z2BTLC01000                   500000000000254143500012000009204OLDTEMP                       T000039                       T:\MEDICAL\NA\RTP\TEAM CENTER\TEMPLATES\GRAPHICS\T000039.tif                                                                                                                                                                                                   
Z2BTMH01000                   500000000000254143500012100012002965700            
Z2BTLH01000                   500000000000254143500012200012103LBL024660         
Z2BTTX01000                   500000000000254143500012300012204GRUNE  ENMATERIAL  LBL024660                                                             6.5Fr (2.2mm) x 45.7cm##                                              *
Z2BTTX01000                   500000000000254143500012400012204GRUNE  ENMATERIAL  LBL024660                                                                                                                                   /
Z2BTLC01000                   500000000000254143500012500012204TEMPLATENUMBER                T002521                       T002521                                                                                                                                                                                                                                                        
Z2BTLC01000                   500000000000254143500012600012204REVISION                      R00                           R00                                                                                                                                                                                                                                                            
Z2BTLC01000                   500000000000254143500012700012204SIZE                          4.125" X 2.188"               4.125" X 2.188"                                                                                                                                                                                                                                                
Z2BTLC01000                   500000000000254143500012800012204LEVEL                         Each Unit                     Each Unit                                                                                                                                                                                                                                                      
Z2BTLC01000                   500000000000254143500012900012204QUANTITY                      1                             1                                                                                                                                                                                                                                                              
Z2BTLC01000                   500000000000254143500013000012204BARCODETEXT                   14026704656445                14026704656445                                                                                                                                                                                                                                                 
Z2BTLC01000                   500000000000254143500013100012204LTNUMBER                      IPN029596                     IPN029596                                                                                                                                                                                                                                                      
Z2BTLC01000                   500000000000254143500013200012204ECREP                         N                             T:\MEDICAL\NA\RTP\TEAM CENTER\TEMPLATES\GRAPHICS\blank-01.tif                                                                                                                                                                                                  
Z2BTLC01000                   500000000000254143500013300012204EXPDATE                       Y                             T:\MEDICAL\NA\RTP\TEAM CENTER\TEMPLATES\GRAPHICS\Expiration Date.tif                                                                                                                                                                                           
Z2BTLC01000                   500000000000254143500013400012204KEEPAWAYHEAT                  N                             T:\MEDICAL\NA\RTP\TEAM CENTER\TEMPLATES\GRAPHICS\blank-01.tif                                                                                                                                                                                                  
Z2BTLC01000                   500000000000254143500013500012204LOTGRAPHIC                    Y                             T:\MEDICAL\NA\RTP\TEAM CENTER\TEMPLATES\GRAPHICS\Lot.tif                                                                                                                                                                                                       
Z2BTLC01000                   500000000000254143500013600012204MANUFACTURER                  N                             T:\MEDICAL\NA\RTP\TEAM CENTER\TEMPLATES\GRAPHICS\blank-01.tif                                                                                                                                                                                                  
Z2BTLC01000                   500000000000254143500013700012204REF                           N                             T:\MEDICAL\NA\RTP\TEAM CENTER\TEMPLATES\GRAPHICS\blank-01.tif                                                                                                                                                                                                  
Z2BTLC01000                   500000000000254143500013800012204RXONLY                        N                             T:\MEDICAL\NA\RTP\TEAM CENTER\TEMPLATES\GRAPHICS\blank-01.tif                                                                                                                                                                                                  
Z2BTLC01000                   500000000000254143500013900012204SIZELOGO                      N                             T:\MEDICAL\NA\RTP\TEAM CENTER\TEMPLATES\GRAPHICS\blank-01.tif                                                                                                                                                                                                  
Z2BTLC01000                   500000000000254143500014000012204TFXLOGO                       N                             T:\MEDICAL\NA\RTP\TEAM CENTER\TEMPLATES\GRAPHICS\blank-01.tif                                                                                                                                                                                                  
Z2BTLC01000                   500000000000254143500014100012204ADDRESS                       TFX4LineAdd10i                T:\MEDICAL\NA\RTP\TEAM CENTER\TEMPLATES\GRAPHICS\TFX4LineAdd10i.tif                                                                                                                                                                                            
Z2BTLC01000                   500000000000254143500014200012204CE0120                        NO                            T:\MEDICAL\NA\RTP\TEAM CENTER\TEMPLATES\GRAPHICS\blank-01.tif                                                                                                                                                                                                  
Z2BTLC01000                   500000000000254143500014300012204COOSTATE                      NO                            T:\MEDICAL\NA\RTP\TEAM CENTER\TEMPLATES\GRAPHICS\blank-01.tif                                                                                                                                                                                                  
Z2BTLC01000                   500000000000254143500014400012204ECREPADDRESS                  NO                            T:\MEDICAL\NA\RTP\TEAM CENTER\TEMPLATES\GRAPHICS\blank-01.tif                                                                                                                                                                                                  
Z2BTLC01000                   500000000000254143500014500012204FLGRAPHIC                     NO                            T:\MEDICAL\NA\RTP\TEAM CENTER\TEMPLATES\GRAPHICS\blank-01.tif                                                                                                                                                                                                  
Z2BTLC01000                   500000000000254143500014600012204LATEXSTATEMENT                NO                            T:\MEDICAL\NA\RTP\TEAM CENTER\TEMPLATES\GRAPHICS\blank-01.tif                                                                                                                                                                                                  
Z2BTLC01000                   500000000000254143500014700012204LOGO1                         NO                            T:\MEDICAL\NA\RTP\TEAM CENTER\TEMPLATES\GRAPHICS\blank-01.tif                                                                                                                                                                                                  
Z2BTLC01000                   500000000000254143500014800012204STERILITYTYPE                 NONSTERILE                    T:\MEDICAL\NA\RTP\TEAM CENTER\TEMPLATES\GRAPHICS\NONSTERILE.tif                                                                                                                                                                                                
Z2BTLC01000                   500000000000254143500014900012204PREV                          LBL000122                     T:\MEDICAL\NA\RTP\TEAM CENTER\TEMPLATES\GRAPHICS\LBL000122.tif                                                                                                                                                                                                 
Z2BTLC01000                   500000000000254143500015000012204OLDTEMP                       T000039                       T:\MEDICAL\NA\RTP\TEAM CENTER\TEMPLATES\GRAPHICS\T000039.tif                                                                                                                                                                                                   
Z2BTMH01000                   500000000000254143500015100015002965500            
Z2BTLH01000                   500000000000254143500015200015103LBL024661         
Z2BTTX01000                   500000000000254143500015300015204GRUNE  ENMATERIAL  LBL024661                                                             4.5Fr (1.5mm) x 45.7cm ##                                             *
Z2BTTX01000                   500000000000254143500015400015204GRUNE  ENMATERIAL  LBL024661                                                                                                                                   /
Z2BTLC01000                   500000000000254143500015500015204TEMPLATENUMBER                T002521                       T002521                                                                                                                                                                                                                                                        
Z2BTLC01000                   500000000000254143500015600015204REVISION                      R00                           R00                                                                                                                                                                                                                                                            
Z2BTLC01000                   500000000000254143500015700015204SIZE                          4.125" X 2.188"               4.125" X 2.188"                                                                                                                                                                                                                                                
Z2BTLC01000                   500000000000254143500015800015204LEVEL                         Each Unit                     Each Unit                                                                                                                                                                                                                                                      
Z2BTLC01000                   500000000000254143500015900015204QUANTITY                      1                             1                                                                                                                                                                                                                                                              
Z2BTLC01000                   500000000000254143500016000015204BARCODETEXT                   14026704656421                14026704656421                                                                                                                                                                                                                                                 
Z2BTLC01000                   500000000000254143500016100015204LTNUMBER                      IPN029594                     IPN029594                                                                                                                                                                                                                                                      
Z2BTLC01000                   500000000000254143500016200015204ECREP                         N                             T:\MEDICAL\NA\RTP\TEAM CENTER\TEMPLATES\GRAPHICS\blank-01.tif                                                                                                                                                                                                  
Z2BTLC01000                   500000000000254143500016300015204EXPDATE                       Y                             T:\MEDICAL\NA\RTP\TEAM CENTER\TEMPLATES\GRAPHICS\Expiration Date.tif                                                                                                                                                                                           
Z2BTLC01000                   500000000000254143500016400015204KEEPAWAYHEAT                  N                             T:\MEDICAL\NA\RTP\TEAM CENTER\TEMPLATES\GRAPHICS\blank-01.tif                                                                                                                                                                                                  
Z2BTLC01000                   500000000000254143500016500015204LOTGRAPHIC                    Y                             T:\MEDICAL\NA\RTP\TEAM CENTER\TEMPLATES\GRAPHICS\Lot.tif                                                                                                                                                                                                       
Z2BTLC01000                   500000000000254143500016600015204MANUFACTURER                  N                             T:\MEDICAL\NA\RTP\TEAM CENTER\TEMPLATES\GRAPHICS\blank-01.tif                                                                                                                                                                                                  
Z2BTLC01000                   500000000000254143500016700015204REF                           N                             T:\MEDICAL\NA\RTP\TEAM CENTER\TEMPLATES\GRAPHICS\blank-01.tif                                                                                                                                                                                                  
Z2BTLC01000                   500000000000254143500016800015204RXONLY                        N                             T:\MEDICAL\NA\RTP\TEAM CENTER\TEMPLATES\GRAPHICS\blank-01.tif                                                                                                                                                                                                  
Z2BTLC01000                   500000000000254143500016900015204SIZELOGO                      Y                             T:\MEDICAL\NA\RTP\TEAM CENTER\TEMPLATES\GRAPHICS\BLANK-01.TIF                                                                                                                                                                                                  
Z2BTLC01000                   500000000000254143500017000015204TFXLOGO                       N                             T:\MEDICAL\NA\RTP\TEAM CENTER\TEMPLATES\GRAPHICS\blank-01.tif                                                                                                                                                                                                  
Z2BTLC01000                   500000000000254143500017100015204ADDRESS                       TFX4LineAdd10i                T:\MEDICAL\NA\RTP\TEAM CENTER\TEMPLATES\GRAPHICS\TFX4LineAdd10i.tif                                                                                                                                                                                            
Z2BTLC01000                   500000000000254143500017200015204CE0120                        NO                            T:\MEDICAL\NA\RTP\TEAM CENTER\TEMPLATES\GRAPHICS\blank-01.tif                                                                                                                                                                                                  
Z2BTLC01000                   500000000000254143500017300015204COOSTATE                      NO                            T:\MEDICAL\NA\RTP\TEAM CENTER\TEMPLATES\GRAPHICS\blank-01.tif                                                                                                                                                                                                  
Z2BTLC01000                   500000000000254143500017400015204ECREPADDRESS                  NO                            T:\MEDICAL\NA\RTP\TEAM CENTER\TEMPLATES\GRAPHICS\blank-01.tif                                                                                                                                                                                                  
Z2BTLC01000                   500000000000254143500017500015204FLGRAPHIC                     NO                            T:\MEDICAL\NA\RTP\TEAM CENTER\TEMPLATES\GRAPHICS\blank-01.tif                                                                                                                                                                                                  
Z2BTLC01000                   500000000000254143500017600015204LATEXSTATEMENT                NO                            T:\MEDICAL\NA\RTP\TEAM CENTER\TEMPLATES\GRAPHICS\blank-01.tif                                                                                                                                                                                                  
Z2BTLC01000                   500000000000254143500017700015204LOGO1                         NO                            T:\MEDICAL\NA\RTP\TEAM CENTER\TEMPLATES\GRAPHICS\blank-01.tif                                                                                                                                                                                                  
Z2BTLC01000                   500000000000254143500017800015204STERILITYTYPE                 NONSTERILE                    T:\MEDICAL\NA\RTP\TEAM CENTER\TEMPLATES\GRAPHICS\NONSTERILE.tif                                                                                                                                                                                                
Z2BTLC01000                   500000000000254143500017900015204PREV                          LBL000134                     T:\MEDICAL\NA\RTP\TEAM CENTER\TEMPLATES\GRAPHICS\LBL000134.tif                                                                                                                                                                                                 
Z2BTLC01000                   500000000000254143500018000015204OLDTEMP                       T000039                       T:\MEDICAL\NA\RTP\TEAM CENTER\TEMPLATES\GRAPHICS\T000039.tif                                                                                                                                                                                                   
Z2BTMH01000                   500000000000254143500018100018002PI-63             
Z2BTLH01000                   500000000000254143500018200018103LBL024662         
Z2BTLC01000                   500000000000254143500018300018204TEMPLATENUMBER                LBL024662 R00.btw             LBL024662 R00.btw                                                                                                                                                                                                                                              
Z2BTLC01000                   500000000000254143500018400018204REVISION                      R00                           R00                                                                                                                                                                                                                                                            
Z2BTLC01000                   500000000000254143500018500018204SIZE                          0.5" X 2"                     0.5" X 2"                                                                                                                                                                                                                                                      
Z2BTLC01000                   500000000000254143500018600018204LEVEL                         Blister                       Blister                                                                                                                                                                                                                                                        
Z2BTLC01000                   500000000000254143500018700018204QUANTITY                      NO                            NO                                                                                                                                                                                                                                                             
Z2BTLC01000                   500000000000254143500018800018204BARCODETEXT                   14026704656476                14026704656476                                                                                                                                                                                                                                                 
Z2BTLC01000                   500000000000254143500018900018204LTNUMBER                      IPN029603                     IPN029603                                                                                                                                                                                                                                                      
Z2BTLC01000                   500000000000254143500019000018204ECREP                         N                             T:\MEDICAL\NA\RTP\TEAM CENTER\TEMPLATES\GRAPHICS\blank-01.tif                                                                                                                                                                                                  
Z2BTLC01000                   500000000000254143500019100018204EXPDATE                       Y                             T:\MEDICAL\NA\RTP\TEAM CENTER\TEMPLATES\GRAPHICS\Expiration Date.tif                                                                                                                                                                                           
Z2BTLC01000                   500000000000254143500019200018204KEEPAWAYHEAT                  N                             T:\MEDICAL\NA\RTP\TEAM CENTER\TEMPLATES\GRAPHICS\blank-01.tif                                                                                                                                                                                                  
Z2BTLC01000                   500000000000254143500019300018204LOTGRAPHIC                    Y                             T:\MEDICAL\NA\RTP\TEAM CENTER\TEMPLATES\GRAPHICS\Lot.tif                                                                                                                                                                                                       
Z2BTLC01000                   500000000000254143500019400018204MANUFACTURER                  N                             T:\MEDICAL\NA\RTP\TEAM CENTER\TEMPLATES\GRAPHICS\blank-01.tif                                                                                                                                                                                                  
Z2BTLC01000                   500000000000254143500019500018204REF                           N                             T:\MEDICAL\NA\RTP\TEAM CENTER\TEMPLATES\GRAPHICS\blank-01.tif                                                                                                                                                                                                  
Z2BTLC01000                   500000000000254143500019600018204RXONLY                        N                             T:\MEDICAL\NA\RTP\TEAM CENTER\TEMPLATES\GRAPHICS\blank-01.tif                                                                                                                                                                                                  
Z2BTLC01000                   500000000000254143500019700018204SIZELOGO                      N                             T:\MEDICAL\NA\RTP\TEAM CENTER\TEMPLATES\GRAPHICS\blank-01.tif                                                                                                                                                                                                  
Z2BTLC01000                   500000000000254143500019800018204TFXLOGO                       N                             T:\MEDICAL\NA\RTP\TEAM CENTER\TEMPLATES\GRAPHICS\blank-01.tif                                                                                                                                                                                                  
Z2BTLC01000                   500000000000254143500019900018204ADDRESS                       NO                            T:\MEDICAL\NA\RTP\TEAM CENTER\TEMPLATES\GRAPHICS\blank-01.tif                                                                                                                                                                                                  
Z2BTLC01000                   500000000000254143500020000018204CE0120                        NO                            T:\MEDICAL\NA\RTP\TEAM CENTER\TEMPLATES\GRAPHICS\blank-01.tif                                                                                                                                                                                                  
Z2BTLC01000                   500000000000254143500020100018204COOSTATE                      NO                            T:\MEDICAL\NA\RTP\TEAM CENTER\TEMPLATES\GRAPHICS\blank-01.tif                                                                                                                                                                                                  
Z2BTLC01000                   500000000000254143500020200018204ECREPADDRESS                  NO                            T:\MEDICAL\NA\RTP\TEAM CENTER\TEMPLATES\GRAPHICS\blank-01.tif                                                                                                                                                                                                  
Z2BTLC01000                   500000000000254143500020300018204FLGRAPHIC                     NO                            T:\MEDICAL\NA\RTP\TEAM CENTER\TEMPLATES\GRAPHICS\blank-01.tif                                                                                                                                                                                                  
Z2BTLC01000                   500000000000254143500020400018204LATEXSTATEMENT                NO                            T:\MEDICAL\NA\RTP\TEAM CENTER\TEMPLATES\GRAPHICS\blank-01.tif                                                                                                                                                                                                  
Z2BTLC01000                   500000000000254143500020500018204LOGO1                         NO                            T:\MEDICAL\NA\RTP\TEAM CENTER\TEMPLATES\GRAPHICS\blank-01.tif                                                                                                                                                                                                  
Z2BTLC01000                   500000000000254143500020600018204STERILITYTYPE                 NONSTERILE                    T:\MEDICAL\NA\RTP\TEAM CENTER\TEMPLATES\GRAPHICS\NONSTERILE.tif                                                                                                                                                                                                
Z2BTLC01000                   500000000000254143500020700018204PREV                          LBL000017                     T:\MEDICAL\NA\RTP\TEAM CENTER\TEMPLATES\GRAPHICS\LBL000017.tif                                                                                                                                                                                                 
Z2BTLC01000                   500000000000254143500020800018204OLDTEMP                       T000022                       T:\MEDICAL\NA\RTP\TEAM CENTER\TEMPLATES\GRAPHICS\T000022.tif                                                                                                                                                                                                   
Z2BTMH01000                   50000000000025414350002090002080218305             
Z2BTLH01000                   500000000000254143500021000020903LBL024663         
Z2BTTX01000                   500000000000254143500021100021004GRUNE  ENMATERIAL  LBL024663                                                             SIZE: 4.5Fr (1.5mm) x 76cm                                            *
Z2BTLC01000                   500000000000254143500021200021004TEMPLATENUMBER                T002519                       T002519                                                                                                                                                                                                                                                        
Z2BTLC01000                   500000000000254143500021300021004REVISION                      R00                           R00                                                                                                                                                                                                                                                            
Z2BTLC01000                   500000000000254143500021400021004SIZE                          2.188" X 4.125"               2.188" X 4.125"                                                                                                                                                                                                                                                
Z2BTLC01000                   500000000000254143500021500021004LEVEL                         Each Unit                     Each Unit                                                                                                                                                                                                                                                      
Z2BTLC01000                   500000000000254143500021600021004QUANTITY                      1                             1                                                                                                                                                                                                                                                              
Z2BTLC01000                   500000000000254143500021700021004BARCODETEXT                   14026704656360                14026704656360                                                                                                                                                                                                                                                 
Z2BTLC01000                   500000000000254143500021800021004LTNUMBER                      IPN029592                     IPN029592                                                                                                                                                                                                                                                      
Z2BTLC01000                   500000000000254143500021900021004GRAPHIC01                     Y                             T:\MEDICAL\NA\RTP\TEAM CENTER\TEMPLATES\GRAPHICS\Caution.tif                                                                                                                                                                                                   
Z2BTLC01000                   500000000000254143500022000021004GRAPHIC02                     Y                             T:\MEDICAL\NA\RTP\TEAM CENTER\TEMPLATES\GRAPHICS\ConsultIFU.tif                                                                                                                                                                                                
Z2BTLC01000                   500000000000254143500022100021004GRAPHIC03                     Y                             T:\MEDICAL\NA\RTP\TEAM CENTER\TEMPLATES\GRAPHICS\DoNotUsePakDam.tif                                                                                                                                                                                            
Z2BTLC01000                   500000000000254143500022200021004GRAPHIC04                     Y                             T:\MEDICAL\NA\RTP\TEAM CENTER\TEMPLATES\GRAPHICS\SINGLEUSE.tif                                                                                                                                                                                                 
Z2BTLC01000                   500000000000254143500022300021004GRAPHIC05                     Y                             T:\MEDICAL\NA\RTP\TEAM CENTER\TEMPLATES\GRAPHICS\DoNotRe-sterilize.tif                                                                                                                                                                                         
Z2BTLC01000                   500000000000254143500022400021004ECREP                         Y                             T:\MEDICAL\NA\RTP\TEAM CENTER\TEMPLATES\GRAPHICS\EC Rep.tif                                                                                                                                                                                                    
Z2BTLC01000                   500000000000254143500022500021004EXPDATE                       Y                             T:\MEDICAL\NA\RTP\TEAM CENTER\TEMPLATES\GRAPHICS\Expiration Date.tif                                                                                                                                                                                           
Z2BTLC01000                   500000000000254143500022600021004KEEPAWAYHEAT                  Y                             T:\MEDICAL\NA\RTP\TEAM CENTER\TEMPLATES\GRAPHICS\KEEPAWAYHEAT.tif                                                                                                                                                                                              
Z2BTLC01000                   500000000000254143500022700021004LOTGRAPHIC                    Y                             T:\MEDICAL\NA\RTP\TEAM CENTER\TEMPLATES\GRAPHICS\Lot.tif                                                                                                                                                                                                       
Z2BTLC01000                   500000000000254143500022800021004MANUFACTURER                  Y                             T:\MEDICAL\NA\RTP\TEAM CENTER\TEMPLATES\GRAPHICS\Manufacturer.tif                                                                                                                                                                                              
Z2BTLC01000                   500000000000254143500022900021004REF                           Y                             T:\MEDICAL\NA\RTP\TEAM CENTER\TEMPLATES\GRAPHICS\REF.tif                                                                                                                                                                                                       
Z2BTLC01000                   500000000000254143500023000021004RXONLY                        Y                             T:\MEDICAL\NA\RTP\TEAM CENTER\TEMPLATES\GRAPHICS\RX Only.tif                                                                                                                                                                                                   
Z2BTLC01000                   500000000000254143500023100021004SIZELOGO                      N                             T:\MEDICAL\NA\RTP\TEAM CENTER\TEMPLATES\GRAPHICS\blank-01.tif                                                                                                                                                                                                  
Z2BTLC01000                   500000000000254143500023200021004TFXLOGO                       Y                             T:\MEDICAL\NA\RTP\TEAM CENTER\TEMPLATES\GRAPHICS\TeleflexMedical.tif                                                                                                                                                                                           
Z2BTLC01000                   500000000000254143500023300021004ADDRESS                       TFX4LINEADD3                  T:\MEDICAL\NA\RTP\TEAM CENTER\TEMPLATES\GRAPHICS\TFX4LINEADD3.tif                                                                                                                                                                                              
Z2BTLC01000                   500000000000254143500023400021004CE0120                        CE0120                        T:\MEDICAL\NA\RTP\TEAM CENTER\TEMPLATES\GRAPHICS\CE_0120_Below.tif                                                                                                                                                                                             
Z2BTLC01000                   500000000000254143500023500021004COOSTATE                      COOProdUSwUSFrnPackMex        T:\MEDICAL\NA\RTP\TEAM CENTER\TEMPLATES\GRAPHICS\COOProdUSwUSFrnPackMex.tif                                                                                                                                                                                    
Z2BTLC01000                   500000000000254143500023600021004ECREPADDRESS                  ATHLONE4LINE4                 T:\MEDICAL\NA\RTP\TEAM CENTER\TEMPLATES\GRAPHICS\ATHLONE4LINE4.tif                                                                                                                                                                                             
Z2BTLC01000                   500000000000254143500023700021004FLGRAPHIC                     LBL000020FL                   T:\MEDICAL\NA\RTP\TEAM CENTER\TEMPLATES\GRAPHICS\LBL000020FL.tif                                                                                                                                                                                               
Z2BTLC01000                   500000000000254143500023800021004LATEXSTATEMENT                LATEXSTMNT4                   T:\MEDICAL\NA\RTP\TEAM CENTER\TEMPLATES\GRAPHICS\LATEXSTMNT4.tif                                                                                                                                                                                               
Z2BTLC01000                   500000000000254143500023900021004LOGO1                         TAUTOPCHOLCATH                T:\MEDICAL\NA\RTP\TEAM CENTER\TEMPLATES\GRAPHICS\TAUTOPCHOLCATH.tif                                                                                                                                                                                            
Z2BTLC01000                   500000000000254143500024000021004STERILITYTYPE                 STERILEEO                     T:\MEDICAL\NA\RTP\TEAM CENTER\TEMPLATES\GRAPHICS\Sterile_EO.tif                                                                                                                                                                                                
Z2BTLC01000                   500000000000254143500024100021004PREV                          LBL000020                     T:\MEDICAL\NA\RTP\TEAM CENTER\TEMPLATES\GRAPHICS\LBL000020.tif                                                                                                                                                                                                 
Z2BTLC01000                   500000000000254143500024200021004OLDTEMP                       T000915                       T:\MEDICAL\NA\RTP\TEAM CENTER\TEMPLATES\GRAPHICS\T000915.tif                                                                                                                                                                                                   
Z2BTMH01000                   500000000000254143500024300024202965600            
Z2BTLH01000                   500000000000254143500024400024303LBL024664         
Z2BTTX01000                   500000000000254143500024500024404GRUNE  ENMATERIAL  LBL024664                                                             Operative Cholangiogram Catheter##                                    *
Z2BTTX01000                   500000000000254143500024600024404GRUNE  ENMATERIAL  LBL024664                                                             5.5Fr (1.8mm) x 45.7cm##                                              /
Z2BTTX01000                   500000000000254143500024700024404GRUNE  ENMATERIAL  LBL024664                                                             1 Catheter per Package##                                              /
Z2BTTX01000                   500000000000254143500024800024404GRUNE  ENMATERIAL  LBL024664                                                             10 Packages per Sales Unit##                                          /
Z2BTTX01000                   500000000000254143500024900024404GRUNE  ENMATERIAL  LBL024664                                                             10 Sales Units per Shipper##                                          /
Z2BTTX01000                   500000000000254143500025000024404GRUNE  ENMATERIAL  LBL024664                                                                                                                                   /
Z2BTLC01000                   500000000000254143500025100024404TEMPLATENUMBER                T002520                       T002520                                                                                                                                                                                                                                                        
Z2BTLC01000                   500000000000254143500025200024404REVISION                      R00                           R00                                                                                                                                                                                                                                                            
Z2BTLC01000                   500000000000254143500025300024404SIZE                          4" X 2.938"                   4" X 2.938"                                                                                                                                                                                                                                                    
Z2BTLC01000                   500000000000254143500025400024404LEVEL                         NO                            NO                                                                                                                                                                                                                                                             
Z2BTLC01000                   500000000000254143500025500024404QUANTITY                      NO                            NO                                                                                                                                                                                                                                                             
Z2BTLC01000                   500000000000254143500025600024404BARCODETEXT                   34026704656432                34026704656432                                                                                                                                                                                                                                                 
Z2BTLC01000                   500000000000254143500025700024404LTNUMBER                      IPN029595                     IPN029595                                                                                                                                                                                                                                                      
Z2BTLC01000                   500000000000254143500025800024404GRAPHIC01                     Y                             T:\MEDICAL\NA\RTP\TEAM CENTER\TEMPLATES\GRAPHICS\Caution.tif                                                                                                                                                                                                   
Z2BTLC01000                   500000000000254143500025900024404GRAPHIC02                     Y                             T:\MEDICAL\NA\RTP\TEAM CENTER\TEMPLATES\GRAPHICS\ConsultIFU.tif                                                                                                                                                                                                
Z2BTLC01000                   500000000000254143500026000024404GRAPHIC03                     Y                             T:\MEDICAL\NA\RTP\TEAM CENTER\TEMPLATES\GRAPHICS\DoNotUsePakDam.tif                                                                                                                                                                                            
Z2BTLC01000                   500000000000254143500026100024404GRAPHIC04                     Y                             T:\MEDICAL\NA\RTP\TEAM CENTER\TEMPLATES\GRAPHICS\SINGLEUSE.tif                                                                                                                                                                                                 
Z2BTLC01000                   500000000000254143500026200024404GRAPHIC05                     Y                             T:\MEDICAL\NA\RTP\TEAM CENTER\TEMPLATES\GRAPHICS\DoNotRe-sterilize.tif                                                                                                                                                                                         
Z2BTLC01000                   500000000000254143500026300024404ECREP                         Y                             T:\MEDICAL\NA\RTP\TEAM CENTER\TEMPLATES\GRAPHICS\EC Rep.tif                                                                                                                                                                                                    
Z2BTLC01000                   500000000000254143500026400024404EXPDATE                       Y                             T:\MEDICAL\NA\RTP\TEAM CENTER\TEMPLATES\GRAPHICS\Expiration Date.tif                                                                                                                                                                                           
Z2BTLC01000                   500000000000254143500026500024404KEEPAWAYHEAT                  N                             T:\MEDICAL\NA\RTP\TEAM CENTER\TEMPLATES\GRAPHICS\blank-01.tif                                                                                                                                                                                                  
Z2BTLC01000                   500000000000254143500026600024404LOTGRAPHIC                    Y                             T:\MEDICAL\NA\RTP\TEAM CENTER\TEMPLATES\GRAPHICS\Lot.tif                                                                                                                                                                                                       
Z2BTLC01000                   500000000000254143500026700024404MANUFACTURER                  Y                             T:\MEDICAL\NA\RTP\TEAM CENTER\TEMPLATES\GRAPHICS\Manufacturer.tif                                                                                                                                                                                              
Z2BTLC01000                   500000000000254143500026800024404REF                           Y                             T:\MEDICAL\NA\RTP\TEAM CENTER\TEMPLATES\GRAPHICS\REF.tif                                                                                                                                                                                                       
Z2BTLC01000                   500000000000254143500026900024404RXONLY                        Y                             T:\MEDICAL\NA\RTP\TEAM CENTER\TEMPLATES\GRAPHICS\RX Only.tif                                                                                                                                                                                                   
Z2BTLC01000                   500000000000254143500027000024404SIZELOGO                      N                             T:\MEDICAL\NA\RTP\TEAM CENTER\TEMPLATES\GRAPHICS\blank-01.tif                                                                                                                                                                                                  
Z2BTLC01000                   500000000000254143500027100024404TFXLOGO                       Y                             T:\MEDICAL\NA\RTP\TEAM CENTER\TEMPLATES\GRAPHICS\TeleflexMedical.tif                                                                                                                                                                                           
Z2BTLC01000                   500000000000254143500027200024404ADDRESS                       TFX4LineAdd7i                 T:\MEDICAL\NA\RTP\TEAM CENTER\TEMPLATES\GRAPHICS\TFX4LineAdd7i.tif                                                                                                                                                                                             
Z2BTLC01000                   500000000000254143500027300024404CE0120                        CE0120                        T:\MEDICAL\NA\RTP\TEAM CENTER\TEMPLATES\GRAPHICS\CE_0120_Below.tif                                                                                                                                                                                             
Z2BTLC01000                   500000000000254143500027400024404COOSTATE                      COOProdUSwUSFrnPackMex        T:\MEDICAL\NA\RTP\TEAM CENTER\TEMPLATES\GRAPHICS\COOProdUSwUSFrnPackMex.tif                                                                                                                                                                                    
Z2BTLC01000                   500000000000254143500027500024404ECREPADDRESS                  Athlone6Line                  T:\MEDICAL\NA\RTP\TEAM CENTER\TEMPLATES\GRAPHICS\Athlone6Line.tif                                                                                                                                                                                              
Z2BTLC01000                   500000000000254143500027600024404FLGRAPHIC                     NO                            T:\MEDICAL\NA\RTP\TEAM CENTER\TEMPLATES\GRAPHICS\blank-01.tif                                                                                                                                                                                                  
Z2BTLC01000                   500000000000254143500027700024404LATEXSTATEMENT                Notmadelatex                  T:\MEDICAL\NA\RTP\TEAM CENTER\TEMPLATES\GRAPHICS\Notmadelatex.tif                                                                                                                                                                                              
Z2BTLC01000                   500000000000254143500027800024404LOGO1                         TAUTLOGO                      T:\MEDICAL\NA\RTP\TEAM CENTER\TEMPLATES\GRAPHICS\TAUTLOGO.tif                                                                                                                                                                                                  
Z2BTLC01000                   500000000000254143500027900024404STERILITYTYPE                 STERILEEO                     T:\MEDICAL\NA\RTP\TEAM CENTER\TEMPLATES\GRAPHICS\Sterile_EO.tif                                                                                                                                                                                                
Z2BTLC01000                   500000000000254143500028000024404PREV                          LBL000626                     T:\MEDICAL\NA\RTP\TEAM CENTER\TEMPLATES\GRAPHICS\LBL000626.tif                                                                                                                                                                                                 
Z2BTLC01000                   500000000000254143500028100024404OLDTEMP                       T000032                       T:\MEDICAL\NA\RTP\TEAM CENTER\TEMPLATES\GRAPHICS\T000032.tif                                                                                                                                                                                                   
Z2BTMH01000                   500000000000254143500028200028102965500            
Z2BTLH01000                   500000000000254143500028300028203LBL024665         
Z2BTTX01000                   500000000000254143500028400028304GRUNE  ENMATERIAL  LBL024665                                                             Operative Cholangiogram Catheter##                                    *
Z2BTTX01000                   500000000000254143500028500028304GRUNE  ENMATERIAL  LBL024665                                                             4.5Fr (1.5mm) x 45.7cm##                                              /
Z2BTTX01000                   500000000000254143500028600028304GRUNE  ENMATERIAL  LBL024665                                                             1 Catheter per Package##                                              /
