EDI_DC40  5000000000002541435740 3012  Z1BTDOC                                                     ZSC_BTEND                                        SAPMEP    LS  MEPCLNT500                                                                                           I041      US  BARTENDER                                                                                            20110617145728                                                                                                                Material_EN         
Z2BTMH01000                   5000000000002541435000001000000021635              
Z2BTLH01000                   500000000000254143500000200000103LBL008156         
Z2BTTX01000                   500000000000254143500000300000204GRUNE  ENMATERIAL  LBL008156                                                             N                                                                     *
Z2BTLC01000                   500000000000254143500000400000204TEMPLATENUMBER                T001899                       T001899                                                                                                                                                                                                                                                        
Z2BTLC01000                   500000000000254143500000500000204REVISION                      R00                           R00                                                                                                                                                                                                                                                            
Z2BTLC01000                   500000000000254143500000600000204SIZE                          3.25 x 4 (front, back)        3.25 x 4 (front, back)                                                                                                                                                                                                                                         
Z2BTLC01000                   500000000000254143500000700000204LEVEL                         EACH                          EACH                                                                                                                                                                                                                                                           
Z2BTLC01000                   500000000000254143500000800000204QUANTITY                      1                             1                                                                                                                                                                                                                                                              
Z2BTLC01000                   500000000000254143500000900000204BARCODETEXT                   14026704594938                14026704594938                                                                                                                                                                                                                                                 
Z2BTLC01000                   500000000000254143500001000000204LTNUMBER                      IPN042671                     IPN042671                                                                                                                                                                                                                                                      
Z2BTLC01000                   500000000000254143500001100000204GRAPHIC01                     Y                             T:\MEDICAL\NA\RTP\TEAM CENTER\TEMPLATES\GRAPHICS\Non-sterile.tif                                                                                                                                                                                               
Z2BTLC01000                   500000000000254143500001200000204ECREP                         N                             T:\MEDICAL\NA\RTP\TEAM CENTER\TEMPLATES\GRAPHICS\blank-01.tif                                                                                                                                                                                                  
Z2BTLC01000                   500000000000254143500001300000204LOTGRAPHIC                    Y                             T:\MEDICAL\NA\RTP\TEAM CENTER\TEMPLATES\GRAPHICS\Lot.tif                                                                                                                                                                                                       
Z2BTLC01000                   500000000000254143500001400000204MANUFACTURER                  Y                             T:\MEDICAL\NA\RTP\TEAM CENTER\TEMPLATES\GRAPHICS\Manufacturer.tif                                                                                                                                                                                              
Z2BTLC01000                   500000000000254143500001500000204MFGDATE                       Y                             T:\MEDICAL\NA\RTP\TEAM CENTER\TEMPLATES\GRAPHICS\DateofManufacture.tif                                                                                                                                                                                         
Z2BTLC01000                   500000000000254143500001600000204REFNUMBER                     Y                             T:\MEDICAL\NA\RTP\TEAM CENTER\TEMPLATES\GRAPHICS\REF.tif                                                                                                                                                                                                       
Z2BTLC01000                   500000000000254143500001700000204REF                           N                             T:\MEDICAL\NA\RTP\TEAM CENTER\TEMPLATES\GRAPHICS\blank-01.tif                                                                                                                                                                                                  
Z2BTLC01000                   500000000000254143500001800000204RXONLY                        Y                             T:\MEDICAL\NA\RTP\TEAM CENTER\TEMPLATES\GRAPHICS\RX Only.tif                                                                                                                                                                                                   
Z2BTLC01000                   500000000000254143500001900000204TFXLOGO                       Y                             T:\MEDICAL\NA\RTP\TEAM CENTER\TEMPLATES\GRAPHICS\TeleflexMedical.tif                                                                                                                                                                                           
Z2BTLC01000                   500000000000254143500002000000204ADDRESS                       TFX4LineAdd3i                 T:\MEDICAL\NA\RTP\TEAM CENTER\TEMPLATES\GRAPHICS\TFX4LineAdd3i.tif                                                                                                                                                                                             
Z2BTLC01000                   500000000000254143500002100000204CE0120                        NO                            T:\MEDICAL\NA\RTP\TEAM CENTER\TEMPLATES\GRAPHICS\blank-01.tif                                                                                                                                                                                                  
Z2BTLC01000                   500000000000254143500002200000204COOSTATE                      COOProdUSPackMex              T:\MEDICAL\NA\RTP\TEAM CENTER\TEMPLATES\GRAPHICS\COOProdUSPackMex.tif                                                                                                                                                                                          
Z2BTLC01000                   500000000000254143500002300000204ECREPADDRESS                  NO                            T:\MEDICAL\NA\RTP\TEAM CENTER\TEMPLATES\GRAPHICS\blank-01.tif                                                                                                                                                                                                  
Z2BTLC01000                   500000000000254143500002400000204FLGRAPHIC                     NO                            T:\MEDICAL\NA\RTP\TEAM CENTER\TEMPLATES\GRAPHICS\blank-01.tif                                                                                                                                                                                                  
Z2BTLC01000                   500000000000254143500002500000204LABELGRAPH1                   LBL008156_1                   T:\MEDICAL\NA\RTP\TEAM CENTER\TEMPLATES\GRAPHICS\LBL008156_1.tif                                                                                                                                                                                               
Z2BTLC01000                   500000000000254143500002600000204LABELGRAPH2                   LBL008156_2                   T:\MEDICAL\NA\RTP\TEAM CENTER\TEMPLATES\GRAPHICS\LBL008156_2.tif                                                                                                                                                                                               
Z2BTLC01000                   500000000000254143500002700000204LATEXSTATEMENT                NotMadeLatex                  T:\MEDICAL\NA\RTP\TEAM CENTER\TEMPLATES\GRAPHICS\NotMadeLatex.tif                                                                                                                                                                                              
Z2BTLC01000                   500000000000254143500002800000204LOGO1                         HUDSONRCI                     T:\MEDICAL\NA\RTP\TEAM CENTER\TEMPLATES\GRAPHICS\HUDSONRCI.tif                                                                                                                                                                                                 
Z2BTLC01000                   500000000000254143500002900000204LOGO2                         SinglePatienUse2              T:\MEDICAL\NA\RTP\TEAM CENTER\TEMPLATES\GRAPHICS\SinglePatienUse2.tif                                                                                                                                                                                          
Z2BTLC01000                   500000000000254143500003000000204LOGO3                         HudsonTradeMark5              T:\MEDICAL\NA\RTP\TEAM CENTER\TEMPLATES\GRAPHICS\HudsonTradeMark5.tif                                                                                                                                                                                          
Z2BTLC01000                   500000000000254143500003100000204CAUTIONSTATEMENT              p65                           T:\MEDICAL\NA\RTP\TEAM CENTER\TEMPLATES\GRAPHICS\p65.tif                                                                                                                                                                                                       
Z2BTLH01000                   500000000000254143500003200000103LBL008157         
Z2BTTX01000                   500000000000254143500003300003204GRUNE  ENMATERIAL  LBL008157                                                             Disposable Thermometer                                                *
Z2BTLC01000                   500000000000254143500003400003204TEMPLATENUMBER                T001903                       T001903                                                                                                                                                                                                                                                        
Z2BTLC01000                   500000000000254143500003500003204REVISION                      R00                           R00                                                                                                                                                                                                                                                            
Z2BTLC01000                   500000000000254143500003600003204SIZE                          6.125 x 3.625                 6.125 x 3.625                                                                                                                                                                                                                                                  
Z2BTLC01000                   500000000000254143500003700003204LEVEL                         SALES UNIT                    SALES UNIT                                                                                                                                                                                                                                                     
Z2BTLC01000                   500000000000254143500003800003204QUANTITY                      50                            50                                                                                                                                                                                                                                                             
Z2BTLC01000                   500000000000254143500003900003204BARCODETEXT                   34026704594932                34026704594932                                                                                                                                                                                                                                                 
Z2BTLC01000                   500000000000254143500004000003204LTNUMBER                      IPN042671                     IPN042671                                                                                                                                                                                                                                                      
Z2BTLC01000                   500000000000254143500004100003204GRAPHIC01                     Y                             T:\MEDICAL\NA\RTP\TEAM CENTER\TEMPLATES\GRAPHICS\SINGLEPATIENUSE.tif                                                                                                                                                                                           
Z2BTLC01000                   500000000000254143500004200003204GRAPHIC02                     Y                             T:\MEDICAL\NA\RTP\TEAM CENTER\TEMPLATES\GRAPHICS\Caution.tif                                                                                                                                                                                                   
Z2BTLC01000                   500000000000254143500004300003204GRAPHIC03                     Y                             T:\MEDICAL\NA\RTP\TEAM CENTER\TEMPLATES\GRAPHICS\ConsultIFU.tif                                                                                                                                                                                                
Z2BTLC01000                   500000000000254143500004400003204GRAPHIC04                     Y                             T:\MEDICAL\NA\RTP\TEAM CENTER\TEMPLATES\GRAPHICS\Non-sterile.tif                                                                                                                                                                                               
Z2BTLC01000                   500000000000254143500004500003204ECREP                         N                             T:\MEDICAL\NA\RTP\TEAM CENTER\TEMPLATES\GRAPHICS\blank-01.tif                                                                                                                                                                                                  
Z2BTLC01000                   500000000000254143500004600003204LOTGRAPHIC                    Y                             T:\MEDICAL\NA\RTP\TEAM CENTER\TEMPLATES\GRAPHICS\Lot.tif                                                                                                                                                                                                       
Z2BTLC01000                   500000000000254143500004700003204MANUFACTURER                  Y                             T:\MEDICAL\NA\RTP\TEAM CENTER\TEMPLATES\GRAPHICS\Manufacturer.tif                                                                                                                                                                                              
Z2BTLC01000                   500000000000254143500004800003204MFGDATE                       Y                             T:\MEDICAL\NA\RTP\TEAM CENTER\TEMPLATES\GRAPHICS\DateofManufacture.tif                                                                                                                                                                                         
Z2BTLC01000                   500000000000254143500004900003204REFNUMBER                     N                             T:\MEDICAL\NA\RTP\TEAM CENTER\TEMPLATES\GRAPHICS\blank-01.tif                                                                                                                                                                                                  
Z2BTLC01000                   500000000000254143500005000003204REF                           N                             T:\MEDICAL\NA\RTP\TEAM CENTER\TEMPLATES\GRAPHICS\blank-01.tif                                                                                                                                                                                                  
Z2BTLC01000                   500000000000254143500005100003204RXONLY                        Y                             T:\MEDICAL\NA\RTP\TEAM CENTER\TEMPLATES\GRAPHICS\RX Only.tif                                                                                                                                                                                                   
Z2BTLC01000                   500000000000254143500005200003204TFXLOGO                       Y                             T:\MEDICAL\NA\RTP\TEAM CENTER\TEMPLATES\GRAPHICS\TeleflexMedical.tif                                                                                                                                                                                           
Z2BTLC01000                   500000000000254143500005300003204ADDRESS                       TFX4LineAdd3                  T:\MEDICAL\NA\RTP\TEAM CENTER\TEMPLATES\GRAPHICS\TFX4LineAdd3.tif                                                                                                                                                                                              
Z2BTLC01000                   500000000000254143500005400003204CE0120                        NO                            T:\MEDICAL\NA\RTP\TEAM CENTER\TEMPLATES\GRAPHICS\blank-01.tif                                                                                                                                                                                                  
Z2BTLC01000                   500000000000254143500005500003204COOSTATE                      COOProdUSPackMex              T:\MEDICAL\NA\RTP\TEAM CENTER\TEMPLATES\GRAPHICS\COOProdUSPackMex.tif                                                                                                                                                                                          
Z2BTLC01000                   500000000000254143500005600003204ECREPADDRESS                  NO                            T:\MEDICAL\NA\RTP\TEAM CENTER\TEMPLATES\GRAPHICS\blank-01.tif                                                                                                                                                                                                  
Z2BTLC01000                   500000000000254143500005700003204FLGRAPHIC                     NO                            T:\MEDICAL\NA\RTP\TEAM CENTER\TEMPLATES\GRAPHICS\blank-01.tif                                                                                                                                                                                                  
Z2BTLC01000                   500000000000254143500005800003204LABELGRAPH1                   NO                            T:\MEDICAL\NA\RTP\TEAM CENTER\TEMPLATES\GRAPHICS\blank-01.tif                                                                                                                                                                                                  
Z2BTLC01000                   500000000000254143500005900003204LABELGRAPH2                   NO                            T:\MEDICAL\NA\RTP\TEAM CENTER\TEMPLATES\GRAPHICS\blank-01.tif                                                                                                                                                                                                  
Z2BTLC01000                   500000000000254143500006000003204LATEXSTATEMENT                NotMadeLatex                  T:\MEDICAL\NA\RTP\TEAM CENTER\TEMPLATES\GRAPHICS\NotMadeLatex.tif                                                                                                                                                                                              
Z2BTLC01000                   500000000000254143500006100003204LOGO1                         HUDSONRCI                     T:\MEDICAL\NA\RTP\TEAM CENTER\TEMPLATES\GRAPHICS\HUDSONRCI.tif                                                                                                                                                                                                 
Z2BTLC01000                   500000000000254143500006200003204LOGO2                         NO                            T:\MEDICAL\NA\RTP\TEAM CENTER\TEMPLATES\GRAPHICS\blank-01.tif                                                                                                                                                                                                  
Z2BTLC01000                   500000000000254143500006300003204LOGO3                         NO                            T:\MEDICAL\NA\RTP\TEAM CENTER\TEMPLATES\GRAPHICS\blank-01.tif                                                                                                                                                                                                  
Z2BTLC01000                   500000000000254143500006400003204CAUTIONSTATEMENT              N                             T:\MEDICAL\NA\RTP\TEAM CENTER\TEMPLATES\GRAPHICS\blank-01.tif                                                                                                                                                                                                  
Z2BTMH01000                   5000000000002541435000065000064021637              
Z2BTLH01000                   500000000000254143500006600006503LBL008158         
Z2BTTX01000                   500000000000254143500006700006604GRUNE  ENMATERIAL  LBL008158                                                             N                                                                     *
Z2BTLC01000                   500000000000254143500006800006604TEMPLATENUMBER                T001899                       T001899                                                                                                                                                                                                                                                        
Z2BTLC01000                   500000000000254143500006900006604REVISION                      R00                           R00                                                                                                                                                                                                                                                            
Z2BTLC01000                   500000000000254143500007000006604SIZE                          3.25 x 4 (front, back)        3.25 x 4 (front, back)                                                                                                                                                                                                                                         
Z2BTLC01000                   500000000000254143500007100006604LEVEL                         EACH                          EACH                                                                                                                                                                                                                                                           
Z2BTLC01000                   500000000000254143500007200006604QUANTITY                      1                             1                                                                                                                                                                                                                                                              
Z2BTLC01000                   500000000000254143500007300006604BARCODETEXT                   14026704594945                14026704594945                                                                                                                                                                                                                                                 
Z2BTLC01000                   500000000000254143500007400006604LTNUMBER                      IPN042672                     IPN042672                                                                                                                                                                                                                                                      
Z2BTLC01000                   500000000000254143500007500006604GRAPHIC01                     Y                             T:\MEDICAL\NA\RTP\TEAM CENTER\TEMPLATES\GRAPHICS\Non-sterile.tif                                                                                                                                                                                               
Z2BTLC01000                   500000000000254143500007600006604ECREP                         N                             T:\MEDICAL\NA\RTP\TEAM CENTER\TEMPLATES\GRAPHICS\blank-01.tif                                                                                                                                                                                                  
Z2BTLC01000                   500000000000254143500007700006604LOTGRAPHIC                    Y                             T:\MEDICAL\NA\RTP\TEAM CENTER\TEMPLATES\GRAPHICS\Lot.tif                                                                                                                                                                                                       
Z2BTLC01000                   500000000000254143500007800006604MANUFACTURER                  Y                             T:\MEDICAL\NA\RTP\TEAM CENTER\TEMPLATES\GRAPHICS\Manufacturer.tif                                                                                                                                                                                              
Z2BTLC01000                   500000000000254143500007900006604MFGDATE                       Y                             T:\MEDICAL\NA\RTP\TEAM CENTER\TEMPLATES\GRAPHICS\DateofManufacture.tif                                                                                                                                                                                         
Z2BTLC01000                   500000000000254143500008000006604REFNUMBER                     Y                             T:\MEDICAL\NA\RTP\TEAM CENTER\TEMPLATES\GRAPHICS\REF.tif                                                                                                                                                                                                       
Z2BTLC01000                   500000000000254143500008100006604REF                           N                             T:\MEDICAL\NA\RTP\TEAM CENTER\TEMPLATES\GRAPHICS\blank-01.tif                                                                                                                                                                                                  
Z2BTLC01000                   500000000000254143500008200006604RXONLY                        Y                             T:\MEDICAL\NA\RTP\TEAM CENTER\TEMPLATES\GRAPHICS\RX Only.tif                                                                                                                                                                                                   
Z2BTLC01000                   500000000000254143500008300006604TFXLOGO                       Y                             T:\MEDICAL\NA\RTP\TEAM CENTER\TEMPLATES\GRAPHICS\TeleflexMedical.tif                                                                                                                                                                                           
Z2BTLC01000                   500000000000254143500008400006604ADDRESS                       TFX4LineAdd3i                 T:\MEDICAL\NA\RTP\TEAM CENTER\TEMPLATES\GRAPHICS\TFX4LineAdd3i.tif                                                                                                                                                                                             
Z2BTLC01000                   500000000000254143500008500006604CE0120                        NO                            T:\MEDICAL\NA\RTP\TEAM CENTER\TEMPLATES\GRAPHICS\blank-01.tif                                                                                                                                                                                                  
Z2BTLC01000                   500000000000254143500008600006604COOSTATE                      COOProdUSPackMex              T:\MEDICAL\NA\RTP\TEAM CENTER\TEMPLATES\GRAPHICS\COOProdUSPackMex.tif                                                                                                                                                                                          
Z2BTLC01000                   500000000000254143500008700006604ECREPADDRESS                  NO                            T:\MEDICAL\NA\RTP\TEAM CENTER\TEMPLATES\GRAPHICS\blank-01.tif                                                                                                                                                                                                  
Z2BTLC01000                   500000000000254143500008800006604FLGRAPHIC                     NO                            T:\MEDICAL\NA\RTP\TEAM CENTER\TEMPLATES\GRAPHICS\blank-01.tif                                                                                                                                                                                                  
Z2BTLC01000                   500000000000254143500008900006604LABELGRAPH1                   LBL008158_1                   T:\MEDICAL\NA\RTP\TEAM CENTER\TEMPLATES\GRAPHICS\LBL008158_1.tif                                                                                                                                                                                               
Z2BTLC01000                   500000000000254143500009000006604LABELGRAPH2                   LBL008158_2                   T:\MEDICAL\NA\RTP\TEAM CENTER\TEMPLATES\GRAPHICS\LBL008158_2.tif                                                                                                                                                                                               
Z2BTLC01000                   500000000000254143500009100006604LATEXSTATEMENT                NotMadeLatex                  T:\MEDICAL\NA\RTP\TEAM CENTER\TEMPLATES\GRAPHICS\NotMadeLatex.tif                                                                                                                                                                                              
Z2BTLC01000                   500000000000254143500009200006604LOGO1                         HUDSONRCI                     T:\MEDICAL\NA\RTP\TEAM CENTER\TEMPLATES\GRAPHICS\HUDSONRCI.tif                                                                                                                                                                                                 
Z2BTLC01000                   500000000000254143500009300006604LOGO2                         SinglePatienUse2              T:\MEDICAL\NA\RTP\TEAM CENTER\TEMPLATES\GRAPHICS\SinglePatienUse2.tif                                                                                                                                                                                          
Z2BTLC01000                   500000000000254143500009400006604LOGO3                         HudsonTradeMark5              T:\MEDICAL\NA\RTP\TEAM CENTER\TEMPLATES\GRAPHICS\HudsonTradeMark5.tif                                                                                                                                                                                          
Z2BTLC01000                   500000000000254143500009500006604CAUTIONSTATEMENT              p65                           T:\MEDICAL\NA\RTP\TEAM CENTER\TEMPLATES\GRAPHICS\p65.tif                                                                                                                                                                                                       
Z2BTLH01000                   500000000000254143500009600006503LBL008159         
Z2BTTX01000                   500000000000254143500009700009604GRUNE  ENMATERIAL  LBL008159                                                             Disposable Thermometer##                                              *
Z2BTTX01000                   500000000000254143500009800009604GRUNE  ENMATERIAL  LBL008159                                                             with Tee Adaptor                                                      /
Z2BTLC01000                   500000000000254143500009900009604TEMPLATENUMBER                T001903                       T001903                                                                                                                                                                                                                                                        
Z2BTLC01000                   500000000000254143500010000009604REVISION                      R00                           R00                                                                                                                                                                                                                                                            
Z2BTLC01000                   500000000000254143500010100009604SIZE                          6.125 x 3.625                 6.125 x 3.625                                                                                                                                                                                                                                                  
Z2BTLC01000                   500000000000254143500010200009604LEVEL                         SALES UNIT                    SALES UNIT                                                                                                                                                                                                                                                     
Z2BTLC01000                   500000000000254143500010300009604QUANTITY                      50                            50                                                                                                                                                                                                                                                             
Z2BTLC01000                   500000000000254143500010400009604BARCODETEXT                   34026704594949                34026704594949                                                                                                                                                                                                                                                 
Z2BTLC01000                   500000000000254143500010500009604LTNUMBER                      IPN042672                     IPN042672                                                                                                                                                                                                                                                      
Z2BTLC01000                   500000000000254143500010600009604GRAPHIC01                     Y                             T:\MEDICAL\NA\RTP\TEAM CENTER\TEMPLATES\GRAPHICS\SINGLEPATIENUSE.tif                                                                                                                                                                                           
Z2BTLC01000                   500000000000254143500010700009604GRAPHIC02                     Y                             T:\MEDICAL\NA\RTP\TEAM CENTER\TEMPLATES\GRAPHICS\Caution.tif                                                                                                                                                                                                   
Z2BTLC01000                   500000000000254143500010800009604GRAPHIC03                     Y                             T:\MEDICAL\NA\RTP\TEAM CENTER\TEMPLATES\GRAPHICS\ConsultIFU.tif                                                                                                                                                                                                
Z2BTLC01000                   500000000000254143500010900009604GRAPHIC04                     Y                             T:\MEDICAL\NA\RTP\TEAM CENTER\TEMPLATES\GRAPHICS\Non-sterile.tif                                                                                                                                                                                               
Z2BTLC01000                   500000000000254143500011000009604ECREP                         N                             T:\MEDICAL\NA\RTP\TEAM CENTER\TEMPLATES\GRAPHICS\blank-01.tif                                                                                                                                                                                                  
Z2BTLC01000                   500000000000254143500011100009604LOTGRAPHIC                    Y                             T:\MEDICAL\NA\RTP\TEAM CENTER\TEMPLATES\GRAPHICS\Lot.tif                                                                                                                                                                                                       
Z2BTLC01000                   500000000000254143500011200009604MANUFACTURER                  Y                             T:\MEDICAL\NA\RTP\TEAM CENTER\TEMPLATES\GRAPHICS\Manufacturer.tif                                                                                                                                                                                              
Z2BTLC01000                   500000000000254143500011300009604MFGDATE                       Y                             T:\MEDICAL\NA\RTP\TEAM CENTER\TEMPLATES\GRAPHICS\DateofManufacture.tif                                                                                                                                                                                         
Z2BTLC01000                   500000000000254143500011400009604REFNUMBER                     N                             T:\MEDICAL\NA\RTP\TEAM CENTER\TEMPLATES\GRAPHICS\blank-01.tif                                                                                                                                                                                                  
Z2BTLC01000                   500000000000254143500011500009604REF                           N                             T:\MEDICAL\NA\RTP\TEAM CENTER\TEMPLATES\GRAPHICS\blank-01.tif                                                                                                                                                                                                  
Z2BTLC01000                   500000000000254143500011600009604RXONLY                        Y                             T:\MEDICAL\NA\RTP\TEAM CENTER\TEMPLATES\GRAPHICS\RX Only.tif                                                                                                                                                                                                   
Z2BTLC01000                   500000000000254143500011700009604TFXLOGO                       Y                             T:\MEDICAL\NA\RTP\TEAM CENTER\TEMPLATES\GRAPHICS\TeleflexMedical.tif                                                                                                                                                                                           
Z2BTLC01000                   500000000000254143500011800009604ADDRESS                       TFX4LineAdd3                  T:\MEDICAL\NA\RTP\TEAM CENTER\TEMPLATES\GRAPHICS\TFX4LineAdd3.tif                                                                                                                                                                                              
Z2BTLC01000                   500000000000254143500011900009604CE0120                        NO                            T:\MEDICAL\NA\RTP\TEAM CENTER\TEMPLATES\GRAPHICS\blank-01.tif                                                                                                                                                                                                  
Z2BTLC01000                   500000000000254143500012000009604COOSTATE                      COOProdUSPackMex              T:\MEDICAL\NA\RTP\TEAM CENTER\TEMPLATES\GRAPHICS\COOProdUSPackMex.tif                                                                                                                                                                                          
Z2BTLC01000                   500000000000254143500012100009604ECREPADDRESS                  NO                            T:\MEDICAL\NA\RTP\TEAM CENTER\TEMPLATES\GRAPHICS\blank-01.tif                                                                                                                                                                                                  
Z2BTLC01000                   500000000000254143500012200009604FLGRAPHIC                     NO                            T:\MEDICAL\NA\RTP\TEAM CENTER\TEMPLATES\GRAPHICS\blank-01.tif                                                                                                                                                                                                  
Z2BTLC01000                   500000000000254143500012300009604LABELGRAPH1                   NO                            T:\MEDICAL\NA\RTP\TEAM CENTER\TEMPLATES\GRAPHICS\blank-01.tif                                                                                                                                                                                                  
Z2BTLC01000                   500000000000254143500012400009604LABELGRAPH2                   NO                            T:\MEDICAL\NA\RTP\TEAM CENTER\TEMPLATES\GRAPHICS\blank-01.tif                                                                                                                                                                                                  
Z2BTLC01000                   500000000000254143500012500009604LATEXSTATEMENT                NO                            T:\MEDICAL\NA\RTP\TEAM CENTER\TEMPLATES\GRAPHICS\blank-01.tif                                                                                                                                                                                                  
Z2BTLC01000                   500000000000254143500012600009604LOGO1                         HUDSONRCI                     T:\MEDICAL\NA\RTP\TEAM CENTER\TEMPLATES\GRAPHICS\HUDSONRCI.tif                                                                                                                                                                                                 
Z2BTLC01000                   500000000000254143500012700009604LOGO2                         NO                            T:\MEDICAL\NA\RTP\TEAM CENTER\TEMPLATES\GRAPHICS\blank-01.tif                                                                                                                                                                                                  
Z2BTLC01000                   500000000000254143500012800009604LOGO3                         NO                            T:\MEDICAL\NA\RTP\TEAM CENTER\TEMPLATES\GRAPHICS\blank-01.tif                                                                                                                                                                                                  
Z2BTLC01000                   500000000000254143500012900009604CAUTIONSTATEMENT              N                             T:\MEDICAL\NA\RTP\TEAM CENTER\TEMPLATES\GRAPHICS\blank-01.tif                                                                                                                                                                                                  
Z2BTMH01000                   5000000000002541435000130000129021640              
Z2BTLH01000                   500000000000254143500013100013003LBL008164         
Z2BTTX01000                   500000000000254143500013200013104GRUNE  ENMATERIAL  LBL008164                                                             N                                                                     *
Z2BTLC01000                   500000000000254143500013300013104TEMPLATENUMBER                LBL008164                     LBL008164                                                                                                                                                                                                                                                      
Z2BTLC01000                   500000000000254143500013400013104REVISION                      R00                           R00                                                                                                                                                                                                                                                            
Z2BTLC01000                   500000000000254143500013500013104SIZE                          3.25 x 4                      3.25 x 4                                                                                                                                                                                                                                                       
Z2BTLC01000                   500000000000254143500013600013104LEVEL                         EACH                          EACH                                                                                                                                                                                                                                                           
Z2BTLC01000                   500000000000254143500013700013104QUANTITY                      1                             1                                                                                                                                                                                                                                                              
Z2BTLC01000                   500000000000254143500013800013104BARCODETEXT                   14026704594976                14026704594976                                                                                                                                                                                                                                                 
Z2BTLC01000                   500000000000254143500013900013104LTNUMBER                      IPN042675                     IPN042675                                                                                                                                                                                                                                                      
Z2BTLC01000                   500000000000254143500014000013104GRAPHIC01                     Y                             T:\MEDICAL\NA\RTP\TEAM CENTER\TEMPLATES\GRAPHICS\Non-sterile.tif                                                                                                                                                                                               
Z2BTLC01000                   500000000000254143500014100013104ECREP                         N                             T:\MEDICAL\NA\RTP\TEAM CENTER\TEMPLATES\GRAPHICS\blank-01.tif                                                                                                                                                                                                  
Z2BTLC01000                   500000000000254143500014200013104LOTGRAPHIC                    Y                             T:\MEDICAL\NA\RTP\TEAM CENTER\TEMPLATES\GRAPHICS\Lot.tif                                                                                                                                                                                                       
Z2BTLC01000                   500000000000254143500014300013104MANUFACTURER                  Y                             T:\MEDICAL\NA\RTP\TEAM CENTER\TEMPLATES\GRAPHICS\Manufacturer.tif                                                                                                                                                                                              
Z2BTLC01000                   500000000000254143500014400013104MFGDATE                       Y                             T:\MEDICAL\NA\RTP\TEAM CENTER\TEMPLATES\GRAPHICS\DateofManufacture.tif                                                                                                                                                                                         
Z2BTLC01000                   500000000000254143500014500013104REFNUMBER                     Y                             T:\MEDICAL\NA\RTP\TEAM CENTER\TEMPLATES\GRAPHICS\REF.tif                                                                                                                                                                                                       
Z2BTLC01000                   500000000000254143500014600013104REF                           N                             T:\MEDICAL\NA\RTP\TEAM CENTER\TEMPLATES\GRAPHICS\blank-01.tif                                                                                                                                                                                                  
Z2BTLC01000                   500000000000254143500014700013104RXONLY                        Y                             T:\MEDICAL\NA\RTP\TEAM CENTER\TEMPLATES\GRAPHICS\RX Only.tif                                                                                                                                                                                                   
Z2BTLC01000                   500000000000254143500014800013104TFXLOGO                       Y                             T:\MEDICAL\NA\RTP\TEAM CENTER\TEMPLATES\GRAPHICS\TeleflexMedical.tif                                                                                                                                                                                           
Z2BTLC01000                   500000000000254143500014900013104ADDRESS                       TFX4LineAdd3i                 T:\MEDICAL\NA\RTP\TEAM CENTER\TEMPLATES\GRAPHICS\TFX4LineAdd3i.tif                                                                                                                                                                                             
Z2BTLC01000                   500000000000254143500015000013104CE0120                        NO                            T:\MEDICAL\NA\RTP\TEAM CENTER\TEMPLATES\GRAPHICS\blank-01.tif                                                                                                                                                                                                  
Z2BTLC01000                   500000000000254143500015100013104COOSTATE                      COOAssmMexUSForeign           T:\MEDICAL\NA\RTP\TEAM CENTER\TEMPLATES\GRAPHICS\COOAssmMexUSForeign.tif                                                                                                                                                                                       
Z2BTLC01000                   500000000000254143500015200013104ECREPADDRESS                  NO                            T:\MEDICAL\NA\RTP\TEAM CENTER\TEMPLATES\GRAPHICS\blank-01.tif                                                                                                                                                                                                  
Z2BTLC01000                   500000000000254143500015300013104FLGRAPHIC                     NO                            T:\MEDICAL\NA\RTP\TEAM CENTER\TEMPLATES\GRAPHICS\blank-01.tif                                                                                                                                                                                                  
Z2BTLC01000                   500000000000254143500015400013104LABELGRAPH1                   LBL008164                     T:\MEDICAL\NA\RTP\TEAM CENTER\TEMPLATES\GRAPHICS\LBL008164.tif                                                                                                                                                                                                 
Z2BTLC01000                   500000000000254143500015500013104LABELGRAPH2                   HudsonCR_07-11-16             T:\MEDICAL\NA\RTP\TEAM CENTER\TEMPLATES\GRAPHICS\HudsonCR_07-11-16.tif                                                                                                                                                                                         
Z2BTLC01000                   500000000000254143500015600013104LATEXSTATEMENT                NotMadeLatex                  T:\MEDICAL\NA\RTP\TEAM CENTER\TEMPLATES\GRAPHICS\NotMadeLatex.tif                                                                                                                                                                                              
Z2BTLC01000                   500000000000254143500015700013104LOGO1                         HUDSONRCI                     T:\MEDICAL\NA\RTP\TEAM CENTER\TEMPLATES\GRAPHICS\HUDSONRCI.tif                                                                                                                                                                                                 
Z2BTLC01000                   500000000000254143500015800013104LOGO2                         SinglePatienUse2              T:\MEDICAL\NA\RTP\TEAM CENTER\TEMPLATES\GRAPHICS\SinglePatienUse2.tif                                                                                                                                                                                          
Z2BTLC01000                   500000000000254143500015900013104LOGO3                         HudsonTradeMark3              T:\MEDICAL\NA\RTP\TEAM CENTER\TEMPLATES\GRAPHICS\HudsonTradeMark3.tif                                                                                                                                                                                          
Z2BTLC01000                   500000000000254143500016000013104CAUTIONSTATEMENT              p65                           T:\MEDICAL\NA\RTP\TEAM CENTER\TEMPLATES\GRAPHICS\p65.tif                                                                                                                                                                                                       
Z2BTLH01000                   500000000000254143500016100013003LBL008165         
Z2BTTX01000                   500000000000254143500016200016104GRUNE  ENMATERIAL  LBL008165                                                             Tubing Adaptor##                                                      *
Z2BTTX01000                   500000000000254143500016300016104GRUNE  ENMATERIAL  LBL008165                                                             22mm I.D. x 22mm O.D.                                                 /
Z2BTLC01000                   500000000000254143500016400016104TEMPLATENUMBER                T001903                       T001903                                                                                                                                                                                                                                                        
Z2BTLC01000                   500000000000254143500016500016104REVISION                      R00                           R00                                                                                                                                                                                                                                                            
Z2BTLC01000                   500000000000254143500016600016104SIZE                          6.125 x 3.625                 6.125 x 3.625                                                                                                                                                                                                                                                  
Z2BTLC01000                   500000000000254143500016700016104LEVEL                         SALES UNIT                    SALES UNIT                                                                                                                                                                                                                                                     
Z2BTLC01000                   500000000000254143500016800016104QUANTITY                      50                            50                                                                                                                                                                                                                                                             
Z2BTLC01000                   500000000000254143500016900016104BARCODETEXT                   34026704594970                34026704594970                                                                                                                                                                                                                                                 
Z2BTLC01000                   500000000000254143500017000016104LTNUMBER                      IPN042675                     IPN042675                                                                                                                                                                                                                                                      
Z2BTLC01000                   500000000000254143500017100016104GRAPHIC01                     Y                             T:\MEDICAL\NA\RTP\TEAM CENTER\TEMPLATES\GRAPHICS\SINGLEPATIENUSE.tif                                                                                                                                                                                           
Z2BTLC01000                   500000000000254143500017200016104GRAPHIC02                     Y                             T:\MEDICAL\NA\RTP\TEAM CENTER\TEMPLATES\GRAPHICS\Non-sterile.tif                                                                                                                                                                                               
Z2BTLC01000                   500000000000254143500017300016104ECREP                         N                             T:\MEDICAL\NA\RTP\TEAM CENTER\TEMPLATES\GRAPHICS\blank-01.tif                                                                                                                                                                                                  
Z2BTLC01000                   500000000000254143500017400016104LOTGRAPHIC                    Y                             T:\MEDICAL\NA\RTP\TEAM CENTER\TEMPLATES\GRAPHICS\Lot.tif                                                                                                                                                                                                       
Z2BTLC01000                   500000000000254143500017500016104MANUFACTURER                  Y                             T:\MEDICAL\NA\RTP\TEAM CENTER\TEMPLATES\GRAPHICS\Manufacturer.tif                                                                                                                                                                                              
Z2BTLC01000                   500000000000254143500017600016104MFGDATE                       Y                             T:\MEDICAL\NA\RTP\TEAM CENTER\TEMPLATES\GRAPHICS\DateofManufacture.tif                                                                                                                                                                                         
Z2BTLC01000                   500000000000254143500017700016104REFNUMBER                     N                             T:\MEDICAL\NA\RTP\TEAM CENTER\TEMPLATES\GRAPHICS\blank-01.tif                                                                                                                                                                                                  
Z2BTLC01000                   500000000000254143500017800016104REF                           N                             T:\MEDICAL\NA\RTP\TEAM CENTER\TEMPLATES\GRAPHICS\blank-01.tif                                                                                                                                                                                                  
Z2BTLC01000                   500000000000254143500017900016104RXONLY                        Y                             T:\MEDICAL\NA\RTP\TEAM CENTER\TEMPLATES\GRAPHICS\RX Only.tif                                                                                                                                                                                                   
Z2BTLC01000                   500000000000254143500018000016104TFXLOGO                       Y                             T:\MEDICAL\NA\RTP\TEAM CENTER\TEMPLATES\GRAPHICS\TeleflexMedical.tif                                                                                                                                                                                           
Z2BTLC01000                   500000000000254143500018100016104ADDRESS                       TFX4LineAdd3                  T:\MEDICAL\NA\RTP\TEAM CENTER\TEMPLATES\GRAPHICS\TFX4LineAdd3.tif                                                                                                                                                                                              
Z2BTLC01000                   500000000000254143500018200016104CE0120                        NO                            T:\MEDICAL\NA\RTP\TEAM CENTER\TEMPLATES\GRAPHICS\blank-01.tif                                                                                                                                                                                                  
Z2BTLC01000                   500000000000254143500018300016104COOSTATE                      COOAssmMexUSForeign           T:\MEDICAL\NA\RTP\TEAM CENTER\TEMPLATES\GRAPHICS\COOAssmMexUSForeign.tif                                                                                                                                                                                       
Z2BTLC01000                   500000000000254143500018400016104ECREPADDRESS                  NO                            T:\MEDICAL\NA\RTP\TEAM CENTER\TEMPLATES\GRAPHICS\blank-01.tif                                                                                                                                                                                                  
Z2BTLC01000                   500000000000254143500018500016104FLGRAPHIC                     NO                            T:\MEDICAL\NA\RTP\TEAM CENTER\TEMPLATES\GRAPHICS\blank-01.tif                                                                                                                                                                                                  
Z2BTLC01000                   500000000000254143500018600016104LABELGRAPH1                   NO                            T:\MEDICAL\NA\RTP\TEAM CENTER\TEMPLATES\GRAPHICS\blank-01.tif                                                                                                                                                                                                  
Z2BTLC01000                   500000000000254143500018700016104LABELGRAPH2                   NO                            T:\MEDICAL\NA\RTP\TEAM CENTER\TEMPLATES\GRAPHICS\blank-01.tif                                                                                                                                                                                                  
Z2BTLC01000                   500000000000254143500018800016104LATEXSTATEMENT                NotMadeLatex                  T:\MEDICAL\NA\RTP\TEAM CENTER\TEMPLATES\GRAPHICS\NotMadeLatex.tif                                                                                                                                                                                              
Z2BTLC01000                   500000000000254143500018900016104LOGO1                         HUDSONRCI                     T:\MEDICAL\NA\RTP\TEAM CENTER\TEMPLATES\GRAPHICS\HUDSONRCI.tif                                                                                                                                                                                                 
Z2BTLC01000                   500000000000254143500019000016104LOGO2                         NO                            T:\MEDICAL\NA\RTP\TEAM CENTER\TEMPLATES\GRAPHICS\blank-01.tif                                                                                                                                                                                                  
Z2BTLC01000                   500000000000254143500019100016104LOGO3                         NO                            T:\MEDICAL\NA\RTP\TEAM CENTER\TEMPLATES\GRAPHICS\blank-01.tif                                                                                                                                                                                                  
Z2BTLC01000                   500000000000254143500019200016104CAUTIONSTATEMENT              N                             T:\MEDICAL\NA\RTP\TEAM CENTER\TEMPLATES\GRAPHICS\blank-01.tif                                                                                                                                                                                                  
Z2BTMH01000                   5000000000002541435000193000192021641              
Z2BTLH01000                   500000000000254143500019400019303LBL008166         
Z2BTTX01000                   500000000000254143500019500019404GRUNE  ENMATERIAL  LBL008166                                                             N                                                                     *
Z2BTLC01000                   500000000000254143500019600019404TEMPLATENUMBER                LBL008166                     LBL008166                                                                                                                                                                                                                                                      
Z2BTLC01000                   500000000000254143500019700019404REVISION                      R00                           R00                                                                                                                                                                                                                                                            
Z2BTLC01000                   500000000000254143500019800019404SIZE                          3.25 x 4                      3.25 x 4                                                                                                                                                                                                                                                       
Z2BTLC01000                   500000000000254143500019900019404LEVEL                         EACH                          EACH                                                                                                                                                                                                                                                           
Z2BTLC01000                   500000000000254143500020000019404QUANTITY                      1                             1                                                                                                                                                                                                                                                              
Z2BTLC01000                   500000000000254143500020100019404BARCODETEXT                   14026704594983                14026704594983                                                                                                                                                                                                                                                 
Z2BTLC01000                   500000000000254143500020200019404LTNUMBER                      IPN042676                     IPN042676                                                                                                                                                                                                                                                      
Z2BTLC01000                   500000000000254143500020300019404GRAPHIC01                     Y                             T:\MEDICAL\NA\RTP\TEAM CENTER\TEMPLATES\GRAPHICS\Non-sterile.tif                                                                                                                                                                                               
Z2BTLC01000                   500000000000254143500020400019404ECREP                         N                             T:\MEDICAL\NA\RTP\TEAM CENTER\TEMPLATES\GRAPHICS\blank-01.tif                                                                                                                                                                                                  
Z2BTLC01000                   500000000000254143500020500019404LOTGRAPHIC                    Y                             T:\MEDICAL\NA\RTP\TEAM CENTER\TEMPLATES\GRAPHICS\Lot.tif                                                                                                                                                                                                       
Z2BTLC01000                   500000000000254143500020600019404MANUFACTURER                  Y                             T:\MEDICAL\NA\RTP\TEAM CENTER\TEMPLATES\GRAPHICS\Manufacturer.tif                                                                                                                                                                                              
Z2BTLC01000                   500000000000254143500020700019404MFGDATE                       Y                             T:\MEDICAL\NA\RTP\TEAM CENTER\TEMPLATES\GRAPHICS\DateofManufacture.tif                                                                                                                                                                                         
Z2BTLC01000                   500000000000254143500020800019404REFNUMBER                     Y                             T:\MEDICAL\NA\RTP\TEAM CENTER\TEMPLATES\GRAPHICS\REF.tif                                                                                                                                                                                                       
Z2BTLC01000                   500000000000254143500020900019404REF                           N                             T:\MEDICAL\NA\RTP\TEAM CENTER\TEMPLATES\GRAPHICS\blank-01.tif                                                                                                                                                                                                  
Z2BTLC01000                   500000000000254143500021000019404RXONLY                        Y                             T:\MEDICAL\NA\RTP\TEAM CENTER\TEMPLATES\GRAPHICS\RX Only.tif                                                                                                                                                                                                   
Z2BTLC01000                   500000000000254143500021100019404TFXLOGO                       Y                             T:\MEDICAL\NA\RTP\TEAM CENTER\TEMPLATES\GRAPHICS\TeleflexMedical.tif                                                                                                                                                                                           
Z2BTLC01000                   500000000000254143500021200019404ADDRESS                       TFX4LineAdd3i                 T:\MEDICAL\NA\RTP\TEAM CENTER\TEMPLATES\GRAPHICS\TFX4LineAdd3i.tif                                                                                                                                                                                             
Z2BTLC01000                   500000000000254143500021300019404CE0120                        NO                            T:\MEDICAL\NA\RTP\TEAM CENTER\TEMPLATES\GRAPHICS\blank-01.tif                                                                                                                                                                                                  
Z2BTLC01000                   500000000000254143500021400019404COOSTATE                      COOAssmMexUSForeign           T:\MEDICAL\NA\RTP\TEAM CENTER\TEMPLATES\GRAPHICS\COOAssmMexUSForeign.tif                                                                                                                                                                                       
Z2BTLC01000                   500000000000254143500021500019404ECREPADDRESS                  NO                            T:\MEDICAL\NA\RTP\TEAM CENTER\TEMPLATES\GRAPHICS\blank-01.tif                                                                                                                                                                                                  
Z2BTLC01000                   500000000000254143500021600019404FLGRAPHIC                     NO                            T:\MEDICAL\NA\RTP\TEAM CENTER\TEMPLATES\GRAPHICS\blank-01.tif                                                                                                                                                                                                  
Z2BTLC01000                   500000000000254143500021700019404LABELGRAPH1                   LBL008166                     T:\MEDICAL\NA\RTP\TEAM CENTER\TEMPLATES\GRAPHICS\LBL008166.tif                                                                                                                                                                                                 
Z2BTLC01000                   500000000000254143500021800019404LABELGRAPH2                   HudsonCR_07-12-16             T:\MEDICAL\NA\RTP\TEAM CENTER\TEMPLATES\GRAPHICS\HudsonCR_07-12-16.tif                                                                                                                                                                                         
Z2BTLC01000                   500000000000254143500021900019404LATEXSTATEMENT                NotMadeLatex                  T:\MEDICAL\NA\RTP\TEAM CENTER\TEMPLATES\GRAPHICS\NotMadeLatex.tif                                                                                                                                                                                              
Z2BTLC01000                   500000000000254143500022000019404LOGO1                         HUDSONRCI                     T:\MEDICAL\NA\RTP\TEAM CENTER\TEMPLATES\GRAPHICS\HUDSONRCI.tif                                                                                                                                                                                                 
Z2BTLC01000                   500000000000254143500022100019404LOGO2                         SinglePatienUse2              T:\MEDICAL\NA\RTP\TEAM CENTER\TEMPLATES\GRAPHICS\SinglePatienUse2.tif                                                                                                                                                                                          
Z2BTLC01000                   500000000000254143500022200019404LOGO3                         HudsonTradeMark3              T:\MEDICAL\NA\RTP\TEAM CENTER\TEMPLATES\GRAPHICS\HudsonTradeMark3.tif                                                                                                                                                                                          
Z2BTLC01000                   500000000000254143500022300019404CAUTIONSTATEMENT              p65                           T:\MEDICAL\NA\RTP\TEAM CENTER\TEMPLATES\GRAPHICS\p65.tif                                                                                                                                                                                                       
Z2BTLH01000                   500000000000254143500022400019303LBL008167         
Z2BTTX01000                   500000000000254143500022500022404GRUNE  ENMATERIAL  LBL008167                                                             Elbow Adaptor##                                                       *
Z2BTTX01000                   500000000000254143500022600022404GRUNE  ENMATERIAL  LBL008167                                                             22mm I.D. x 22mm O.D.                                                 /
Z2BTLC01000                   500000000000254143500022700022404TEMPLATENUMBER                T001903                       T001903                                                                                                                                                                                                                                                        
Z2BTLC01000                   500000000000254143500022800022404REVISION                      R00                           R00                                                                                                                                                                                                                                                            
Z2BTLC01000                   500000000000254143500022900022404SIZE                          6.125 x 3.625                 6.125 x 3.625                                                                                                                                                                                                                                                  
Z2BTLC01000                   500000000000254143500023000022404LEVEL                         SALES UNIT                    SALES UNIT                                                                                                                                                                                                                                                     
Z2BTLC01000                   500000000000254143500023100022404QUANTITY                      50                            50                                                                                                                                                                                                                                                             
Z2BTLC01000                   500000000000254143500023200022404BARCODETEXT                   34026704594987                34026704594987                                                                                                                                                                                                                                                 
Z2BTLC01000                   500000000000254143500023300022404LTNUMBER                      IPN042676                     IPN042676                                                                                                                                                                                                                                                      
Z2BTLC01000                   500000000000254143500023400022404GRAPHIC01                     Y                             T:\MEDICAL\NA\RTP\TEAM CENTER\TEMPLATES\GRAPHICS\SINGLEPATIENUSE.tif                                                                                                                                                                                           
Z2BTLC01000                   500000000000254143500023500022404GRAPHIC02                     Y                             T:\MEDICAL\NA\RTP\TEAM CENTER\TEMPLATES\GRAPHICS\Caution.tif                                                                                                                                                                                                   
Z2BTLC01000                   500000000000254143500023600022404GRAPHIC03                     Y                             T:\MEDICAL\NA\RTP\TEAM CENTER\TEMPLATES\GRAPHICS\ConsultIFU.tif                                                                                                                                                                                                
Z2BTLC01000                   500000000000254143500023700022404GRAPHIC04                     Y                             T:\MEDICAL\NA\RTP\TEAM CENTER\TEMPLATES\GRAPHICS\Non-sterile.tif                                                                                                                                                                                               
Z2BTLC01000                   500000000000254143500023800022404ECREP                         N                             T:\MEDICAL\NA\RTP\TEAM CENTER\TEMPLATES\GRAPHICS\blank-01.tif                                                                                                                                                                                                  
Z2BTLC01000                   500000000000254143500023900022404LOTGRAPHIC                    Y                             T:\MEDICAL\NA\RTP\TEAM CENTER\TEMPLATES\GRAPHICS\Lot.tif                                                                                                                                                                                                       
Z2BTLC01000                   500000000000254143500024000022404MANUFACTURER                  Y                             T:\MEDICAL\NA\RTP\TEAM CENTER\TEMPLATES\GRAPHICS\Manufacturer.tif                                                                                                                                                                                              
Z2BTLC01000                   500000000000254143500024100022404MFGDATE                       Y                             T:\MEDICAL\NA\RTP\TEAM CENTER\TEMPLATES\GRAPHICS\DateofManufacture.tif                                                                                                                                                                                         
Z2BTLC01000                   500000000000254143500024200022404REFNUMBER                     N                             T:\MEDICAL\NA\RTP\TEAM CENTER\TEMPLATES\GRAPHICS\blank-01.tif                                                                                                                                                                                                  
Z2BTLC01000                   500000000000254143500024300022404REF                           N                             T:\MEDICAL\NA\RTP\TEAM CENTER\TEMPLATES\GRAPHICS\blank-01.tif                                                                                                                                                                                                  
Z2BTLC01000                   500000000000254143500024400022404RXONLY                        Y                             T:\MEDICAL\NA\RTP\TEAM CENTER\TEMPLATES\GRAPHICS\RX Only.tif                                                                                                                                                                                                   
Z2BTLC01000                   500000000000254143500024500022404TFXLOGO                       Y                             T:\MEDICAL\NA\RTP\TEAM CENTER\TEMPLATES\GRAPHICS\TeleflexMedical.tif                                                                                                                                                                                           
Z2BTLC01000                   500000000000254143500024600022404ADDRESS                       TFX4LineAdd3                  T:\MEDICAL\NA\RTP\TEAM CENTER\TEMPLATES\GRAPHICS\TFX4LineAdd3.tif                                                                                                                                                                                              
Z2BTLC01000                   500000000000254143500024700022404CE0120                        NO                            T:\MEDICAL\NA\RTP\TEAM CENTER\TEMPLATES\GRAPHICS\blank-01.tif                                                                                                                                                                                                  
Z2BTLC01000                   500000000000254143500024800022404COOSTATE                      COOAssmMexUSForeign           T:\MEDICAL\NA\RTP\TEAM CENTER\TEMPLATES\GRAPHICS\COOAssmMexUSForeign.tif                                                                                                                                                                                       
Z2BTLC01000                   500000000000254143500024900022404ECREPADDRESS                  NO                            T:\MEDICAL\NA\RTP\TEAM CENTER\TEMPLATES\GRAPHICS\blank-01.tif                                                                                                                                                                                                  
Z2BTLC01000                   500000000000254143500025000022404FLGRAPHIC                     NO                            T:\MEDICAL\NA\RTP\TEAM CENTER\TEMPLATES\GRAPHICS\blank-01.tif                                                                                                                                                                                                  
Z2BTLC01000                   500000000000254143500025100022404LABELGRAPH1                   NO                            T:\MEDICAL\NA\RTP\TEAM CENTER\TEMPLATES\GRAPHICS\blank-01.tif                                                                                                                                                                                                  
Z2BTLC01000                   500000000000254143500025200022404LABELGRAPH2                   NO                            T:\MEDICAL\NA\RTP\TEAM CENTER\TEMPLATES\GRAPHICS\blank-01.tif                                                                                                                                                                                                  
Z2BTLC01000                   500000000000254143500025300022404LATEXSTATEMENT                NotMadeLatex                  T:\MEDICAL\NA\RTP\TEAM CENTER\TEMPLATES\GRAPHICS\NotMadeLatex.tif                                                                                                                                                                                              
Z2BTLC01000                   500000000000254143500025400022404LOGO1                         HUDSONRCI                     T:\MEDICAL\NA\RTP\TEAM CENTER\TEMPLATES\GRAPHICS\HUDSONRCI.tif                                                                                                                                                                                                 
Z2BTLC01000                   500000000000254143500025500022404LOGO2                         NO                            T:\MEDICAL\NA\RTP\TEAM CENTER\TEMPLATES\GRAPHICS\blank-01.tif                                                                                                                                                                                                  
Z2BTLC01000                   500000000000254143500025600022404LOGO3                         NO                            T:\MEDICAL\NA\RTP\TEAM CENTER\TEMPLATES\GRAPHICS\blank-01.tif                                                                                                                                                                                                  
Z2BTLC01000                   500000000000254143500025700022404CAUTIONSTATEMENT              N                             T:\MEDICAL\NA\RTP\TEAM CENTER\TEMPLATES\GRAPHICS\blank-01.tif                                                                                                                                                                                                  
Z2BTMH01000                   5000000000002541435000258000257021662              
Z2BTLH01000                   500000000000254143500025900025803LBL008174         
Z2BTTX01000                   500000000000254143500026000025904GRUNE  ENMATERIAL  LBL008174                                                             Wye Connector##                                                       *
Z2BTTX01000                   500000000000254143500026100025904GRUNE  ENMATERIAL  LBL008174                                                             Warning: Be sure all connections are secure.                          /
Z2BTLC01000                   500000000000254143500026200025904TEMPLATENUMBER                LBL008174                     LBL008174                                                                                                                                                                                                                                                      
Z2BTLC01000                   500000000000254143500026300025904REVISION                      R00                           R00                                                                                                                                                                                                                                                            
Z2BTLC01000                   500000000000254143500026400025904SIZE                          3.25 x 4 (front, back)        3.25 x 4 (front, back)                                                                                                                                                                                                                                         
Z2BTLC01000                   500000000000254143500026500025904LEVEL                         EACH                          EACH                                                                                                                                                                                                                                                           
Z2BTLC01000                   500000000000254143500026600025904QUANTITY                      1                             1                                                                                                                                                                                                                                                              
Z2BTLC01000                   500000000000254143500026700025904BARCODETEXT                   14026704595126                14026704595126                                                                                                                                                                                                                                                 
Z2BTLC01000                   500000000000254143500026800025904LTNUMBER                      IPN042704                     IPN042704                                                                                                                                                                                                                                                      
Z2BTLC01000                   500000000000254143500026900025904GRAPHIC01                     Y                             T:\MEDICAL\NA\RTP\TEAM CENTER\TEMPLATES\GRAPHICS\Non-sterile.tif                                                                                                                                                                                               
Z2BTLC01000                   500000000000254143500027000025904ECREP                         N                             T:\MEDICAL\NA\RTP\TEAM CENTER\TEMPLATES\GRAPHICS\blank-01.tif                                                                                                                                                                                                  
Z2BTLC01000                   500000000000254143500027100025904LOTGRAPHIC                    Y                             T:\MEDICAL\NA\RTP\TEAM CENTER\TEMPLATES\GRAPHICS\Lot.tif                                                                                                                                                                                                       
Z2BTLC01000                   500000000000254143500027200025904MANUFACTURER                  Y                             T:\MEDICAL\NA\RTP\TEAM CENTER\TEMPLATES\GRAPHICS\Manufacturer.tif                                                                                                                                                                                              
Z2BTLC01000                   500000000000254143500027300025904MFGDATE                       Y                             T:\MEDICAL\NA\RTP\TEAM CENTER\TEMPLATES\GRAPHICS\DateofManufacture.tif                                                                                                                                                                                         
Z2BTLC01000                   500000000000254143500027400025904REFNUMBER                     Y                             T:\MEDICAL\NA\RTP\TEAM CENTER\TEMPLATES\GRAPHICS\REF.tif                                                                                                                                                                                                       
Z2BTLC01000                   500000000000254143500027500025904REF                           N                             T:\MEDICAL\NA\RTP\TEAM CENTER\TEMPLATES\GRAPHICS\blank-01.tif                                                                                                                                                                                                  
Z2BTLC01000                   500000000000254143500027600025904RXONLY                        Y                             T:\MEDICAL\NA\RTP\TEAM CENTER\TEMPLATES\GRAPHICS\RX Only.tif                                                                                                                                                                                                   
Z2BTLC01000                   500000000000254143500027700025904TFXLOGO                       Y                             T:\MEDICAL\NA\RTP\TEAM CENTER\TEMPLATES\GRAPHICS\TeleflexMedical.tif                                                                                                                                                                                           
Z2BTLC01000                   500000000000254143500027800025904ADDRESS                       TFX4LineAdd3i                 T:\MEDICAL\NA\RTP\TEAM CENTER\TEMPLATES\GRAPHICS\TFX4LineAdd3i.tif                                                                                                                                                                                             
