EDI_DC40  5000000000032264593740 3012  Z1BTDOC                                                     ZSC_BTEND                                        SAPMEP    LS  MEPCLNT500                                                                                           I041      US  BARTENDER                                                                                            20190812163341                                                                                                                DCO-031337_EN       
Z2BTMH01000                   50000000000322645930000010000000218305             
Z2BTLH01000                   500000000003226459300000200000103LBL024663         
Z2BTTX01000                   500000000003226459300000300000204GRUNE  ENMATERIAL  LBL024663                                                             SIZE: 4.5Fr (1.5mm) x 76cm                                            * 
Z2BTLC01000                   500000000003226459300000400000204TFXLOGO                       Y                             T:\MEDICAL\NA\RTP\TEAM CENTER\TEMPLATES\GRAPHICS\TeleflexMedical.tif                                                                                                                                                                                            
Z2BTLC01000                   500000000003226459300000500000204REVISION                      R00                           R00                                                                                                                                                                                                                                                             
Z2BTLC01000                   500000000003226459300000600000204QUANTITY                      1                             1                                                                                                                                                                                                                                                               
Z2BTLC01000                   500000000003226459300000700000204REF                           N                             T:\MEDICAL\NA\RTP\TEAM CENTER\TEMPLATES\GRAPHICS\BLANK-01.TIF                                                                                                                                                                                                   
Z2BTLC01000                   500000000003226459300000800000204CAUTIONSTATE                  NO                            T:\MEDICAL\NA\RTP\TEAM CENTER\TEMPLATES\GRAPHICS\blank-01.tif                                                                                                                                                                                                   
Z2BTLC01000                   500000000003226459300000900000204LABELGRAPH1                   NO                            T:\MEDICAL\NA\RTP\TEAM CENTER\TEMPLATES\GRAPHICS\blank-01.tif                                                                                                                                                                                                   
Z2BTLC01000                   500000000003226459300001000000204LABELGRAPH2                   NO                            T:\MEDICAL\NA\RTP\TEAM CENTER\TEMPLATES\GRAPHICS\blank-01.tif                                                                                                                                                                                                   
Z2BTLC01000                   500000000003226459300001100000204FLGRAPHIC                     LBL000020FL                   T:\MEDICAL\NA\RTP\TEAM CENTER\TEMPLATES\GRAPHICS\LBL000020FL.tif                                                                                                                                                                                                
Z2BTLC01000                   500000000003226459300001200000204KEEPAWAYHEAT                  Y                             T:\MEDICAL\NA\RTP\TEAM CENTER\TEMPLATES\GRAPHICS\KeepAwayHeat.tif                                                                                                                                                                                               
Z2BTLC01000                   500000000003226459300001300000204PHTDEHP                       N                             T:\MEDICAL\NA\RTP\TEAM CENTER\TEMPLATES\GRAPHICS\BLANK-01.TIF                                                                                                                                                                                                   
Z2BTLC01000                   500000000003226459300001400000204SIZELOGO                      N                             No                                                                                                                                                                                                                                                              
Z2BTLC01000                   500000000003226459300001500000204HIGHLOW                       NO                            T:\MEDICAL\NA\RTP\TEAM CENTER\TEMPLATES\GRAPHICS\blank-01.tif                                                                                                                                                                                                   
Z2BTLC01000                   500000000003226459300001600000204GS1                           NO                            T:\MEDICAL\NA\RTP\TEAM CENTER\TEMPLATES\GRAPHICS\blank-01.tif                                                                                                                                                                                                   
Z2BTLC01000                   500000000003226459300001700000204BARCODE1                      NO                            T:\MEDICAL\NA\RTP\TEAM CENTER\TEMPLATES\GRAPHICS\blank-01.TIF                                                                                                                                                                                                   
Z2BTLC01000                   500000000003226459300001800000204VERSION                       NO                            T:\MEDICAL\NA\RTP\TEAM CENTER\TEMPLATES\GRAPHICS\blank-01.tif                                                                                                                                                                                                   
Z2BTLC01000                   500000000003226459300001900000204DISTRIBUTEDBY                 NO                            T:\MEDICAL\NA\RTP\TEAM CENTER\TEMPLATES\GRAPHICS\blank-01.tif                                                                                                                                                                                                   
Z2BTLC01000                   500000000003226459300002000000204MANUFACTUREDBY                NO                            T:\MEDICAL\NA\RTP\TEAM CENTER\TEMPLATES\GRAPHICS\blank-01.tif                                                                                                                                                                                                   
Z2BTLC01000                   500000000003226459300002100000204LOGO3                         NO                            T:\MEDICAL\NA\RTP\TEAM CENTER\TEMPLATES\GRAPHICS\blank-01.tif                                                                                                                                                                                                   
Z2BTLC01000                   500000000003226459300002200000204LOGO4                         NO                            T:\MEDICAL\NA\RTP\TEAM CENTER\TEMPLATES\GRAPHICS\blank-01.tif                                                                                                                                                                                                   
Z2BTLC01000                   500000000003226459300002300000204LOGO5                         NO                            T:\MEDICAL\NA\RTP\TEAM CENTER\TEMPLATES\GRAPHICS\blank-01.tif                                                                                                                                                                                                   
Z2BTLC01000                   500000000003226459300002400000204LTNUMBER                      IPN029592                     IPN029592                                                                                                                                                                                                                                                       
Z2BTLC01000                   500000000003226459300002500000204LATEXSTATEMENT                LATEXSTMNT4                   T:\MEDICAL\NA\RTP\TEAM CENTER\TEMPLATES\GRAPHICS\LatexStmnt4.tif                                                                                                                                                                                                
Z2BTLC01000                   500000000003226459300002600000204TEMPLATENUMBER                T002519                       T002519                                                                                                                                                                                                                                                         
Z2BTLC01000                   500000000003226459300002700000204BARCODETEXT                   14026704656360                14026704656360                                                                                                                                                                                                                                                  
Z2BTLC01000                   500000000003226459300002800000204STERILITYTYPE                 STERILEEO                     T:\MEDICAL\NA\RTP\TEAM CENTER\TEMPLATES\GRAPHICS\Sterile_EO.tif                                                                                                                                                                                                 
Z2BTLC01000                   500000000003226459300002900000204ADDRESS                       TFX4LINEADD3                  T:\MEDICAL\NA\RTP\TEAM CENTER\TEMPLATES\GRAPHICS\TFX4LINEADD3.TIF                                                                                                                                                                                               
Z2BTLC01000                   500000000003226459300003000000204GRAPHIC01                     Y                             T:\MEDICAL\NA\RTP\TEAM CENTER\TEMPLATES\GRAPHICS\Caution.tif                                                                                                                                                                                                    
Z2BTLC01000                   500000000003226459300003100000204CE0120                        CE0120                        T:\MEDICAL\NA\RTP\TEAM CENTER\TEMPLATES\GRAPHICS\CE_0120_Below.tif                                                                                                                                                                                              
Z2BTLC01000                   500000000003226459300003200000204GRAPHIC02                     Y                             T:\MEDICAL\NA\RTP\TEAM CENTER\TEMPLATES\GRAPHICS\ConsultIFU.tif                                                                                                                                                                                                 
Z2BTLC01000                   500000000003226459300003300000204COOSTATE                      COOPRODUSWUSFRNPACKMEX        T:\MEDICAL\NA\RTP\TEAM CENTER\TEMPLATES\GRAPHICS\COOPRODUSwUSFRNPACKMEX.tif                                                                                                                                                                                     
Z2BTLC01000                   500000000003226459300003400000204GRAPHIC03                     Y                             T:\MEDICAL\NA\RTP\TEAM CENTER\TEMPLATES\GRAPHICS\DoNotUsePakDam.tif                                                                                                                                                                                             
Z2BTLC01000                   500000000003226459300003500000204ECREP                         Y                             T:\MEDICAL\NA\RTP\TEAM CENTER\TEMPLATES\GRAPHICS\EC Rep.tif                                                                                                                                                                                                     
Z2BTLC01000                   500000000003226459300003600000204ECREPADDRESS                  ATHLONE4LINE4                 T:\MEDICAL\NA\RTP\TEAM CENTER\TEMPLATES\GRAPHICS\Athlone4Line4.tif                                                                                                                                                                                              
Z2BTLC01000                   500000000003226459300003700000204EXPDATE                       Y                             T:\MEDICAL\NA\RTP\TEAM CENTER\TEMPLATES\GRAPHICS\Expiration Date.tif                                                                                                                                                                                            
Z2BTLC01000                   500000000003226459300003800000204LEVEL                         EAUNIT                        Each Unit                                                                                                                                                                                                                                                       
Z2BTLC01000                   500000000003226459300003900000204LOGO1                         TAUTOPCHOLCATH                T:\MEDICAL\NA\RTP\TEAM CENTER\TEMPLATES\GRAPHICS\TAUTOpCholCath.tif                                                                                                                                                                                             
Z2BTLC01000                   500000000003226459300004000000204LOGO2                         NO                            T:\MEDICAL\NA\RTP\TEAM CENTER\TEMPLATES\GRAPHICS\blank-01.tif                                                                                                                                                                                                   
Z2BTLC01000                   500000000003226459300004100000204LOTGRAPHIC                    Y                             T:\MEDICAL\NA\RTP\TEAM CENTER\TEMPLATES\GRAPHICS\Lot.tif                                                                                                                                                                                                        
Z2BTLC01000                   500000000003226459300004200000204STERILESTA                    NO                            T:\MEDICAL\NA\RTP\TEAM CENTER\TEMPLATES\GRAPHICS\blank-01.tif                                                                                                                                                                                                   
Z2BTLC01000                   500000000003226459300004300000204SIZE                          2.188 X 4.125                 2.188 X 4.125                                                                                                                                                                                                                                                   
Z2BTLC01000                   500000000003226459300004400000204GRAPHIC04                     Y                             T:\MEDICAL\NA\RTP\TEAM CENTER\TEMPLATES\GRAPHICS\singleuse.tif                                                                                                                                                                                                  
Z2BTLC01000                   500000000003226459300004500000204SERIAL                        N                             T:\MEDICAL\NA\RTP\TEAM CENTER\TEMPLATES\GRAPHICS\BLANK-01.TIF                                                                                                                                                                                                   
Z2BTLC01000                   500000000003226459300004600000204RXONLY                        Y                             T:\MEDICAL\NA\RTP\TEAM CENTER\TEMPLATES\GRAPHICS\RX Only.tif                                                                                                                                                                                                    
Z2BTLC01000                   500000000003226459300004700000204REFNUMBER                     Y                             T:\MEDICAL\NA\RTP\TEAM CENTER\TEMPLATES\GRAPHICS\REF.tif                                                                                                                                                                                                        
Z2BTLC01000                   500000000003226459300004800000204PATENTSTA                     NO                            T:\MEDICAL\NA\RTP\TEAM CENTER\TEMPLATES\GRAPHICS\blank-01.tif                                                                                                                                                                                                   
Z2BTLC01000                   500000000003226459300004900000204GRAPHIC05                     Y                             T:\MEDICAL\NA\RTP\TEAM CENTER\TEMPLATES\GRAPHICS\DoNotRe-sterilize.tif                                                                                                                                                                                          
Z2BTLC01000                   500000000003226459300005000000204MFGDATE                       N                             T:\MEDICAL\NA\RTP\TEAM CENTER\TEMPLATES\GRAPHICS\BLANK-01.TIF                                                                                                                                                                                                   
Z2BTLC01000                   500000000003226459300005100000204MANUFACTURER                  Y                             T:\MEDICAL\NA\RTP\TEAM CENTER\TEMPLATES\GRAPHICS\Manufacturer.tif                                                                                                                                                                                               
Z2BTLH01000                   500000000003226459300005200000103LBL024667         
Z2BTTX01000                   500000000003226459300005300005204GRUNE  ENMATERIAL  LBL024667                                                             Operative Cholangiogram Catheter##                                    * 
Z2BTTX01000                   500000000003226459300005400005204GRUNE  ENMATERIAL  LBL024667                                                             4.5Fr (1.5mm) x 76cm##                                                / 
Z2BTTX01000                   500000000003226459300005500005204GRUNE  ENMATERIAL  LBL024667                                                             1 Catheter per Package##                                              / 
Z2BTTX01000                   500000000003226459300005600005204GRUNE  ENMATERIAL  LBL024667                                                             10 Packages per Sales Unit##                                          / 
Z2BTTX01000                   500000000003226459300005700005204GRUNE  ENMATERIAL  LBL024667                                                             10 Sales Units per Shipper##                                          / 
Z2BTLC01000                   500000000003226459300005800005204TFXLOGO                       Y                             T:\MEDICAL\NA\RTP\TEAM CENTER\TEMPLATES\GRAPHICS\TeleflexMedical.tif                                                                                                                                                                                            
Z2BTLC01000                   500000000003226459300005900005204REVISION                      R00                           R00                                                                                                                                                                                                                                                             
Z2BTLC01000                   500000000003226459300006000005204QUANTITY                      NO                            NO                                                                                                                                                                                                                                                              
Z2BTLC01000                   500000000003226459300006100005204REF                           N                             T:\MEDICAL\NA\RTP\TEAM CENTER\TEMPLATES\GRAPHICS\BLANK-01.TIF                                                                                                                                                                                                   
Z2BTLC01000                   500000000003226459300006200005204CAUTIONSTATE                  NO                            T:\MEDICAL\NA\RTP\TEAM CENTER\TEMPLATES\GRAPHICS\blank-01.tif                                                                                                                                                                                                   
Z2BTLC01000                   500000000003226459300006300005204LABELGRAPH1                   NO                            T:\MEDICAL\NA\RTP\TEAM CENTER\TEMPLATES\GRAPHICS\blank-01.tif                                                                                                                                                                                                   
Z2BTLC01000                   500000000003226459300006400005204LABELGRAPH2                   NO                            T:\MEDICAL\NA\RTP\TEAM CENTER\TEMPLATES\GRAPHICS\blank-01.tif                                                                                                                                                                                                   
Z2BTLC01000                   500000000003226459300006500005204FLGRAPHIC                     NO                            T:\MEDICAL\NA\RTP\TEAM CENTER\TEMPLATES\GRAPHICS\blank-01.tif                                                                                                                                                                                                   
Z2BTLC01000                   500000000003226459300006600005204KEEPAWAYHEAT                  N                             T:\MEDICAL\NA\RTP\TEAM CENTER\TEMPLATES\GRAPHICS\BLANK-01.TIF                                                                                                                                                                                                   
Z2BTLC01000                   500000000003226459300006700005204PHTDEHP                       N                             T:\MEDICAL\NA\RTP\TEAM CENTER\TEMPLATES\GRAPHICS\BLANK-01.TIF                                                                                                                                                                                                   
Z2BTLC01000                   500000000003226459300006800005204SIZELOGO                      N                             No                                                                                                                                                                                                                                                              
Z2BTLC01000                   500000000003226459300006900005204HIGHLOW                       NO                            T:\MEDICAL\NA\RTP\TEAM CENTER\TEMPLATES\GRAPHICS\blank-01.tif                                                                                                                                                                                                   
Z2BTLC01000                   500000000003226459300007000005204GS1                           NO                            T:\MEDICAL\NA\RTP\TEAM CENTER\TEMPLATES\GRAPHICS\blank-01.tif                                                                                                                                                                                                   
Z2BTLC01000                   500000000003226459300007100005204BARCODE1                      NO                            T:\MEDICAL\NA\RTP\TEAM CENTER\TEMPLATES\GRAPHICS\blank-01.TIF                                                                                                                                                                                                   
Z2BTLC01000                   500000000003226459300007200005204VERSION                       NO                            T:\MEDICAL\NA\RTP\TEAM CENTER\TEMPLATES\GRAPHICS\blank-01.tif                                                                                                                                                                                                   
Z2BTLC01000                   500000000003226459300007300005204DISTRIBUTEDBY                 NO                            T:\MEDICAL\NA\RTP\TEAM CENTER\TEMPLATES\GRAPHICS\blank-01.tif                                                                                                                                                                                                   
Z2BTLC01000                   500000000003226459300007400005204MANUFACTUREDBY                NO                            T:\MEDICAL\NA\RTP\TEAM CENTER\TEMPLATES\GRAPHICS\blank-01.tif                                                                                                                                                                                                   
Z2BTLC01000                   500000000003226459300007500005204LOGO3                         NO                            T:\MEDICAL\NA\RTP\TEAM CENTER\TEMPLATES\GRAPHICS\blank-01.tif                                                                                                                                                                                                   
Z2BTLC01000                   500000000003226459300007600005204LOGO4                         NO                            T:\MEDICAL\NA\RTP\TEAM CENTER\TEMPLATES\GRAPHICS\blank-01.tif                                                                                                                                                                                                   
Z2BTLC01000                   500000000003226459300007700005204LOGO5                         NO                            T:\MEDICAL\NA\RTP\TEAM CENTER\TEMPLATES\GRAPHICS\blank-01.tif                                                                                                                                                                                                   
Z2BTLC01000                   500000000003226459300007800005204LTNUMBER                      IPN029592                     IPN029592                                                                                                                                                                                                                                                       
Z2BTLC01000                   500000000003226459300007900005204LATEXSTATEMENT                NOTMADELATEX                  T:\MEDICAL\NA\RTP\TEAM CENTER\TEMPLATES\GRAPHICS\NotMadeLatex.tif                                                                                                                                                                                               
Z2BTLC01000                   500000000003226459300008000005204TEMPLATENUMBER                T002520                       T002520                                                                                                                                                                                                                                                         
Z2BTLC01000                   500000000003226459300008100005204BARCODETEXT                   34026704656364                34026704656364                                                                                                                                                                                                                                                  
Z2BTLC01000                   500000000003226459300008200005204STERILITYTYPE                 STERILEEO                     T:\MEDICAL\NA\RTP\TEAM CENTER\TEMPLATES\GRAPHICS\Sterile_EO.tif                                                                                                                                                                                                 
Z2BTLC01000                   500000000003226459300008300005204ADDRESS                       TFX4LINEADD7I                 T:\MEDICAL\NA\RTP\TEAM CENTER\TEMPLATES\GRAPHICS\TFX4LineAdd7i.tif                                                                                                                                                                                              
Z2BTLC01000                   500000000003226459300008400005204GRAPHIC01                     Y                             T:\MEDICAL\NA\RTP\TEAM CENTER\TEMPLATES\GRAPHICS\Caution.tif                                                                                                                                                                                                    
Z2BTLC01000                   500000000003226459300008500005204CE0120                        CE0120                        T:\MEDICAL\NA\RTP\TEAM CENTER\TEMPLATES\GRAPHICS\CE_0120_Below.tif                                                                                                                                                                                              
Z2BTLC01000                   500000000003226459300008600005204GRAPHIC02                     Y                             T:\MEDICAL\NA\RTP\TEAM CENTER\TEMPLATES\GRAPHICS\ConsultIFU.tif                                                                                                                                                                                                 
Z2BTLC01000                   500000000003226459300008700005204COOSTATE                      COOPRODUSWUSFRNPACKMEX        T:\MEDICAL\NA\RTP\TEAM CENTER\TEMPLATES\GRAPHICS\COOPRODUSwUSFRNPACKMEX.tif                                                                                                                                                                                     
Z2BTLC01000                   500000000003226459300008800005204GRAPHIC03                     Y                             T:\MEDICAL\NA\RTP\TEAM CENTER\TEMPLATES\GRAPHICS\DoNotUsePakDam.tif                                                                                                                                                                                             
Z2BTLC01000                   500000000003226459300008900005204ECREP                         Y                             T:\MEDICAL\NA\RTP\TEAM CENTER\TEMPLATES\GRAPHICS\EC Rep.tif                                                                                                                                                                                                     
Z2BTLC01000                   500000000003226459300009000005204ECREPADDRESS                  ATHLONE6LINE                  T:\MEDICAL\NA\RTP\TEAM CENTER\TEMPLATES\GRAPHICS\Athlone6line.tif                                                                                                                                                                                               
Z2BTLC01000                   500000000003226459300009100005204EXPDATE                       Y                             T:\MEDICAL\NA\RTP\TEAM CENTER\TEMPLATES\GRAPHICS\Expiration Date.tif                                                                                                                                                                                            
Z2BTLC01000                   500000000003226459300009200005204LEVEL                         NO                            No                                                                                                                                                                                                                                                              
Z2BTLC01000                   500000000003226459300009300005204LOGO1                         TAUTLOGO                      T:\MEDICAL\NA\RTP\TEAM CENTER\TEMPLATES\GRAPHICS\Tautlogo.tif                                                                                                                                                                                                   
Z2BTLC01000                   500000000003226459300009400005204LOGO2                         NO                            T:\MEDICAL\NA\RTP\TEAM CENTER\TEMPLATES\GRAPHICS\blank-01.tif                                                                                                                                                                                                   
Z2BTLC01000                   500000000003226459300009500005204LOTGRAPHIC                    Y                             T:\MEDICAL\NA\RTP\TEAM CENTER\TEMPLATES\GRAPHICS\Lot.tif                                                                                                                                                                                                        
Z2BTLC01000                   500000000003226459300009600005204STERILESTA                    NO                            T:\MEDICAL\NA\RTP\TEAM CENTER\TEMPLATES\GRAPHICS\blank-01.tif                                                                                                                                                                                                   
Z2BTLC01000                   500000000003226459300009700005204SIZE                          4 X 2.938                     4 X 2.938                                                                                                                                                                                                                                                       
Z2BTLC01000                   500000000003226459300009800005204GRAPHIC04                     Y                             T:\MEDICAL\NA\RTP\TEAM CENTER\TEMPLATES\GRAPHICS\singleuse.tif                                                                                                                                                                                                  
Z2BTLC01000                   500000000003226459300009900005204SERIAL                        N                             T:\MEDICAL\NA\RTP\TEAM CENTER\TEMPLATES\GRAPHICS\BLANK-01.TIF                                                                                                                                                                                                   
Z2BTLC01000                   500000000003226459300010000005204RXONLY                        Y                             T:\MEDICAL\NA\RTP\TEAM CENTER\TEMPLATES\GRAPHICS\RX Only.tif                                                                                                                                                                                                    
Z2BTLC01000                   500000000003226459300010100005204REFNUMBER                     Y                             T:\MEDICAL\NA\RTP\TEAM CENTER\TEMPLATES\GRAPHICS\REF.tif                                                                                                                                                                                                        
Z2BTLC01000                   500000000003226459300010200005204PATENTSTA                     NO                            T:\MEDICAL\NA\RTP\TEAM CENTER\TEMPLATES\GRAPHICS\blank-01.tif                                                                                                                                                                                                   
Z2BTLC01000                   500000000003226459300010300005204GRAPHIC05                     Y                             T:\MEDICAL\NA\RTP\TEAM CENTER\TEMPLATES\GRAPHICS\DoNotRe-sterilize.tif                                                                                                                                                                                          
Z2BTLC01000                   500000000003226459300010400005204MFGDATE                       N                             T:\MEDICAL\NA\RTP\TEAM CENTER\TEMPLATES\GRAPHICS\BLANK-01.TIF                                                                                                                                                                                                   
Z2BTLC01000                   500000000003226459300010500005204MANUFACTURER                  Y                             T:\MEDICAL\NA\RTP\TEAM CENTER\TEMPLATES\GRAPHICS\Manufacturer.tif                                                                                                                                                                                               
Z2BTLH01000                   500000000003226459300010600000103LBL024674         
Z2BTTX01000                   500000000003226459300010700010604GRUNE  ENMATERIAL  LBL024674                                                             SIZE: 4.5Fr (1.5mm) x 76cm                                            * 
Z2BTLC01000                   500000000003226459300010800010604TFXLOGO                       Y                             T:\MEDICAL\NA\RTP\TEAM CENTER\TEMPLATES\GRAPHICS\TeleflexMedical.tif                                                                                                                                                                                            
Z2BTLC01000                   500000000003226459300010900010604REVISION                      R00                           R00                                                                                                                                                                                                                                                             
Z2BTLC01000                   500000000003226459300011000010604QUANTITY                      10                            10                                                                                                                                                                                                                                                              
Z2BTLC01000                   500000000003226459300011100010604REF                           N                             T:\MEDICAL\NA\RTP\TEAM CENTER\TEMPLATES\GRAPHICS\BLANK-01.TIF                                                                                                                                                                                                   
Z2BTLC01000                   500000000003226459300011200010604CAUTIONSTATE                  NO                            T:\MEDICAL\NA\RTP\TEAM CENTER\TEMPLATES\GRAPHICS\blank-01.tif                                                                                                                                                                                                   
Z2BTLC01000                   500000000003226459300011300010604LABELGRAPH1                   NO                            T:\MEDICAL\NA\RTP\TEAM CENTER\TEMPLATES\GRAPHICS\blank-01.tif                                                                                                                                                                                                   
Z2BTLC01000                   500000000003226459300011400010604LABELGRAPH2                   NO                            T:\MEDICAL\NA\RTP\TEAM CENTER\TEMPLATES\GRAPHICS\blank-01.tif                                                                                                                                                                                                   
Z2BTLC01000                   500000000003226459300011500010604FLGRAPHIC                     LBL000020FL                   T:\MEDICAL\NA\RTP\TEAM CENTER\TEMPLATES\GRAPHICS\LBL000020FL.tif                                                                                                                                                                                                
Z2BTLC01000                   500000000003226459300011600010604KEEPAWAYHEAT                  Y                             T:\MEDICAL\NA\RTP\TEAM CENTER\TEMPLATES\GRAPHICS\KeepAwayHeat.tif                                                                                                                                                                                               
Z2BTLC01000                   500000000003226459300011700010604PHTDEHP                       N                             T:\MEDICAL\NA\RTP\TEAM CENTER\TEMPLATES\GRAPHICS\BLANK-01.TIF                                                                                                                                                                                                   
Z2BTLC01000                   500000000003226459300011800010604SIZELOGO                      N                             No                                                                                                                                                                                                                                                              
Z2BTLC01000                   500000000003226459300011900010604HIGHLOW                       NO                            T:\MEDICAL\NA\RTP\TEAM CENTER\TEMPLATES\GRAPHICS\blank-01.tif                                                                                                                                                                                                   
Z2BTLC01000                   500000000003226459300012000010604GS1                           NO                            T:\MEDICAL\NA\RTP\TEAM CENTER\TEMPLATES\GRAPHICS\blank-01.tif                                                                                                                                                                                                   
Z2BTLC01000                   500000000003226459300012100010604BARCODE1                      NO                            T:\MEDICAL\NA\RTP\TEAM CENTER\TEMPLATES\GRAPHICS\blank-01.TIF                                                                                                                                                                                                   
Z2BTLC01000                   500000000003226459300012200010604VERSION                       NO                            T:\MEDICAL\NA\RTP\TEAM CENTER\TEMPLATES\GRAPHICS\blank-01.tif                                                                                                                                                                                                   
Z2BTLC01000                   500000000003226459300012300010604DISTRIBUTEDBY                 NO                            T:\MEDICAL\NA\RTP\TEAM CENTER\TEMPLATES\GRAPHICS\blank-01.tif                                                                                                                                                                                                   
Z2BTLC01000                   500000000003226459300012400010604MANUFACTUREDBY                NO                            T:\MEDICAL\NA\RTP\TEAM CENTER\TEMPLATES\GRAPHICS\blank-01.tif                                                                                                                                                                                                   
Z2BTLC01000                   500000000003226459300012500010604LOGO3                         NO                            T:\MEDICAL\NA\RTP\TEAM CENTER\TEMPLATES\GRAPHICS\blank-01.tif                                                                                                                                                                                                   
Z2BTLC01000                   500000000003226459300012600010604LOGO4                         NO                            T:\MEDICAL\NA\RTP\TEAM CENTER\TEMPLATES\GRAPHICS\blank-01.tif                                                                                                                                                                                                   
Z2BTLC01000                   500000000003226459300012700010604LOGO5                         NO                            T:\MEDICAL\NA\RTP\TEAM CENTER\TEMPLATES\GRAPHICS\blank-01.tif                                                                                                                                                                                                   
Z2BTLC01000                   500000000003226459300012800010604LTNUMBER                      IPN029592                     IPN029592                                                                                                                                                                                                                                                       
Z2BTLC01000                   500000000003226459300012900010604LATEXSTATEMENT                LATEXSTMNT4                   T:\MEDICAL\NA\RTP\TEAM CENTER\TEMPLATES\GRAPHICS\LatexStmnt4.tif                                                                                                                                                                                                
Z2BTLC01000                   500000000003226459300013000010604TEMPLATENUMBER                T002519                       T002519                                                                                                                                                                                                                                                         
Z2BTLC01000                   500000000003226459300013100010604BARCODETEXT                   24026704656367                24026704656367                                                                                                                                                                                                                                                  
Z2BTLC01000                   500000000003226459300013200010604STERILITYTYPE                 STERILEEO                     T:\MEDICAL\NA\RTP\TEAM CENTER\TEMPLATES\GRAPHICS\Sterile_EO.tif                                                                                                                                                                                                 
Z2BTLC01000                   500000000003226459300013300010604ADDRESS                       TFX4LINEADD3                  T:\MEDICAL\NA\RTP\TEAM CENTER\TEMPLATES\GRAPHICS\TFX4LINEADD3.TIF                                                                                                                                                                                               
Z2BTLC01000                   500000000003226459300013400010604GRAPHIC01                     Y                             T:\MEDICAL\NA\RTP\TEAM CENTER\TEMPLATES\GRAPHICS\Caution.tif                                                                                                                                                                                                    
Z2BTLC01000                   500000000003226459300013500010604CE0120                        CE0120                        T:\MEDICAL\NA\RTP\TEAM CENTER\TEMPLATES\GRAPHICS\CE_0120_Below.tif                                                                                                                                                                                              
Z2BTLC01000                   500000000003226459300013600010604GRAPHIC02                     Y                             T:\MEDICAL\NA\RTP\TEAM CENTER\TEMPLATES\GRAPHICS\ConsultIFU.tif                                                                                                                                                                                                 
Z2BTLC01000                   500000000003226459300013700010604COOSTATE                      COOPRODUSWUSFRNPACKMEX        T:\MEDICAL\NA\RTP\TEAM CENTER\TEMPLATES\GRAPHICS\COOPRODUSwUSFRNPACKMEX.tif                                                                                                                                                                                     
Z2BTLC01000                   500000000003226459300013800010604GRAPHIC03                     Y                             T:\MEDICAL\NA\RTP\TEAM CENTER\TEMPLATES\GRAPHICS\DoNotUsePakDam.tif                                                                                                                                                                                             
Z2BTLC01000                   500000000003226459300013900010604ECREP                         Y                             T:\MEDICAL\NA\RTP\TEAM CENTER\TEMPLATES\GRAPHICS\EC Rep.tif                                                                                                                                                                                                     
Z2BTLC01000                   500000000003226459300014000010604ECREPADDRESS                  ATHLONE4LINE4                 T:\MEDICAL\NA\RTP\TEAM CENTER\TEMPLATES\GRAPHICS\Athlone4Line4.tif                                                                                                                                                                                              
Z2BTLC01000                   500000000003226459300014100010604EXPDATE                       Y                             T:\MEDICAL\NA\RTP\TEAM CENTER\TEMPLATES\GRAPHICS\Expiration Date.tif                                                                                                                                                                                            
Z2BTLC01000                   500000000003226459300014200010604LEVEL                         SALESUNIT                     Sales Unit                                                                                                                                                                                                                                                      
Z2BTLC01000                   500000000003226459300014300010604LOGO1                         TAUTOPCHOLCATH                T:\MEDICAL\NA\RTP\TEAM CENTER\TEMPLATES\GRAPHICS\TAUTOpCholCath.tif                                                                                                                                                                                             
Z2BTLC01000                   500000000003226459300014400010604LOGO2                         NO                            T:\MEDICAL\NA\RTP\TEAM CENTER\TEMPLATES\GRAPHICS\blank-01.tif                                                                                                                                                                                                   
Z2BTLC01000                   500000000003226459300014500010604LOTGRAPHIC                    Y                             T:\MEDICAL\NA\RTP\TEAM CENTER\TEMPLATES\GRAPHICS\Lot.tif                                                                                                                                                                                                        
Z2BTLC01000                   500000000003226459300014600010604STERILESTA                    NO                            T:\MEDICAL\NA\RTP\TEAM CENTER\TEMPLATES\GRAPHICS\blank-01.tif                                                                                                                                                                                                   
Z2BTLC01000                   500000000003226459300014700010604SIZE                          2.188 X 4.125                 2.188 X 4.125                                                                                                                                                                                                                                                   
Z2BTLC01000                   500000000003226459300014800010604GRAPHIC04                     Y                             T:\MEDICAL\NA\RTP\TEAM CENTER\TEMPLATES\GRAPHICS\singleuse.tif                                                                                                                                                                                                  
Z2BTLC01000                   500000000003226459300014900010604SERIAL                        N                             T:\MEDICAL\NA\RTP\TEAM CENTER\TEMPLATES\GRAPHICS\BLANK-01.TIF                                                                                                                                                                                                   
Z2BTLC01000                   500000000003226459300015000010604RXONLY                        Y                             T:\MEDICAL\NA\RTP\TEAM CENTER\TEMPLATES\GRAPHICS\RX Only.tif                                                                                                                                                                                                    
Z2BTLC01000                   500000000003226459300015100010604REFNUMBER                     Y                             T:\MEDICAL\NA\RTP\TEAM CENTER\TEMPLATES\GRAPHICS\REF.tif                                                                                                                                                                                                        
Z2BTLC01000                   500000000003226459300015200010604PATENTSTA                     NO                            T:\MEDICAL\NA\RTP\TEAM CENTER\TEMPLATES\GRAPHICS\blank-01.tif                                                                                                                                                                                                   
Z2BTLC01000                   500000000003226459300015300010604GRAPHIC05                     Y                             T:\MEDICAL\NA\RTP\TEAM CENTER\TEMPLATES\GRAPHICS\DoNotRe-sterilize.tif                                                                                                                                                                                          
Z2BTLC01000                   500000000003226459300015400010604MFGDATE                       N                             T:\MEDICAL\NA\RTP\TEAM CENTER\TEMPLATES\GRAPHICS\BLANK-01.TIF                                                                                                                                                                                                   
Z2BTLC01000                   500000000003226459300015500010604MANUFACTURER                  Y                             T:\MEDICAL\NA\RTP\TEAM CENTER\TEMPLATES\GRAPHICS\Manufacturer.tif                                                                                                                                                                                               
Z2BTMH01000                   50000000000322645930001560000000218400             
Z2BTLH01000                   500000000003226459300015700015603LBL024675         
Z2BTTX01000                   500000000003226459300015800015704GRUNE  ENMATERIAL  LBL024675                                                             SIZE: 4.5Fr (1.5mm) x 76cm                                            * 
Z2BTLC01000                   500000000003226459300015900015704TFXLOGO                       Y                             T:\MEDICAL\NA\RTP\TEAM CENTER\TEMPLATES\GRAPHICS\TeleflexMedical.tif                                                                                                                                                                                            
Z2BTLC01000                   500000000003226459300016000015704REVISION                      R00                           R00                                                                                                                                                                                                                                                             
Z2BTLC01000                   500000000003226459300016100015704QUANTITY                      10                            10                                                                                                                                                                                                                                                              
Z2BTLC01000                   500000000003226459300016200015704REF                           N                             T:\MEDICAL\NA\RTP\TEAM CENTER\TEMPLATES\GRAPHICS\BLANK-01.TIF                                                                                                                                                                                                   
Z2BTLC01000                   500000000003226459300016300015704CAUTIONSTATE                  NO                            T:\MEDICAL\NA\RTP\TEAM CENTER\TEMPLATES\GRAPHICS\blank-01.tif                                                                                                                                                                                                   
Z2BTLC01000                   500000000003226459300016400015704LABELGRAPH1                   NO                            T:\MEDICAL\NA\RTP\TEAM CENTER\TEMPLATES\GRAPHICS\blank-01.tif                                                                                                                                                                                                   
Z2BTLC01000                   500000000003226459300016500015704LABELGRAPH2                   NO                            T:\MEDICAL\NA\RTP\TEAM CENTER\TEMPLATES\GRAPHICS\blank-01.tif                                                                                                                                                                                                   
Z2BTLC01000                   500000000003226459300016600015704FLGRAPHIC                     LBL000020FL                   T:\MEDICAL\NA\RTP\TEAM CENTER\TEMPLATES\GRAPHICS\LBL000020FL.tif                                                                                                                                                                                                
Z2BTLC01000                   500000000003226459300016700015704KEEPAWAYHEAT                  Y                             T:\MEDICAL\NA\RTP\TEAM CENTER\TEMPLATES\GRAPHICS\KeepAwayHeat.tif                                                                                                                                                                                               
Z2BTLC01000                   500000000003226459300016800015704PHTDEHP                       N                             T:\MEDICAL\NA\RTP\TEAM CENTER\TEMPLATES\GRAPHICS\BLANK-01.TIF                                                                                                                                                                                                   
Z2BTLC01000                   500000000003226459300016900015704SIZELOGO                      N                             No                                                                                                                                                                                                                                                              
Z2BTLC01000                   500000000003226459300017000015704HIGHLOW                       NO                            T:\MEDICAL\NA\RTP\TEAM CENTER\TEMPLATES\GRAPHICS\blank-01.tif                                                                                                                                                                                                   
Z2BTLC01000                   500000000003226459300017100015704GS1                           NO                            T:\MEDICAL\NA\RTP\TEAM CENTER\TEMPLATES\GRAPHICS\blank-01.tif                                                                                                                                                                                                   
Z2BTLC01000                   500000000003226459300017200015704BARCODE1                      NO                            T:\MEDICAL\NA\RTP\TEAM CENTER\TEMPLATES\GRAPHICS\blank-01.TIF                                                                                                                                                                                                   
Z2BTLC01000                   500000000003226459300017300015704VERSION                       NO                            T:\MEDICAL\NA\RTP\TEAM CENTER\TEMPLATES\GRAPHICS\blank-01.tif                                                                                                                                                                                                   
Z2BTLC01000                   500000000003226459300017400015704DISTRIBUTEDBY                 NO                            T:\MEDICAL\NA\RTP\TEAM CENTER\TEMPLATES\GRAPHICS\blank-01.tif                                                                                                                                                                                                   
Z2BTLC01000                   500000000003226459300017500015704MANUFACTUREDBY                NO                            T:\MEDICAL\NA\RTP\TEAM CENTER\TEMPLATES\GRAPHICS\blank-01.tif                                                                                                                                                                                                   
Z2BTLC01000                   500000000003226459300017600015704LOGO3                         NO                            T:\MEDICAL\NA\RTP\TEAM CENTER\TEMPLATES\GRAPHICS\blank-01.tif                                                                                                                                                                                                   
Z2BTLC01000                   500000000003226459300017700015704LOGO4                         NO                            T:\MEDICAL\NA\RTP\TEAM CENTER\TEMPLATES\GRAPHICS\blank-01.tif                                                                                                                                                                                                   
Z2BTLC01000                   500000000003226459300017800015704LOGO5                         NO                            T:\MEDICAL\NA\RTP\TEAM CENTER\TEMPLATES\GRAPHICS\blank-01.tif                                                                                                                                                                                                   
Z2BTLC01000                   500000000003226459300017900015704LTNUMBER                      IPN029593                     IPN029593                                                                                                                                                                                                                                                       
Z2BTLC01000                   500000000003226459300018000015704LATEXSTATEMENT                LATEXSTMNT4                   T:\MEDICAL\NA\RTP\TEAM CENTER\TEMPLATES\GRAPHICS\LatexStmnt4.tif                                                                                                                                                                                                
Z2BTLC01000                   500000000003226459300018100015704TEMPLATENUMBER                T002519                       T002519                                                                                                                                                                                                                                                         
Z2BTLC01000                   500000000003226459300018200015704BARCODETEXT                   24026704656374                24026704656374                                                                                                                                                                                                                                                  
Z2BTLC01000                   500000000003226459300018300015704STERILITYTYPE                 STERILEEO                     T:\MEDICAL\NA\RTP\TEAM CENTER\TEMPLATES\GRAPHICS\Sterile_EO.tif                                                                                                                                                                                                 
Z2BTLC01000                   500000000003226459300018400015704ADDRESS                       TFX4LINEADD3                  T:\MEDICAL\NA\RTP\TEAM CENTER\TEMPLATES\GRAPHICS\TFX4LINEADD3.TIF                                                                                                                                                                                               
Z2BTLC01000                   500000000003226459300018500015704GRAPHIC01                     Y                             T:\MEDICAL\NA\RTP\TEAM CENTER\TEMPLATES\GRAPHICS\Caution.tif                                                                                                                                                                                                    
Z2BTLC01000                   500000000003226459300018600015704CE0120                        CE0120                        T:\MEDICAL\NA\RTP\TEAM CENTER\TEMPLATES\GRAPHICS\CE_0120_Below.tif                                                                                                                                                                                              
Z2BTLC01000                   500000000003226459300018700015704GRAPHIC02                     Y                             T:\MEDICAL\NA\RTP\TEAM CENTER\TEMPLATES\GRAPHICS\ConsultIFU.tif                                                                                                                                                                                                 
Z2BTLC01000                   500000000003226459300018800015704COOSTATE                      COOPRODUSWUSFRNPACKMEX        T:\MEDICAL\NA\RTP\TEAM CENTER\TEMPLATES\GRAPHICS\COOPRODUSwUSFRNPACKMEX.tif                                                                                                                                                                                     
Z2BTLC01000                   500000000003226459300018900015704GRAPHIC03                     Y                             T:\MEDICAL\NA\RTP\TEAM CENTER\TEMPLATES\GRAPHICS\DoNotUsePakDam.tif                                                                                                                                                                                             
Z2BTLC01000                   500000000003226459300019000015704ECREP                         Y                             T:\MEDICAL\NA\RTP\TEAM CENTER\TEMPLATES\GRAPHICS\EC Rep.tif                                                                                                                                                                                                     
Z2BTLC01000                   500000000003226459300019100015704ECREPADDRESS                  ATHLONE4LINE4                 T:\MEDICAL\NA\RTP\TEAM CENTER\TEMPLATES\GRAPHICS\Athlone4Line4.tif                                                                                                                                                                                              
Z2BTLC01000                   500000000003226459300019200015704EXPDATE                       Y                             T:\MEDICAL\NA\RTP\TEAM CENTER\TEMPLATES\GRAPHICS\Expiration Date.tif                                                                                                                                                                                            
Z2BTLC01000                   500000000003226459300019300015704LEVEL                         SALESUNIT                     Sales Unit                                                                                                                                                                                                                                                      
Z2BTLC01000                   500000000003226459300019400015704LOGO1                         TAUTOPCHOLCATH                T:\MEDICAL\NA\RTP\TEAM CENTER\TEMPLATES\GRAPHICS\TAUTOpCholCath.tif                                                                                                                                                                                             
Z2BTLC01000                   500000000003226459300019500015704LOGO2                         NO                            T:\MEDICAL\NA\RTP\TEAM CENTER\TEMPLATES\GRAPHICS\blank-01.tif                                                                                                                                                                                                   
Z2BTLC01000                   500000000003226459300019600015704LOTGRAPHIC                    Y                             T:\MEDICAL\NA\RTP\TEAM CENTER\TEMPLATES\GRAPHICS\Lot.tif                                                                                                                                                                                                        
Z2BTLC01000                   500000000003226459300019700015704STERILESTA                    NO                            T:\MEDICAL\NA\RTP\TEAM CENTER\TEMPLATES\GRAPHICS\blank-01.tif                                                                                                                                                                                                   
Z2BTLC01000                   500000000003226459300019800015704SIZE                          2.188 X 4.125                 2.188 X 4.125                                                                                                                                                                                                                                                   
Z2BTLC01000                   500000000003226459300019900015704GRAPHIC04                     Y                             T:\MEDICAL\NA\RTP\TEAM CENTER\TEMPLATES\GRAPHICS\singleuse.tif                                                                                                                                                                                                  
Z2BTLC01000                   500000000003226459300020000015704SERIAL                        N                             T:\MEDICAL\NA\RTP\TEAM CENTER\TEMPLATES\GRAPHICS\BLANK-01.TIF                                                                                                                                                                                                   
Z2BTLC01000                   500000000003226459300020100015704RXONLY                        Y                             T:\MEDICAL\NA\RTP\TEAM CENTER\TEMPLATES\GRAPHICS\RX Only.tif                                                                                                                                                                                                    
Z2BTLC01000                   500000000003226459300020200015704REFNUMBER                     Y                             T:\MEDICAL\NA\RTP\TEAM CENTER\TEMPLATES\GRAPHICS\REF.tif                                                                                                                                                                                                        
Z2BTLC01000                   500000000003226459300020300015704PATENTSTA                     NO                            T:\MEDICAL\NA\RTP\TEAM CENTER\TEMPLATES\GRAPHICS\blank-01.tif                                                                                                                                                                                                   
Z2BTLC01000                   500000000003226459300020400015704GRAPHIC05                     Y                             T:\MEDICAL\NA\RTP\TEAM CENTER\TEMPLATES\GRAPHICS\DoNotRe-sterilize.tif                                                                                                                                                                                          
Z2BTLC01000                   500000000003226459300020500015704MFGDATE                       N                             T:\MEDICAL\NA\RTP\TEAM CENTER\TEMPLATES\GRAPHICS\BLANK-01.TIF                                                                                                                                                                                                   
Z2BTLC01000                   500000000003226459300020600015704MANUFACTURER                  Y                             T:\MEDICAL\NA\RTP\TEAM CENTER\TEMPLATES\GRAPHICS\Manufacturer.tif                                                                                                                                                                                               
Z2BTLH01000                   500000000003226459300020700015603LBL024683         
Z2BTTX01000                   500000000003226459300020800020704GRUNE  ENMATERIAL  LBL024683                                                             Operative Cholangiogram##                                             * 
Z2BTTX01000                   500000000003226459300020900020704GRUNE  ENMATERIAL  LBL024683                                                             Catheter 4.5Fr (1.5mm) x 76cm##                                       / 
Z2BTTX01000                   500000000003226459300021000020704GRUNE  ENMATERIAL  LBL024683                                                             1 Catheter per Package##                                              / 
Z2BTTX01000                   500000000003226459300021100020704GRUNE  ENMATERIAL  LBL024683                                                             10 Packages per Sales Unit##                                          / 
Z2BTTX01000                   500000000003226459300021200020704GRUNE  ENMATERIAL  LBL024683                                                             10 Sales Units per Shipper##                                          / 
Z2BTLC01000                   500000000003226459300021300020704TFXLOGO                       Y                             T:\MEDICAL\NA\RTP\TEAM CENTER\TEMPLATES\GRAPHICS\TeleflexMedical.tif                                                                                                                                                                                            
Z2BTLC01000                   500000000003226459300021400020704REVISION                      R00                           R00                                                                                                                                                                                                                                                             
Z2BTLC01000                   500000000003226459300021500020704QUANTITY                      NO                            NO                                                                                                                                                                                                                                                              
Z2BTLC01000                   500000000003226459300021600020704REF                           N                             T:\MEDICAL\NA\RTP\TEAM CENTER\TEMPLATES\GRAPHICS\BLANK-01.TIF                                                                                                                                                                                                   
Z2BTLC01000                   500000000003226459300021700020704CAUTIONSTATE                  NO                            T:\MEDICAL\NA\RTP\TEAM CENTER\TEMPLATES\GRAPHICS\blank-01.tif                                                                                                                                                                                                   
Z2BTLC01000                   500000000003226459300021800020704LABELGRAPH1                   NO                            T:\MEDICAL\NA\RTP\TEAM CENTER\TEMPLATES\GRAPHICS\blank-01.tif                                                                                                                                                                                                   
Z2BTLC01000                   500000000003226459300021900020704LABELGRAPH2                   NO                            T:\MEDICAL\NA\RTP\TEAM CENTER\TEMPLATES\GRAPHICS\blank-01.tif                                                                                                                                                                                                   
Z2BTLC01000                   500000000003226459300022000020704FLGRAPHIC                     NO                            T:\MEDICAL\NA\RTP\TEAM CENTER\TEMPLATES\GRAPHICS\blank-01.tif                                                                                                                                                                                                   
Z2BTLC01000                   500000000003226459300022100020704KEEPAWAYHEAT                  N                             T:\MEDICAL\NA\RTP\TEAM CENTER\TEMPLATES\GRAPHICS\BLANK-01.TIF                                                                                                                                                                                                   
Z2BTLC01000                   500000000003226459300022200020704PHTDEHP                       N                             T:\MEDICAL\NA\RTP\TEAM CENTER\TEMPLATES\GRAPHICS\BLANK-01.TIF                                                                                                                                                                                                   
Z2BTLC01000                   500000000003226459300022300020704SIZELOGO                      N                             No                                                                                                                                                                                                                                                              
Z2BTLC01000                   500000000003226459300022400020704HIGHLOW                       NO                            T:\MEDICAL\NA\RTP\TEAM CENTER\TEMPLATES\GRAPHICS\blank-01.tif                                                                                                                                                                                                   
Z2BTLC01000                   500000000003226459300022500020704GS1                           NO                            T:\MEDICAL\NA\RTP\TEAM CENTER\TEMPLATES\GRAPHICS\blank-01.tif                                                                                                                                                                                                   
Z2BTLC01000                   500000000003226459300022600020704BARCODE1                      NO                            T:\MEDICAL\NA\RTP\TEAM CENTER\TEMPLATES\GRAPHICS\blank-01.TIF                                                                                                                                                                                                   
Z2BTLC01000                   500000000003226459300022700020704VERSION                       NO                            T:\MEDICAL\NA\RTP\TEAM CENTER\TEMPLATES\GRAPHICS\blank-01.tif                                                                                                                                                                                                   
Z2BTLC01000                   500000000003226459300022800020704DISTRIBUTEDBY                 NO                            T:\MEDICAL\NA\RTP\TEAM CENTER\TEMPLATES\GRAPHICS\blank-01.tif                                                                                                                                                                                                   
Z2BTLC01000                   500000000003226459300022900020704MANUFACTUREDBY                NO                            T:\MEDICAL\NA\RTP\TEAM CENTER\TEMPLATES\GRAPHICS\blank-01.tif                                                                                                                                                                                                   
Z2BTLC01000                   500000000003226459300023000020704LOGO3                         NO                            T:\MEDICAL\NA\RTP\TEAM CENTER\TEMPLATES\GRAPHICS\blank-01.tif                                                                                                                                                                                                   
Z2BTLC01000                   500000000003226459300023100020704LOGO4                         NO                            T:\MEDICAL\NA\RTP\TEAM CENTER\TEMPLATES\GRAPHICS\blank-01.tif                                                                                                                                                                                                   
Z2BTLC01000                   500000000003226459300023200020704LOGO5                         NO                            T:\MEDICAL\NA\RTP\TEAM CENTER\TEMPLATES\GRAPHICS\blank-01.tif                                                                                                                                                                                                   
Z2BTLC01000                   500000000003226459300023300020704LTNUMBER                      IPN029593                     IPN029593                                                                                                                                                                                                                                                       
Z2BTLC01000                   500000000003226459300023400020704LATEXSTATEMENT                NOTMADELATEX                  T:\MEDICAL\NA\RTP\TEAM CENTER\TEMPLATES\GRAPHICS\NotMadeLatex.tif                                                                                                                                                                                               
Z2BTLC01000                   500000000003226459300023500020704TEMPLATENUMBER                T002520                       T002520                                                                                                                                                                                                                                                         
Z2BTLC01000                   500000000003226459300023600020704BARCODETEXT                   34026704656371                34026704656371                                                                                                                                                                                                                                                  
Z2BTLC01000                   500000000003226459300023700020704STERILITYTYPE                 STERILEEO                     T:\MEDICAL\NA\RTP\TEAM CENTER\TEMPLATES\GRAPHICS\Sterile_EO.tif                                                                                                                                                                                                 
Z2BTLC01000                   500000000003226459300023800020704ADDRESS                       TFX4LINEADD7I                 T:\MEDICAL\NA\RTP\TEAM CENTER\TEMPLATES\GRAPHICS\TFX4LineAdd7i.tif                                                                                                                                                                                              
Z2BTLC01000                   500000000003226459300023900020704GRAPHIC01                     Y                             T:\MEDICAL\NA\RTP\TEAM CENTER\TEMPLATES\GRAPHICS\Caution.tif                                                                                                                                                                                                    
Z2BTLC01000                   500000000003226459300024000020704CE0120                        CE0120                        T:\MEDICAL\NA\RTP\TEAM CENTER\TEMPLATES\GRAPHICS\CE_0120_Below.tif                                                                                                                                                                                              
Z2BTLC01000                   500000000003226459300024100020704GRAPHIC02                     Y                             T:\MEDICAL\NA\RTP\TEAM CENTER\TEMPLATES\GRAPHICS\ConsultIFU.tif                                                                                                                                                                                                 
Z2BTLC01000                   500000000003226459300024200020704COOSTATE                      COOPRODUSWUSFRNPACKMEX        T:\MEDICAL\NA\RTP\TEAM CENTER\TEMPLATES\GRAPHICS\COOPRODUSwUSFRNPACKMEX.tif                                                                                                                                                                                     
Z2BTLC01000                   500000000003226459300024300020704GRAPHIC03                     Y                             T:\MEDICAL\NA\RTP\TEAM CENTER\TEMPLATES\GRAPHICS\DoNotUsePakDam.tif                                                                                                                                                                                             
Z2BTLC01000                   500000000003226459300024400020704ECREP                         Y                             T:\MEDICAL\NA\RTP\TEAM CENTER\TEMPLATES\GRAPHICS\EC Rep.tif                                                                                                                                                                                                     
Z2BTLC01000                   500000000003226459300024500020704ECREPADDRESS                  ATHLONE6LINE                  T:\MEDICAL\NA\RTP\TEAM CENTER\TEMPLATES\GRAPHICS\Athlone6line.tif                                                                                                                                                                                               
Z2BTLC01000                   500000000003226459300024600020704EXPDATE                       Y                             T:\MEDICAL\NA\RTP\TEAM CENTER\TEMPLATES\GRAPHICS\Expiration Date.tif                                                                                                                                                                                            
Z2BTLC01000                   500000000003226459300024700020704LEVEL                         NO                            No                                                                                                                                                                                                                                                              
Z2BTLC01000                   500000000003226459300024800020704LOGO1                         TAUTLOGO                      T:\MEDICAL\NA\RTP\TEAM CENTER\TEMPLATES\GRAPHICS\Tautlogo.tif                                                                                                                                                                                                   
Z2BTLC01000                   500000000003226459300024900020704LOGO2                         NO                            T:\MEDICAL\NA\RTP\TEAM CENTER\TEMPLATES\GRAPHICS\blank-01.tif                                                                                                                                                                                                   
Z2BTLC01000                   500000000003226459300025000020704LOTGRAPHIC                    Y                             T:\MEDICAL\NA\RTP\TEAM CENTER\TEMPLATES\GRAPHICS\Lot.tif                                                                                                                                                                                                        
Z2BTLC01000                   500000000003226459300025100020704STERILESTA                    NO                            T:\MEDICAL\NA\RTP\TEAM CENTER\TEMPLATES\GRAPHICS\blank-01.tif                                                                                                                                                                                                   
Z2BTLC01000                   500000000003226459300025200020704SIZE                          4 X 2.938                     4 X 2.938                                                                                                                                                                                                                                                       
Z2BTLC01000                   500000000003226459300025300020704GRAPHIC04                     Y                             T:\MEDICAL\NA\RTP\TEAM CENTER\TEMPLATES\GRAPHICS\singleuse.tif                                                                                                                                                                                                  
Z2BTLC01000                   500000000003226459300025400020704SERIAL                        N                             T:\MEDICAL\NA\RTP\TEAM CENTER\TEMPLATES\GRAPHICS\BLANK-01.TIF                                                                                                                                                                                                   
Z2BTLC01000                   500000000003226459300025500020704RXONLY                        Y                             T:\MEDICAL\NA\RTP\TEAM CENTER\TEMPLATES\GRAPHICS\RX Only.tif                                                                                                                                                                                                    
Z2BTLC01000                   500000000003226459300025600020704REFNUMBER                     Y                             T:\MEDICAL\NA\RTP\TEAM CENTER\TEMPLATES\GRAPHICS\REF.tif                                                                                                                                                                                                        
Z2BTLC01000                   500000000003226459300025700020704PATENTSTA                     NO                            T:\MEDICAL\NA\RTP\TEAM CENTER\TEMPLATES\GRAPHICS\blank-01.tif                                                                                                                                                                                                   
Z2BTLC01000                   500000000003226459300025800020704GRAPHIC05                     Y                             T:\MEDICAL\NA\RTP\TEAM CENTER\TEMPLATES\GRAPHICS\DoNotRe-sterilize.tif                                                                                                                                                                                          
Z2BTLC01000                   500000000003226459300025900020704MFGDATE                       N                             T:\MEDICAL\NA\RTP\TEAM CENTER\TEMPLATES\GRAPHICS\BLANK-01.TIF                                                                                                                                                                                                   
Z2BTLC01000                   500000000003226459300026000020704MANUFACTURER                  Y                             T:\MEDICAL\NA\RTP\TEAM CENTER\TEMPLATES\GRAPHICS\Manufacturer.tif                                                                                                                                                                                               
Z2BTLH01000                   500000000003226459300026100015603LBL024688         
Z2BTTX01000                   500000000003226459300026200026104GRUNE  ENMATERIAL  LBL024688                                                             SIZE: 4.5Fr (1.5mm) x 76cm                                            * 
Z2BTLC01000                   500000000003226459300026300026104TFXLOGO                       Y                             T:\MEDICAL\NA\RTP\TEAM CENTER\TEMPLATES\GRAPHICS\TeleflexMedical.tif                                                                                                                                                                                            
Z2BTLC01000                   500000000003226459300026400026104REVISION                      R00                           R00                                                                                                                                                                                                                                                             
Z2BTLC01000                   500000000003226459300026500026104QUANTITY                      1                             1                                                                                                                                                                                                                                                               
Z2BTLC01000                   500000000003226459300026600026104REF                           N                             T:\MEDICAL\NA\RTP\TEAM CENTER\TEMPLATES\GRAPHICS\BLANK-01.TIF                                                                                                                                                                                                   
Z2BTLC01000                   500000000003226459300026700026104CAUTIONSTATE                  NO                            T:\MEDICAL\NA\RTP\TEAM CENTER\TEMPLATES\GRAPHICS\blank-01.tif                                                                                                                                                                                                   
Z2BTLC01000                   500000000003226459300026800026104LABELGRAPH1                   NO                            T:\MEDICAL\NA\RTP\TEAM CENTER\TEMPLATES\GRAPHICS\blank-01.tif                                                                                                                                                                                                   
Z2BTLC01000                   500000000003226459300026900026104LABELGRAPH2                   NO                            T:\MEDICAL\NA\RTP\TEAM CENTER\TEMPLATES\GRAPHICS\blank-01.tif                                                                                                                                                                                                   
Z2BTLC01000                   500000000003226459300027000026104FLGRAPHIC                     LBL000020FL                   T:\MEDICAL\NA\RTP\TEAM CENTER\TEMPLATES\GRAPHICS\LBL000020FL.tif                                                                                                                                                                                                
Z2BTLC01000                   500000000003226459300027100026104KEEPAWAYHEAT                  Y                             T:\MEDICAL\NA\RTP\TEAM CENTER\TEMPLATES\GRAPHICS\KeepAwayHeat.tif                                                                                                                                                                                               
Z2BTLC01000                   500000000003226459300027200026104PHTDEHP                       N                             T:\MEDICAL\NA\RTP\TEAM CENTER\TEMPLATES\GRAPHICS\BLANK-01.TIF                                                                                                                                                                                                   
Z2BTLC01000                   500000000003226459300027300026104SIZELOGO                      N                             No                                                                                                                                                                                                                                                              
