EDI_DC40  5000000000002541435740 3012  Z1BTDOC                                                     ZSC_BTEND                                        SAPMEP    LS  MEPCLNT500                                                                                           I041      US  BARTENDER                                                                                            20190815171634                                                                                                                Material_EN         
Z2BTMH01000                   5000000000002541435000001000000021635              
Z2BTLH01000                   500000000000254143500000200000103LBL008156         
Z2BTLC01000                   500000000000254143500000300000204TEMPLATENUMBER                T001899                       T001899                                                                                                                                                                                                                                                        
Z2BTLC01000                   500000000000254143500000400000204REVISION                      R00                           R00                                                                                                                                                                                                                                                            
Z2BTLC01000                   500000000000254143500000500000204SIZE                          3.25 x 4 (front, back)        3.25 x 4 (front, back)                                                                                                                                                                                                                                         
Z2BTLC01000                   500000000000254143500000600000204LEVEL                         EACH                          Each Unit                                                                                                                                                                                                                                                      
Z2BTLC01000                   500000000000254143500000700000204QUANTITY                      1                             1                                                                                                                                                                                                                                                              
Z2BTLC01000                   500000000000254143500000800000204BARCODETEXT                   14026704594938                14026704594938                                                                                                                                                                                                                                                 
Z2BTLC01000                   500000000000254143500000900000204LTNUMBER                      IPN042671                     IPN042671                                                                                                                                                                                                                                                      
Z2BTLC01000                   500000000000254143500001000000204GRAPHIC01                     Y                             T:\MEDICAL\NA\RTP\TEAM CENTER\TEMPLATES\GRAPHICS\Non-sterile.tif                                                                                                                                                                                               
Z2BTLC01000                   500000000000254143500001100000204ECREP                         N                             T:\MEDICAL\NA\RTP\TEAM CENTER\TEMPLATES\GRAPHICS\blank-01.tif                                                                                                                                                                                                  
Z2BTLC01000                   500000000000254143500001200000204EXPDATE                       N                             T:\MEDICAL\NA\RTP\TEAM CENTER\TEMPLATES\GRAPHICS\blank-01.tif                                                                                                                                                                                                  
Z2BTLC01000                   500000000000254143500001300000204KEEPAWAYHEAT                  N                             T:\MEDICAL\NA\RTP\TEAM CENTER\TEMPLATES\GRAPHICS\blank-01.tif                                                                                                                                                                                                  
Z2BTLC01000                   500000000000254143500001400000204LOTGRAPHIC                    Y                             T:\MEDICAL\NA\RTP\TEAM CENTER\TEMPLATES\GRAPHICS\Lot.tif                                                                                                                                                                                                       
Z2BTLC01000                   500000000000254143500001500000204MANUFACTURER                  Y                             T:\MEDICAL\NA\RTP\TEAM CENTER\TEMPLATES\GRAPHICS\Manufacturer.tif                                                                                                                                                                                              
Z2BTLC01000                   500000000000254143500001600000204MFGDATE                       Y                             T:\MEDICAL\NA\RTP\TEAM CENTER\TEMPLATES\GRAPHICS\DateofManufacture.tif                                                                                                                                                                                         
Z2BTLC01000                   500000000000254143500001700000204PHTDEHP                       N                             T:\MEDICAL\NA\RTP\TEAM CENTER\TEMPLATES\GRAPHICS\blank-01.tif                                                                                                                                                                                                  
Z2BTLC01000                   500000000000254143500001800000204REFNUMBER                     Y                             T:\MEDICAL\NA\RTP\TEAM CENTER\TEMPLATES\GRAPHICS\REF.tif                                                                                                                                                                                                       
Z2BTLC01000                   500000000000254143500001900000204REF                           N                             T:\MEDICAL\NA\RTP\TEAM CENTER\TEMPLATES\GRAPHICS\blank-01.tif                                                                                                                                                                                                  
Z2BTLC01000                   500000000000254143500002000000204RXONLY                        Y                             T:\MEDICAL\NA\RTP\TEAM CENTER\TEMPLATES\GRAPHICS\RX Only.tif                                                                                                                                                                                                   
Z2BTLC01000                   500000000000254143500002100000204TFXLOGO                       Y                             T:\MEDICAL\NA\RTP\TEAM CENTER\TEMPLATES\GRAPHICS\TeleflexMedical.tif                                                                                                                                                                                           
Z2BTLC01000                   500000000000254143500002200000204SIZELOGO                      N                             T:\MEDICAL\NA\RTP\TEAM CENTER\TEMPLATES\GRAPHICS\No                                                                                                                                                                                                            
Z2BTLC01000                   500000000000254143500002300000204ADDRESS                       TFX4LineAdd3i                 T:\MEDICAL\NA\RTP\TEAM CENTER\TEMPLATES\GRAPHICS\TFX4LineAdd3i.tif                                                                                                                                                                                             
Z2BTLC01000                   500000000000254143500002400000204CE0120                        N                             T:\MEDICAL\NA\RTP\TEAM CENTER\TEMPLATES\GRAPHICS\blank-01.tif                                                                                                                                                                                                  
Z2BTLC01000                   500000000000254143500002500000204COOSTATE                      COOProdUSPackMex              T:\MEDICAL\NA\RTP\TEAM CENTER\TEMPLATES\GRAPHICS\COOProdUSPackMex.tif                                                                                                                                                                                          
Z2BTLC01000                   500000000000254143500002600000204ECREPADDRESS                  N                             T:\MEDICAL\NA\RTP\TEAM CENTER\TEMPLATES\GRAPHICS\blank-01.tif                                                                                                                                                                                                  
Z2BTLC01000                   500000000000254143500002700000204FLGRAPHIC                     N                             T:\MEDICAL\NA\RTP\TEAM CENTER\TEMPLATES\GRAPHICS\blank-01.tif                                                                                                                                                                                                  
Z2BTLC01000                   500000000000254143500002800000204LABELGRAPH1                   LBL008156_1                   T:\MEDICAL\NA\RTP\TEAM CENTER\TEMPLATES\GRAPHICS\LBL008156_1.tif                                                                                                                                                                                               
Z2BTLC01000                   500000000000254143500002900000204LABELGRAPH2                   LBL008156_2                   T:\MEDICAL\NA\RTP\TEAM CENTER\TEMPLATES\GRAPHICS\LBL008156_2.tif                                                                                                                                                                                               
Z2BTLC01000                   500000000000254143500003000000204LATEXSTATEMENT                NotMadeLatex                  T:\MEDICAL\NA\RTP\TEAM CENTER\TEMPLATES\GRAPHICS\NotMadeLatex.tif                                                                                                                                                                                              
Z2BTLC01000                   500000000000254143500003100000204LOGO1                         HUDSONRCI                     T:\MEDICAL\NA\RTP\TEAM CENTER\TEMPLATES\GRAPHICS\HUDSONRCI.tif                                                                                                                                                                                                 
Z2BTLC01000                   500000000000254143500003200000204LOGO2                         SinglePatienUse2              T:\MEDICAL\NA\RTP\TEAM CENTER\TEMPLATES\GRAPHICS\SinglePatienUse2.tif                                                                                                                                                                                          
Z2BTLC01000                   500000000000254143500003300000204LOGO3                         HudsonTradeMark5              T:\MEDICAL\NA\RTP\TEAM CENTER\TEMPLATES\GRAPHICS\HudsonTradeMark5.tif                                                                                                                                                                                          
Z2BTLC01000                   500000000000254143500003400000204STERILITYTYPE                 N                             T:\MEDICAL\NA\RTP\TEAM CENTER\TEMPLATES\GRAPHICS\blank-01.tif                                                                                                                                                                                                  
Z2BTLC01000                   500000000000254143500003500000204TEMPRANGE                     N                             T:\MEDICAL\NA\RTP\TEAM CENTER\TEMPLATES\GRAPHICS\blank-01.tif                                                                                                                                                                                                  
Z2BTLH01000                   500000000000254143500003600000103LBL008157         
Z2BTTX01000                   500000000000254143500003700003604GRUNE  ENMATERIAL  LBL008157                                                             Disposable Thermometer                                                    *
Z2BTLC01000                   500000000000254143500003800003604TEMPLATENUMBER                T001903                       T001903                                                                                                                                                                                                                                                        
Z2BTLC01000                   500000000000254143500003900003604REVISION                      R00                           R00                                                                                                                                                                                                                                                            
Z2BTLC01000                   500000000000254143500004000003604SIZE                          6.125 x 3.625                 6.125 x 3.625                                                                                                                                                                                                                                                  
Z2BTLC01000                   500000000000254143500004100003604LEVEL                         SALES UNIT                    SALES UNIT                                                                                                                                                                                                                                                     
Z2BTLC01000                   500000000000254143500004200003604QUANTITY                      50                            50                                                                                                                                                                                                                                                             
Z2BTLC01000                   500000000000254143500004300003604BARCODETEXT                   34026704594932                34026704594932                                                                                                                                                                                                                                                 
Z2BTLC01000                   500000000000254143500004400003604LTNUMBER                      IPN042671                     IPN042671                                                                                                                                                                                                                                                      
Z2BTLC01000                   500000000000254143500004500003604GRAPHIC01                     Y                             T:\MEDICAL\NA\RTP\TEAM CENTER\TEMPLATES\GRAPHICS\Caution.tif                                                                                                                                                                                                   
Z2BTLC01000                   500000000000254143500004600003604GRAPHIC02                     Y                             T:\MEDICAL\NA\RTP\TEAM CENTER\TEMPLATES\GRAPHICS\ConsultIFU.tif                                                                                                                                                                                                
Z2BTLC01000                   500000000000254143500004700003604GRAPHIC03                     Y                             T:\MEDICAL\NA\RTP\TEAM CENTER\TEMPLATES\GRAPHICS\Non-sterile.tif                                                                                                                                                                                               
Z2BTLC01000                   500000000000254143500004800003604GRAPHIC04                     Y                             T:\MEDICAL\NA\RTP\TEAM CENTER\TEMPLATES\GRAPHICS\SINGLEPATIENUSE.tif                                                                                                                                                                                           
Z2BTLC01000                   500000000000254143500004900003604ECREP                         N                             T:\MEDICAL\NA\RTP\TEAM CENTER\TEMPLATES\GRAPHICS\blank-01.tif                                                                                                                                                                                                  
Z2BTLC01000                   500000000000254143500005000003604EXPDATE                       N                             T:\MEDICAL\NA\RTP\TEAM CENTER\TEMPLATES\GRAPHICS\blank-01.tif                                                                                                                                                                                                  
Z2BTLC01000                   500000000000254143500005100003604KEEPAWAYHEAT                  N                             T:\MEDICAL\NA\RTP\TEAM CENTER\TEMPLATES\GRAPHICS\blank-01.tif                                                                                                                                                                                                  
Z2BTLC01000                   500000000000254143500005200003604LOTGRAPHIC                    Y                             T:\MEDICAL\NA\RTP\TEAM CENTER\TEMPLATES\GRAPHICS\Lot.tif                                                                                                                                                                                                       
Z2BTLC01000                   500000000000254143500005300003604MANUFACTURER                  Y                             T:\MEDICAL\NA\RTP\TEAM CENTER\TEMPLATES\GRAPHICS\Manufacturer.tif                                                                                                                                                                                              
Z2BTLC01000                   500000000000254143500005400003604MFGDATE                       Y                             T:\MEDICAL\NA\RTP\TEAM CENTER\TEMPLATES\GRAPHICS\DateofManufacture.tif                                                                                                                                                                                         
Z2BTLC01000                   500000000000254143500005500003604PHTDEHP                       N                             T:\MEDICAL\NA\RTP\TEAM CENTER\TEMPLATES\GRAPHICS\blank-01.tif                                                                                                                                                                                                  
Z2BTLC01000                   500000000000254143500005600003604REFNUMBER                     N                             T:\MEDICAL\NA\RTP\TEAM CENTER\TEMPLATES\GRAPHICS\blank-01.tif                                                                                                                                                                                                  
Z2BTLC01000                   500000000000254143500005700003604REF                           N                             T:\MEDICAL\NA\RTP\TEAM CENTER\TEMPLATES\GRAPHICS\blank-01.tif                                                                                                                                                                                                  
Z2BTLC01000                   500000000000254143500005800003604RXONLY                        Y                             T:\MEDICAL\NA\RTP\TEAM CENTER\TEMPLATES\GRAPHICS\RX Only.tif                                                                                                                                                                                                   
Z2BTLC01000                   500000000000254143500005900003604TFXLOGO                       Y                             T:\MEDICAL\NA\RTP\TEAM CENTER\TEMPLATES\GRAPHICS\TeleflexMedical.tif                                                                                                                                                                                           
Z2BTLC01000                   500000000000254143500006000003604SIZELOGO                      N                             T:\MEDICAL\NA\RTP\TEAM CENTER\TEMPLATES\GRAPHICS\No                                                                                                                                                                                                            
Z2BTLC01000                   500000000000254143500006100003604ADDRESS                       TFX4LineAdd3                  T:\MEDICAL\NA\RTP\TEAM CENTER\TEMPLATES\GRAPHICS\TFX4LineAdd3.tif                                                                                                                                                                                              
Z2BTLC01000                   500000000000254143500006200003604CE0120                        N                             T:\MEDICAL\NA\RTP\TEAM CENTER\TEMPLATES\GRAPHICS\blank-01.tif                                                                                                                                                                                                  
Z2BTLC01000                   500000000000254143500006300003604COOSTATE                      COOProdUSPackMex              T:\MEDICAL\NA\RTP\TEAM CENTER\TEMPLATES\GRAPHICS\COOProdUSPackMex.tif                                                                                                                                                                                          
Z2BTLC01000                   500000000000254143500006400003604ECREPADDRESS                  N                             T:\MEDICAL\NA\RTP\TEAM CENTER\TEMPLATES\GRAPHICS\blank-01.tif                                                                                                                                                                                                  
Z2BTLC01000                   500000000000254143500006500003604FLGRAPHIC                     N                             T:\MEDICAL\NA\RTP\TEAM CENTER\TEMPLATES\GRAPHICS\blank-01.tif                                                                                                                                                                                                  
Z2BTLC01000                   500000000000254143500006600003604LABELGRAPH1                   N                             T:\MEDICAL\NA\RTP\TEAM CENTER\TEMPLATES\GRAPHICS\blank-01.tif                                                                                                                                                                                                  
Z2BTLC01000                   500000000000254143500006700003604LABELGRAPH2                   N                             T:\MEDICAL\NA\RTP\TEAM CENTER\TEMPLATES\GRAPHICS\blank-01.tif                                                                                                                                                                                                  
Z2BTLC01000                   500000000000254143500006800003604LATEXSTATEMENT                NotMadeLatex                  T:\MEDICAL\NA\RTP\TEAM CENTER\TEMPLATES\GRAPHICS\NotMadeLatex.tif                                                                                                                                                                                              
Z2BTLC01000                   500000000000254143500006900003604LOGO1                         HUDSONRCI                     T:\MEDICAL\NA\RTP\TEAM CENTER\TEMPLATES\GRAPHICS\HUDSONRCI.tif                                                                                                                                                                                                 
Z2BTLC01000                   500000000000254143500007000003604LOGO2                         N                             T:\MEDICAL\NA\RTP\TEAM CENTER\TEMPLATES\GRAPHICS\blank-01.tif                                                                                                                                                                                                  
Z2BTLC01000                   500000000000254143500007100003604LOGO3                         N                             T:\MEDICAL\NA\RTP\TEAM CENTER\TEMPLATES\GRAPHICS\blank-01.tif                                                                                                                                                                                                  
Z2BTLC01000                   500000000000254143500007200003604STERILITYTYPE                 N                             T:\MEDICAL\NA\RTP\TEAM CENTER\TEMPLATES\GRAPHICS\blank-01.tif                                                                                                                                                                                                  
Z2BTLC01000                   500000000000254143500007300003604TEMPRANGE                     N                             T:\MEDICAL\NA\RTP\TEAM CENTER\TEMPLATES\GRAPHICS\blank-01.tif                                                                                                                                                                                                  
Z2BTMH01000                   5000000000002541435000074000073021637              
Z2BTLH01000                   500000000000254143500007500007403LBL008158         
Z2BTLC01000                   500000000000254143500007600007504TEMPLATENUMBER                T001899                       T001899                                                                                                                                                                                                                                                        
Z2BTLC01000                   500000000000254143500007700007504REVISION                      R00                           R00                                                                                                                                                                                                                                                            
Z2BTLC01000                   500000000000254143500007800007504SIZE                          3.25 x 4 (front, back)        3.25 x 4 (front, back)                                                                                                                                                                                                                                         
Z2BTLC01000                   500000000000254143500007900007504LEVEL                         EACH                          Each Unit                                                                                                                                                                                                                                                      
Z2BTLC01000                   500000000000254143500008000007504QUANTITY                      1                             1                                                                                                                                                                                                                                                              
Z2BTLC01000                   500000000000254143500008100007504BARCODETEXT                   14026704594945                14026704594945                                                                                                                                                                                                                                                 
Z2BTLC01000                   500000000000254143500008200007504LTNUMBER                      IPN042672                     IPN042672                                                                                                                                                                                                                                                      
Z2BTLC01000                   500000000000254143500008300007504GRAPHIC01                     Y                             T:\MEDICAL\NA\RTP\TEAM CENTER\TEMPLATES\GRAPHICS\Non-sterile.tif                                                                                                                                                                                               
Z2BTLC01000                   500000000000254143500008400007504ECREP                         N                             T:\MEDICAL\NA\RTP\TEAM CENTER\TEMPLATES\GRAPHICS\blank-01.tif                                                                                                                                                                                                  
Z2BTLC01000                   500000000000254143500008500007504EXPDATE                       N                             T:\MEDICAL\NA\RTP\TEAM CENTER\TEMPLATES\GRAPHICS\blank-01.tif                                                                                                                                                                                                  
Z2BTLC01000                   500000000000254143500008600007504KEEPAWAYHEAT                  N                             T:\MEDICAL\NA\RTP\TEAM CENTER\TEMPLATES\GRAPHICS\blank-01.tif                                                                                                                                                                                                  
Z2BTLC01000                   500000000000254143500008700007504LOTGRAPHIC                    Y                             T:\MEDICAL\NA\RTP\TEAM CENTER\TEMPLATES\GRAPHICS\Lot.tif                                                                                                                                                                                                       
Z2BTLC01000                   500000000000254143500008800007504MANUFACTURER                  Y                             T:\MEDICAL\NA\RTP\TEAM CENTER\TEMPLATES\GRAPHICS\Manufacturer.tif                                                                                                                                                                                              
Z2BTLC01000                   500000000000254143500008900007504MFGDATE                       Y                             T:\MEDICAL\NA\RTP\TEAM CENTER\TEMPLATES\GRAPHICS\DateofManufacture.tif                                                                                                                                                                                         
Z2BTLC01000                   500000000000254143500009000007504PHTDEHP                       N                             T:\MEDICAL\NA\RTP\TEAM CENTER\TEMPLATES\GRAPHICS\blank-01.tif                                                                                                                                                                                                  
Z2BTLC01000                   500000000000254143500009100007504REFNUMBER                     Y                             T:\MEDICAL\NA\RTP\TEAM CENTER\TEMPLATES\GRAPHICS\REF.tif                                                                                                                                                                                                       
Z2BTLC01000                   500000000000254143500009200007504REF                           N                             T:\MEDICAL\NA\RTP\TEAM CENTER\TEMPLATES\GRAPHICS\blank-01.tif                                                                                                                                                                                                  
Z2BTLC01000                   500000000000254143500009300007504RXONLY                        Y                             T:\MEDICAL\NA\RTP\TEAM CENTER\TEMPLATES\GRAPHICS\RX Only.tif                                                                                                                                                                                                   
Z2BTLC01000                   500000000000254143500009400007504TFXLOGO                       Y                             T:\MEDICAL\NA\RTP\TEAM CENTER\TEMPLATES\GRAPHICS\TeleflexMedical.tif                                                                                                                                                                                           
Z2BTLC01000                   500000000000254143500009500007504SIZELOGO                      N                             T:\MEDICAL\NA\RTP\TEAM CENTER\TEMPLATES\GRAPHICS\No                                                                                                                                                                                                            
Z2BTLC01000                   500000000000254143500009600007504ADDRESS                       TFX4LineAdd3i                 T:\MEDICAL\NA\RTP\TEAM CENTER\TEMPLATES\GRAPHICS\TFX4LineAdd3i.tif                                                                                                                                                                                             
Z2BTLC01000                   500000000000254143500009700007504CE0120                        N                             T:\MEDICAL\NA\RTP\TEAM CENTER\TEMPLATES\GRAPHICS\blank-01.tif                                                                                                                                                                                                  
Z2BTLC01000                   500000000000254143500009800007504COOSTATE                      COOProdUSPackMex              T:\MEDICAL\NA\RTP\TEAM CENTER\TEMPLATES\GRAPHICS\COOProdUSPackMex.tif                                                                                                                                                                                          
Z2BTLC01000                   500000000000254143500009900007504ECREPADDRESS                  N                             T:\MEDICAL\NA\RTP\TEAM CENTER\TEMPLATES\GRAPHICS\blank-01.tif                                                                                                                                                                                                  
Z2BTLC01000                   500000000000254143500010000007504FLGRAPHIC                     N                             T:\MEDICAL\NA\RTP\TEAM CENTER\TEMPLATES\GRAPHICS\blank-01.tif                                                                                                                                                                                                  
Z2BTLC01000                   500000000000254143500010100007504LABELGRAPH1                   LBL008158_1                   T:\MEDICAL\NA\RTP\TEAM CENTER\TEMPLATES\GRAPHICS\LBL008158_1.tif                                                                                                                                                                                               
Z2BTLC01000                   500000000000254143500010200007504LABELGRAPH2                   LBL008158_2                   T:\MEDICAL\NA\RTP\TEAM CENTER\TEMPLATES\GRAPHICS\LBL008158_2.tif                                                                                                                                                                                               
Z2BTLC01000                   500000000000254143500010300007504LATEXSTATEMENT                NotMadeLatex                  T:\MEDICAL\NA\RTP\TEAM CENTER\TEMPLATES\GRAPHICS\NotMadeLatex.tif                                                                                                                                                                                              
Z2BTLC01000                   500000000000254143500010400007504LOGO1                         HUDSONRCI                     T:\MEDICAL\NA\RTP\TEAM CENTER\TEMPLATES\GRAPHICS\HUDSONRCI.tif                                                                                                                                                                                                 
Z2BTLC01000                   500000000000254143500010500007504LOGO2                         SinglePatienUse2              T:\MEDICAL\NA\RTP\TEAM CENTER\TEMPLATES\GRAPHICS\SinglePatienUse2.tif                                                                                                                                                                                          
Z2BTLC01000                   500000000000254143500010600007504LOGO3                         HudsonTradeMark5              T:\MEDICAL\NA\RTP\TEAM CENTER\TEMPLATES\GRAPHICS\HudsonTradeMark5.tif                                                                                                                                                                                          
Z2BTLC01000                   500000000000254143500010700007504STERILITYTYPE                 N                             T:\MEDICAL\NA\RTP\TEAM CENTER\TEMPLATES\GRAPHICS\blank-01.tif                                                                                                                                                                                                  
Z2BTLC01000                   500000000000254143500010800007504TEMPRANGE                     N                             T:\MEDICAL\NA\RTP\TEAM CENTER\TEMPLATES\GRAPHICS\blank-01.tif                                                                                                                                                                                                  
Z2BTLH01000                   500000000000254143500010900007403LBL008159         
Z2BTTX01000                   500000000000254143500011000010904GRUNE  ENMATERIAL  LBL008159                                                             Disposable Thermometer##                                                  *
Z2BTTX01000                   500000000000254143500011100010904GRUNE  ENMATERIAL  LBL008159                                                             with Tee Adaptor                                                          /
Z2BTLC01000                   500000000000254143500011200010904TEMPLATENUMBER                T001903                       T001903                                                                                                                                                                                                                                                        
Z2BTLC01000                   500000000000254143500011300010904REVISION                      R00                           R00                                                                                                                                                                                                                                                            
Z2BTLC01000                   500000000000254143500011400010904SIZE                          6.125 x 3.625                 6.125 x 3.625                                                                                                                                                                                                                                                  
Z2BTLC01000                   500000000000254143500011500010904LEVEL                         SALES UNIT                    SALES UNIT                                                                                                                                                                                                                                                     
Z2BTLC01000                   500000000000254143500011600010904QUANTITY                      50                            50                                                                                                                                                                                                                                                             
Z2BTLC01000                   500000000000254143500011700010904BARCODETEXT                   34026704594949                34026704594949                                                                                                                                                                                                                                                 
Z2BTLC01000                   500000000000254143500011800010904LTNUMBER                      IPN042672                     IPN042672                                                                                                                                                                                                                                                      
Z2BTLC01000                   500000000000254143500011900010904GRAPHIC01                     Y                             T:\MEDICAL\NA\RTP\TEAM CENTER\TEMPLATES\GRAPHICS\Caution.tif                                                                                                                                                                                                   
Z2BTLC01000                   500000000000254143500012000010904GRAPHIC02                     Y                             T:\MEDICAL\NA\RTP\TEAM CENTER\TEMPLATES\GRAPHICS\ConsultIFU.tif                                                                                                                                                                                                
Z2BTLC01000                   500000000000254143500012100010904GRAPHIC03                     Y                             T:\MEDICAL\NA\RTP\TEAM CENTER\TEMPLATES\GRAPHICS\Non-sterile.tif                                                                                                                                                                                               
Z2BTLC01000                   500000000000254143500012200010904GRAPHIC04                     Y                             T:\MEDICAL\NA\RTP\TEAM CENTER\TEMPLATES\GRAPHICS\SINGLEPATIENUSE.tif                                                                                                                                                                                           
Z2BTLC01000                   500000000000254143500012300010904ECREP                         N                             T:\MEDICAL\NA\RTP\TEAM CENTER\TEMPLATES\GRAPHICS\blank-01.tif                                                                                                                                                                                                  
Z2BTLC01000                   500000000000254143500012400010904EXPDATE                       N                             T:\MEDICAL\NA\RTP\TEAM CENTER\TEMPLATES\GRAPHICS\blank-01.tif                                                                                                                                                                                                  
Z2BTLC01000                   500000000000254143500012500010904KEEPAWAYHEAT                  N                             T:\MEDICAL\NA\RTP\TEAM CENTER\TEMPLATES\GRAPHICS\blank-01.tif                                                                                                                                                                                                  
Z2BTLC01000                   500000000000254143500012600010904LOTGRAPHIC                    Y                             T:\MEDICAL\NA\RTP\TEAM CENTER\TEMPLATES\GRAPHICS\Lot.tif                                                                                                                                                                                                       
Z2BTLC01000                   500000000000254143500012700010904MANUFACTURER                  Y                             T:\MEDICAL\NA\RTP\TEAM CENTER\TEMPLATES\GRAPHICS\Manufacturer.tif                                                                                                                                                                                              
Z2BTLC01000                   500000000000254143500012800010904MFGDATE                       Y                             T:\MEDICAL\NA\RTP\TEAM CENTER\TEMPLATES\GRAPHICS\DateofManufacture.tif                                                                                                                                                                                         
Z2BTLC01000                   500000000000254143500012900010904PHTDEHP                       N                             T:\MEDICAL\NA\RTP\TEAM CENTER\TEMPLATES\GRAPHICS\blank-01.tif                                                                                                                                                                                                  
Z2BTLC01000                   500000000000254143500013000010904REFNUMBER                     N                             T:\MEDICAL\NA\RTP\TEAM CENTER\TEMPLATES\GRAPHICS\blank-01.tif                                                                                                                                                                                                  
Z2BTLC01000                   500000000000254143500013100010904REF                           N                             T:\MEDICAL\NA\RTP\TEAM CENTER\TEMPLATES\GRAPHICS\blank-01.tif                                                                                                                                                                                                  
Z2BTLC01000                   500000000000254143500013200010904RXONLY                        Y                             T:\MEDICAL\NA\RTP\TEAM CENTER\TEMPLATES\GRAPHICS\RX Only.tif                                                                                                                                                                                                   
Z2BTLC01000                   500000000000254143500013300010904TFXLOGO                       Y                             T:\MEDICAL\NA\RTP\TEAM CENTER\TEMPLATES\GRAPHICS\TeleflexMedical.tif                                                                                                                                                                                           
Z2BTLC01000                   500000000000254143500013400010904SIZELOGO                      N                             T:\MEDICAL\NA\RTP\TEAM CENTER\TEMPLATES\GRAPHICS\No                                                                                                                                                                                                            
Z2BTLC01000                   500000000000254143500013500010904ADDRESS                       TFX4LineAdd3                  T:\MEDICAL\NA\RTP\TEAM CENTER\TEMPLATES\GRAPHICS\TFX4LineAdd3.tif                                                                                                                                                                                              
Z2BTLC01000                   500000000000254143500013600010904CE0120                        N                             T:\MEDICAL\NA\RTP\TEAM CENTER\TEMPLATES\GRAPHICS\blank-01.tif                                                                                                                                                                                                  
Z2BTLC01000                   500000000000254143500013700010904COOSTATE                      COOProdUSPackMex              T:\MEDICAL\NA\RTP\TEAM CENTER\TEMPLATES\GRAPHICS\COOProdUSPackMex.tif                                                                                                                                                                                          
Z2BTLC01000                   500000000000254143500013800010904ECREPADDRESS                  N                             T:\MEDICAL\NA\RTP\TEAM CENTER\TEMPLATES\GRAPHICS\blank-01.tif                                                                                                                                                                                                  
Z2BTLC01000                   500000000000254143500013900010904FLGRAPHIC                     N                             T:\MEDICAL\NA\RTP\TEAM CENTER\TEMPLATES\GRAPHICS\blank-01.tif                                                                                                                                                                                                  
Z2BTLC01000                   500000000000254143500014000010904LABELGRAPH1                   N                             T:\MEDICAL\NA\RTP\TEAM CENTER\TEMPLATES\GRAPHICS\blank-01.tif                                                                                                                                                                                                  
Z2BTLC01000                   500000000000254143500014100010904LABELGRAPH2                   N                             T:\MEDICAL\NA\RTP\TEAM CENTER\TEMPLATES\GRAPHICS\blank-01.tif                                                                                                                                                                                                  
Z2BTLC01000                   500000000000254143500014200010904LATEXSTATEMENT                N                             T:\MEDICAL\NA\RTP\TEAM CENTER\TEMPLATES\GRAPHICS\blank-01.tif                                                                                                                                                                                                  
Z2BTLC01000                   500000000000254143500014300010904LOGO1                         HUDSONRCI                     T:\MEDICAL\NA\RTP\TEAM CENTER\TEMPLATES\GRAPHICS\HUDSONRCI.tif                                                                                                                                                                                                 
Z2BTLC01000                   500000000000254143500014400010904LOGO2                         N                             T:\MEDICAL\NA\RTP\TEAM CENTER\TEMPLATES\GRAPHICS\blank-01.tif                                                                                                                                                                                                  
Z2BTLC01000                   500000000000254143500014500010904LOGO3                         N                             T:\MEDICAL\NA\RTP\TEAM CENTER\TEMPLATES\GRAPHICS\blank-01.tif                                                                                                                                                                                                  
Z2BTLC01000                   500000000000254143500014600010904STERILITYTYPE                 N                             T:\MEDICAL\NA\RTP\TEAM CENTER\TEMPLATES\GRAPHICS\blank-01.tif                                                                                                                                                                                                  
Z2BTLC01000                   500000000000254143500014700010904TEMPRANGE                     N                             T:\MEDICAL\NA\RTP\TEAM CENTER\TEMPLATES\GRAPHICS\blank-01.tif                                                                                                                                                                                                  
Z2BTMH01000                   5000000000002541435000148000147021640              
Z2BTLH01000                   500000000000254143500014900014803LBL008164         
Z2BTLC01000                   500000000000254143500015000014904TEMPLATENUMBER                LBL008164                     LBL008164                                                                                                                                                                                                                                                      
Z2BTLC01000                   500000000000254143500015100014904REVISION                      R00                           R00                                                                                                                                                                                                                                                            
Z2BTLC01000                   500000000000254143500015200014904SIZE                          3.25 x 4                      3.25 x 4                                                                                                                                                                                                                                                       
Z2BTLC01000                   500000000000254143500015300014904LEVEL                         EACH                          Each Unit                                                                                                                                                                                                                                                      
Z2BTLC01000                   500000000000254143500015400014904QUANTITY                      1                             1                                                                                                                                                                                                                                                              
Z2BTLC01000                   500000000000254143500015500014904BARCODETEXT                   14026704594976                14026704594976                                                                                                                                                                                                                                                 
Z2BTLC01000                   500000000000254143500015600014904LTNUMBER                      IPN042675                     IPN042675                                                                                                                                                                                                                                                      
Z2BTLC01000                   500000000000254143500015700014904GRAPHIC01                     Y                             T:\MEDICAL\NA\RTP\TEAM CENTER\TEMPLATES\GRAPHICS\Non-sterile.tif                                                                                                                                                                                               
Z2BTLC01000                   500000000000254143500015800014904ECREP                         N                             T:\MEDICAL\NA\RTP\TEAM CENTER\TEMPLATES\GRAPHICS\blank-01.tif                                                                                                                                                                                                  
Z2BTLC01000                   500000000000254143500015900014904EXPDATE                       N                             T:\MEDICAL\NA\RTP\TEAM CENTER\TEMPLATES\GRAPHICS\blank-01.tif                                                                                                                                                                                                  
Z2BTLC01000                   500000000000254143500016000014904KEEPAWAYHEAT                  N                             T:\MEDICAL\NA\RTP\TEAM CENTER\TEMPLATES\GRAPHICS\blank-01.tif                                                                                                                                                                                                  
Z2BTLC01000                   500000000000254143500016100014904LOTGRAPHIC                    Y                             T:\MEDICAL\NA\RTP\TEAM CENTER\TEMPLATES\GRAPHICS\Lot.tif                                                                                                                                                                                                       
Z2BTLC01000                   500000000000254143500016200014904MANUFACTURER                  Y                             T:\MEDICAL\NA\RTP\TEAM CENTER\TEMPLATES\GRAPHICS\Manufacturer.tif                                                                                                                                                                                              
Z2BTLC01000                   500000000000254143500016300014904MFGDATE                       Y                             T:\MEDICAL\NA\RTP\TEAM CENTER\TEMPLATES\GRAPHICS\DateofManufacture.tif                                                                                                                                                                                         
Z2BTLC01000                   500000000000254143500016400014904PHTDEHP                       N                             T:\MEDICAL\NA\RTP\TEAM CENTER\TEMPLATES\GRAPHICS\blank-01.tif                                                                                                                                                                                                  
Z2BTLC01000                   500000000000254143500016500014904REFNUMBER                     Y                             T:\MEDICAL\NA\RTP\TEAM CENTER\TEMPLATES\GRAPHICS\REF.tif                                                                                                                                                                                                       
Z2BTLC01000                   500000000000254143500016600014904REF                           N                             T:\MEDICAL\NA\RTP\TEAM CENTER\TEMPLATES\GRAPHICS\blank-01.tif                                                                                                                                                                                                  
Z2BTLC01000                   500000000000254143500016700014904RXONLY                        Y                             T:\MEDICAL\NA\RTP\TEAM CENTER\TEMPLATES\GRAPHICS\RX Only.tif                                                                                                                                                                                                   
Z2BTLC01000                   500000000000254143500016800014904TFXLOGO                       Y                             T:\MEDICAL\NA\RTP\TEAM CENTER\TEMPLATES\GRAPHICS\TeleflexMedical.tif                                                                                                                                                                                           
Z2BTLC01000                   500000000000254143500016900014904SIZELOGO                      N                             T:\MEDICAL\NA\RTP\TEAM CENTER\TEMPLATES\GRAPHICS\No                                                                                                                                                                                                            
Z2BTLC01000                   500000000000254143500017000014904ADDRESS                       TFX4LineAdd3i                 T:\MEDICAL\NA\RTP\TEAM CENTER\TEMPLATES\GRAPHICS\TFX4LineAdd3i.tif                                                                                                                                                                                             
Z2BTLC01000                   500000000000254143500017100014904CE0120                        N                             T:\MEDICAL\NA\RTP\TEAM CENTER\TEMPLATES\GRAPHICS\blank-01.tif                                                                                                                                                                                                  
Z2BTLC01000                   500000000000254143500017200014904COOSTATE                      COOAssmMexUSForeign           T:\MEDICAL\NA\RTP\TEAM CENTER\TEMPLATES\GRAPHICS\COOAssmMexUSForeign.tif                                                                                                                                                                                       
Z2BTLC01000                   500000000000254143500017300014904ECREPADDRESS                  N                             T:\MEDICAL\NA\RTP\TEAM CENTER\TEMPLATES\GRAPHICS\blank-01.tif                                                                                                                                                                                                  
Z2BTLC01000                   500000000000254143500017400014904FLGRAPHIC                     N                             T:\MEDICAL\NA\RTP\TEAM CENTER\TEMPLATES\GRAPHICS\blank-01.tif                                                                                                                                                                                                  
Z2BTLC01000                   500000000000254143500017500014904LABELGRAPH1                   LBL008164                     T:\MEDICAL\NA\RTP\TEAM CENTER\TEMPLATES\GRAPHICS\LBL008164.tif                                                                                                                                                                                                 
Z2BTLC01000                   500000000000254143500017600014904LABELGRAPH2                   HudsonCR_07-11-16             T:\MEDICAL\NA\RTP\TEAM CENTER\TEMPLATES\GRAPHICS\HudsonCR_07-11-16.tif                                                                                                                                                                                         
Z2BTLC01000                   500000000000254143500017700014904LATEXSTATEMENT                NotMadeLatex                  T:\MEDICAL\NA\RTP\TEAM CENTER\TEMPLATES\GRAPHICS\NotMadeLatex.tif                                                                                                                                                                                              
Z2BTLC01000                   500000000000254143500017800014904LOGO1                         HUDSONRCI                     T:\MEDICAL\NA\RTP\TEAM CENTER\TEMPLATES\GRAPHICS\HUDSONRCI.tif                                                                                                                                                                                                 
Z2BTLC01000                   500000000000254143500017900014904LOGO2                         SinglePatienUse2              T:\MEDICAL\NA\RTP\TEAM CENTER\TEMPLATES\GRAPHICS\SinglePatienUse2.tif                                                                                                                                                                                          
Z2BTLC01000                   500000000000254143500018000014904LOGO3                         HudsonTradeMark3              T:\MEDICAL\NA\RTP\TEAM CENTER\TEMPLATES\GRAPHICS\HudsonTradeMark3.tif                                                                                                                                                                                          
Z2BTLC01000                   500000000000254143500018100014904STERILITYTYPE                 N                             T:\MEDICAL\NA\RTP\TEAM CENTER\TEMPLATES\GRAPHICS\blank-01.tif                                                                                                                                                                                                  
Z2BTLC01000                   500000000000254143500018200014904TEMPRANGE                     N                             T:\MEDICAL\NA\RTP\TEAM CENTER\TEMPLATES\GRAPHICS\blank-01.tif                                                                                                                                                                                                  
Z2BTLH01000                   500000000000254143500018300014803LBL008165         
Z2BTTX01000                   500000000000254143500018400018304GRUNE  ENMATERIAL  LBL008165                                                             Tubing Adaptor##                                                          *
Z2BTTX01000                   500000000000254143500018500018304GRUNE  ENMATERIAL  LBL008165                                                             22mm I.D. x 22mm O.D.                                                     /
Z2BTLC01000                   500000000000254143500018600018304TEMPLATENUMBER                T001903                       T001903                                                                                                                                                                                                                                                        
Z2BTLC01000                   500000000000254143500018700018304REVISION                      R00                           R00                                                                                                                                                                                                                                                            
Z2BTLC01000                   500000000000254143500018800018304SIZE                          6.125 x 3.625                 6.125 x 3.625                                                                                                                                                                                                                                                  
Z2BTLC01000                   500000000000254143500018900018304LEVEL                         SALES UNIT                    SALES UNIT                                                                                                                                                                                                                                                     
Z2BTLC01000                   500000000000254143500019000018304QUANTITY                      50                            50                                                                                                                                                                                                                                                             
Z2BTLC01000                   500000000000254143500019100018304BARCODETEXT                   34026704594970                34026704594970                                                                                                                                                                                                                                                 
Z2BTLC01000                   500000000000254143500019200018304LTNUMBER                      IPN042675                     IPN042675                                                                                                                                                                                                                                                      
Z2BTLC01000                   500000000000254143500019300018304GRAPHIC01                     Y                             T:\MEDICAL\NA\RTP\TEAM CENTER\TEMPLATES\GRAPHICS\Non-sterile.tif                                                                                                                                                                                               
Z2BTLC01000                   500000000000254143500019400018304GRAPHIC02                     Y                             T:\MEDICAL\NA\RTP\TEAM CENTER\TEMPLATES\GRAPHICS\SINGLEPATIENUSE.tif                                                                                                                                                                                           
Z2BTLC01000                   500000000000254143500019500018304ECREP                         N                             T:\MEDICAL\NA\RTP\TEAM CENTER\TEMPLATES\GRAPHICS\blank-01.tif                                                                                                                                                                                                  
Z2BTLC01000                   500000000000254143500019600018304EXPDATE                       N                             T:\MEDICAL\NA\RTP\TEAM CENTER\TEMPLATES\GRAPHICS\blank-01.tif                                                                                                                                                                                                  
Z2BTLC01000                   500000000000254143500019700018304KEEPAWAYHEAT                  N                             T:\MEDICAL\NA\RTP\TEAM CENTER\TEMPLATES\GRAPHICS\blank-01.tif                                                                                                                                                                                                  
Z2BTLC01000                   500000000000254143500019800018304LOTGRAPHIC                    Y                             T:\MEDICAL\NA\RTP\TEAM CENTER\TEMPLATES\GRAPHICS\Lot.tif                                                                                                                                                                                                       
Z2BTLC01000                   500000000000254143500019900018304MANUFACTURER                  Y                             T:\MEDICAL\NA\RTP\TEAM CENTER\TEMPLATES\GRAPHICS\Manufacturer.tif                                                                                                                                                                                              
Z2BTLC01000                   500000000000254143500020000018304MFGDATE                       Y                             T:\MEDICAL\NA\RTP\TEAM CENTER\TEMPLATES\GRAPHICS\DateofManufacture.tif                                                                                                                                                                                         
Z2BTLC01000                   500000000000254143500020100018304PHTDEHP                       N                             T:\MEDICAL\NA\RTP\TEAM CENTER\TEMPLATES\GRAPHICS\blank-01.tif                                                                                                                                                                                                  
Z2BTLC01000                   500000000000254143500020200018304REFNUMBER                     N                             T:\MEDICAL\NA\RTP\TEAM CENTER\TEMPLATES\GRAPHICS\blank-01.tif                                                                                                                                                                                                  
Z2BTLC01000                   500000000000254143500020300018304REF                           N                             T:\MEDICAL\NA\RTP\TEAM CENTER\TEMPLATES\GRAPHICS\blank-01.tif                                                                                                                                                                                                  
Z2BTLC01000                   500000000000254143500020400018304RXONLY                        Y                             T:\MEDICAL\NA\RTP\TEAM CENTER\TEMPLATES\GRAPHICS\RX Only.tif                                                                                                                                                                                                   
Z2BTLC01000                   500000000000254143500020500018304TFXLOGO                       Y                             T:\MEDICAL\NA\RTP\TEAM CENTER\TEMPLATES\GRAPHICS\TeleflexMedical.tif                                                                                                                                                                                           
Z2BTLC01000                   500000000000254143500020600018304SIZELOGO                      N                             T:\MEDICAL\NA\RTP\TEAM CENTER\TEMPLATES\GRAPHICS\No                                                                                                                                                                                                            
Z2BTLC01000                   500000000000254143500020700018304ADDRESS                       TFX4LineAdd3                  T:\MEDICAL\NA\RTP\TEAM CENTER\TEMPLATES\GRAPHICS\TFX4LineAdd3.tif                                                                                                                                                                                              
Z2BTLC01000                   500000000000254143500020800018304CE0120                        N                             T:\MEDICAL\NA\RTP\TEAM CENTER\TEMPLATES\GRAPHICS\blank-01.tif                                                                                                                                                                                                  
Z2BTLC01000                   500000000000254143500020900018304COOSTATE                      COOAssmMexUSForeign           T:\MEDICAL\NA\RTP\TEAM CENTER\TEMPLATES\GRAPHICS\COOAssmMexUSForeign.tif                                                                                                                                                                                       
Z2BTLC01000                   500000000000254143500021000018304ECREPADDRESS                  N                             T:\MEDICAL\NA\RTP\TEAM CENTER\TEMPLATES\GRAPHICS\blank-01.tif                                                                                                                                                                                                  
Z2BTLC01000                   500000000000254143500021100018304FLGRAPHIC                     N                             T:\MEDICAL\NA\RTP\TEAM CENTER\TEMPLATES\GRAPHICS\blank-01.tif                                                                                                                                                                                                  
Z2BTLC01000                   500000000000254143500021200018304LABELGRAPH1                   N                             T:\MEDICAL\NA\RTP\TEAM CENTER\TEMPLATES\GRAPHICS\blank-01.tif                                                                                                                                                                                                  
Z2BTLC01000                   500000000000254143500021300018304LABELGRAPH2                   N                             T:\MEDICAL\NA\RTP\TEAM CENTER\TEMPLATES\GRAPHICS\blank-01.tif                                                                                                                                                                                                  
Z2BTLC01000                   500000000000254143500021400018304LATEXSTATEMENT                NotMadeLatex                  T:\MEDICAL\NA\RTP\TEAM CENTER\TEMPLATES\GRAPHICS\NotMadeLatex.tif                                                                                                                                                                                              
Z2BTLC01000                   500000000000254143500021500018304LOGO1                         HUDSONRCI                     T:\MEDICAL\NA\RTP\TEAM CENTER\TEMPLATES\GRAPHICS\HUDSONRCI.tif                                                                                                                                                                                                 
Z2BTLC01000                   500000000000254143500021600018304LOGO2                         N                             T:\MEDICAL\NA\RTP\TEAM CENTER\TEMPLATES\GRAPHICS\blank-01.tif                                                                                                                                                                                                  
Z2BTLC01000                   500000000000254143500021700018304LOGO3                         N                             T:\MEDICAL\NA\RTP\TEAM CENTER\TEMPLATES\GRAPHICS\blank-01.tif                                                                                                                                                                                                  
Z2BTLC01000                   500000000000254143500021800018304STERILITYTYPE                 N                             T:\MEDICAL\NA\RTP\TEAM CENTER\TEMPLATES\GRAPHICS\blank-01.tif                                                                                                                                                                                                  
Z2BTLC01000                   500000000000254143500021900018304TEMPRANGE                     N                             T:\MEDICAL\NA\RTP\TEAM CENTER\TEMPLATES\GRAPHICS\blank-01.tif                                                                                                                                                                                                  
Z2BTMH01000                   5000000000002541435000220000219021641              
Z2BTLH01000                   500000000000254143500022100022003LBL008166         
Z2BTLC01000                   500000000000254143500022200022104TEMPLATENUMBER                LBL008166                     LBL008166                                                                                                                                                                                                                                                      
Z2BTLC01000                   500000000000254143500022300022104REVISION                      R00                           R00                                                                                                                                                                                                                                                            
Z2BTLC01000                   500000000000254143500022400022104SIZE                          3.25 x 4                      3.25 x 4                                                                                                                                                                                                                                                       
Z2BTLC01000                   500000000000254143500022500022104LEVEL                         EACH                          Each Unit                                                                                                                                                                                                                                                      
Z2BTLC01000                   500000000000254143500022600022104QUANTITY                      1                             1                                                                                                                                                                                                                                                              
Z2BTLC01000                   500000000000254143500022700022104BARCODETEXT                   14026704594983                14026704594983                                                                                                                                                                                                                                                 
Z2BTLC01000                   500000000000254143500022800022104LTNUMBER                      IPN042676                     IPN042676                                                                                                                                                                                                                                                      
Z2BTLC01000                   500000000000254143500022900022104GRAPHIC01                     Y                             T:\MEDICAL\NA\RTP\TEAM CENTER\TEMPLATES\GRAPHICS\Non-sterile.tif                                                                                                                                                                                               
Z2BTLC01000                   500000000000254143500023000022104ECREP                         N                             T:\MEDICAL\NA\RTP\TEAM CENTER\TEMPLATES\GRAPHICS\blank-01.tif                                                                                                                                                                                                  
Z2BTLC01000                   500000000000254143500023100022104EXPDATE                       N                             T:\MEDICAL\NA\RTP\TEAM CENTER\TEMPLATES\GRAPHICS\blank-01.tif                                                                                                                                                                                                  
Z2BTLC01000                   500000000000254143500023200022104KEEPAWAYHEAT                  N                             T:\MEDICAL\NA\RTP\TEAM CENTER\TEMPLATES\GRAPHICS\blank-01.tif                                                                                                                                                                                                  
Z2BTLC01000                   500000000000254143500023300022104LOTGRAPHIC                    Y                             T:\MEDICAL\NA\RTP\TEAM CENTER\TEMPLATES\GRAPHICS\Lot.tif                                                                                                                                                                                                       
Z2BTLC01000                   500000000000254143500023400022104MANUFACTURER                  Y                             T:\MEDICAL\NA\RTP\TEAM CENTER\TEMPLATES\GRAPHICS\Manufacturer.tif                                                                                                                                                                                              
Z2BTLC01000                   500000000000254143500023500022104MFGDATE                       Y                             T:\MEDICAL\NA\RTP\TEAM CENTER\TEMPLATES\GRAPHICS\DateofManufacture.tif                                                                                                                                                                                         
Z2BTLC01000                   500000000000254143500023600022104PHTDEHP                       N                             T:\MEDICAL\NA\RTP\TEAM CENTER\TEMPLATES\GRAPHICS\blank-01.tif                                                                                                                                                                                                  
Z2BTLC01000                   500000000000254143500023700022104REFNUMBER                     Y                             T:\MEDICAL\NA\RTP\TEAM CENTER\TEMPLATES\GRAPHICS\REF.tif                                                                                                                                                                                                       
Z2BTLC01000                   500000000000254143500023800022104REF                           N                             T:\MEDICAL\NA\RTP\TEAM CENTER\TEMPLATES\GRAPHICS\blank-01.tif                                                                                                                                                                                                  
Z2BTLC01000                   500000000000254143500023900022104RXONLY                        Y                             T:\MEDICAL\NA\RTP\TEAM CENTER\TEMPLATES\GRAPHICS\RX Only.tif                                                                                                                                                                                                   
Z2BTLC01000                   500000000000254143500024000022104TFXLOGO                       Y                             T:\MEDICAL\NA\RTP\TEAM CENTER\TEMPLATES\GRAPHICS\TeleflexMedical.tif                                                                                                                                                                                           
Z2BTLC01000                   500000000000254143500024100022104SIZELOGO                      N                             T:\MEDICAL\NA\RTP\TEAM CENTER\TEMPLATES\GRAPHICS\No                                                                                                                                                                                                            
Z2BTLC01000                   500000000000254143500024200022104ADDRESS                       TFX4LineAdd3i                 T:\MEDICAL\NA\RTP\TEAM CENTER\TEMPLATES\GRAPHICS\TFX4LineAdd3i.tif                                                                                                                                                                                             
Z2BTLC01000                   500000000000254143500024300022104CE0120                        N                             T:\MEDICAL\NA\RTP\TEAM CENTER\TEMPLATES\GRAPHICS\blank-01.tif                                                                                                                                                                                                  
Z2BTLC01000                   500000000000254143500024400022104COOSTATE                      COOAssmMexUSForeign           T:\MEDICAL\NA\RTP\TEAM CENTER\TEMPLATES\GRAPHICS\COOAssmMexUSForeign.tif                                                                                                                                                                                       
Z2BTLC01000                   500000000000254143500024500022104ECREPADDRESS                  N                             T:\MEDICAL\NA\RTP\TEAM CENTER\TEMPLATES\GRAPHICS\blank-01.tif                                                                                                                                                                                                  
Z2BTLC01000                   500000000000254143500024600022104FLGRAPHIC                     N                             T:\MEDICAL\NA\RTP\TEAM CENTER\TEMPLATES\GRAPHICS\blank-01.tif                                                                                                                                                                                                  
Z2BTLC01000                   500000000000254143500024700022104LABELGRAPH1                   LBL008166                     T:\MEDICAL\NA\RTP\TEAM CENTER\TEMPLATES\GRAPHICS\LBL008166.tif                                                                                                                                                                                                 
Z2BTLC01000                   500000000000254143500024800022104LABELGRAPH2                   HudsonCR_07-12-16             T:\MEDICAL\NA\RTP\TEAM CENTER\TEMPLATES\GRAPHICS\HudsonCR_07-12-16.tif                                                                                                                                                                                         
Z2BTLC01000                   500000000000254143500024900022104LATEXSTATEMENT                NotMadeLatex                  T:\MEDICAL\NA\RTP\TEAM CENTER\TEMPLATES\GRAPHICS\NotMadeLatex.tif                                                                                                                                                                                              
Z2BTLC01000                   500000000000254143500025000022104LOGO1                         HUDSONRCI                     T:\MEDICAL\NA\RTP\TEAM CENTER\TEMPLATES\GRAPHICS\HUDSONRCI.tif                                                                                                                                                                                                 
Z2BTLC01000                   500000000000254143500025100022104LOGO2                         SinglePatienUse2              T:\MEDICAL\NA\RTP\TEAM CENTER\TEMPLATES\GRAPHICS\SinglePatienUse2.tif                                                                                                                                                                                          
Z2BTLC01000                   500000000000254143500025200022104LOGO3                         HudsonTradeMark3              T:\MEDICAL\NA\RTP\TEAM CENTER\TEMPLATES\GRAPHICS\HudsonTradeMark3.tif                                                                                                                                                                                          
Z2BTLC01000                   500000000000254143500025300022104STERILITYTYPE                 N                             T:\MEDICAL\NA\RTP\TEAM CENTER\TEMPLATES\GRAPHICS\blank-01.tif                                                                                                                                                                                                  
Z2BTLC01000                   500000000000254143500025400022104TEMPRANGE                     N                             T:\MEDICAL\NA\RTP\TEAM CENTER\TEMPLATES\GRAPHICS\blank-01.tif                                                                                                                                                                                                  
Z2BTLH01000                   500000000000254143500025500022003LBL008167         
Z2BTTX01000                   500000000000254143500025600025504GRUNE  ENMATERIAL  LBL008167                                                             Elbow Adaptor##                                                           *
Z2BTTX01000                   500000000000254143500025700025504GRUNE  ENMATERIAL  LBL008167                                                             22mm I.D. x 22mm O.D.                                                     /
Z2BTLC01000                   500000000000254143500025800025504TEMPLATENUMBER                T001903                       T001903                                                                                                                                                                                                                                                        
Z2BTLC01000                   500000000000254143500025900025504REVISION                      R00                           R00                                                                                                                                                                                                                                                            
Z2BTLC01000                   500000000000254143500026000025504SIZE                          6.125 x 3.625                 6.125 x 3.625                                                                                                                                                                                                                                                  
Z2BTLC01000                   500000000000254143500026100025504LEVEL                         SALES UNIT                    SALES UNIT                                                                                                                                                                                                                                                     
Z2BTLC01000                   500000000000254143500026200025504QUANTITY                      50                            50                                                                                                                                                                                                                                                             
Z2BTLC01000                   500000000000254143500026300025504BARCODETEXT                   34026704594987                34026704594987                                                                                                                                                                                                                                                 
Z2BTLC01000                   500000000000254143500026400025504LTNUMBER                      IPN042676                     IPN042676                                                                                                                                                                                                                                                      
Z2BTLC01000                   500000000000254143500026500025504GRAPHIC01                     Y                             T:\MEDICAL\NA\RTP\TEAM CENTER\TEMPLATES\GRAPHICS\Caution.tif                                                                                                                                                                                                   
Z2BTLC01000                   500000000000254143500026600025504GRAPHIC02                     Y                             T:\MEDICAL\NA\RTP\TEAM CENTER\TEMPLATES\GRAPHICS\ConsultIFU.tif                                                                                                                                                                                                
Z2BTLC01000                   500000000000254143500026700025504GRAPHIC03                     Y                             T:\MEDICAL\NA\RTP\TEAM CENTER\TEMPLATES\GRAPHICS\Non-sterile.tif                                                                                                                                                                                               
Z2BTLC01000                   500000000000254143500026800025504GRAPHIC04                     Y                             T:\MEDICAL\NA\RTP\TEAM CENTER\TEMPLATES\GRAPHICS\SINGLEPATIENUSE.tif                                                                                                                                                                                           
Z2BTLC01000                   500000000000254143500026900025504ECREP                         N                             T:\MEDICAL\NA\RTP\TEAM CENTER\TEMPLATES\GRAPHICS\blank-01.tif                                                                                                                                                                                                  
Z2BTLC01000                   500000000000254143500027000025504EXPDATE                       N                             T:\MEDICAL\NA\RTP\TEAM CENTER\TEMPLATES\GRAPHICS\blank-01.tif                                                                                                                                                                                                  
Z2BTLC01000                   500000000000254143500027100025504KEEPAWAYHEAT                  N                             T:\MEDICAL\NA\RTP\TEAM CENTER\TEMPLATES\GRAPHICS\blank-01.tif                                                                                                                                                                                                  
Z2BTLC01000                   500000000000254143500027200025504LOTGRAPHIC                    Y                             T:\MEDICAL\NA\RTP\TEAM CENTER\TEMPLATES\GRAPHICS\Lot.tif                                                                                                                                                                                                       
Z2BTLC01000                   500000000000254143500027300025504MANUFACTURER                  Y                             T:\MEDICAL\NA\RTP\TEAM CENTER\TEMPLATES\GRAPHICS\Manufacturer.tif                                                                                                                                                                                              
Z2BTLC01000                   500000000000254143500027400025504MFGDATE                       Y                             T:\MEDICAL\NA\RTP\TEAM CENTER\TEMPLATES\GRAPHICS\DateofManufacture.tif                                                                                                                                                                                         
