EDI_DC40  5000000000002541435740 3012  Z1BTDOC                                                     ZSC_BTEND                                        SAPMEP    LS  MEPCLNT500                                                                                           I041      US  BARTENDER                                                                                            20190814150426                                                                                                                Material_EN         
Z2BTMH01000                   50000000000025414350000010000000218305             
Z2BTLH01000                   500000000000254143500000200000103LBL024663         
Z2BTTX01000                   500000000000254143500000300000204GRUNE  ENMATERIAL  LBL024663                                                             SIZE: 4.5Fr (1.5mm) x 76cm                                                *
Z2BTLC01000                   500000000000254143500000400000204TEMPLATENUMBER                T002519                       T002519                                                                                                                                                                                                                                                        
Z2BTLC01000                   500000000000254143500000500000204REVISION                      R00                           R00                                                                                                                                                                                                                                                            
Z2BTLC01000                   500000000000254143500000600000204SIZE                          2.188 X 4.125                 2.188 X 4.125                                                                                                                                                                                                                                                  
Z2BTLC01000                   500000000000254143500000700000204LEVEL                         Each Unit                     Each Unit                                                                                                                                                                                                                                                      
Z2BTLC01000                   500000000000254143500000800000204QUANTITY                      1                             1                                                                                                                                                                                                                                                              
Z2BTLC01000                   500000000000254143500000900000204BARCODETEXT                   14026704656360                14026704656360                                                                                                                                                                                                                                                 
Z2BTLC01000                   500000000000254143500001000000204LTNUMBER                      IPN029592                     IPN029592                                                                                                                                                                                                                                                      
Z2BTLC01000                   500000000000254143500001100000204GRAPHIC01                     Y                             T:\MEDICAL\NA\RTP\TEAM CENTER\TEMPLATES\GRAPHICS\Caution.tif                                                                                                                                                                                                   
Z2BTLC01000                   500000000000254143500001200000204GRAPHIC02                     Y                             T:\MEDICAL\NA\RTP\TEAM CENTER\TEMPLATES\GRAPHICS\ConsultIFU.tif                                                                                                                                                                                                
Z2BTLC01000                   500000000000254143500001300000204GRAPHIC03                     Y                             T:\MEDICAL\NA\RTP\TEAM CENTER\TEMPLATES\GRAPHICS\DoNotUsePakDam.tif                                                                                                                                                                                            
Z2BTLC01000                   500000000000254143500001400000204GRAPHIC04                     Y                             T:\MEDICAL\NA\RTP\TEAM CENTER\TEMPLATES\GRAPHICS\DoNotRe-sterilize.tif                                                                                                                                                                                         
Z2BTLC01000                   500000000000254143500001500000204GRAPHIC05                     Y                             T:\MEDICAL\NA\RTP\TEAM CENTER\TEMPLATES\GRAPHICS\Singleuse.tif                                                                                                                                                                                                 
Z2BTLC01000                   500000000000254143500001600000204ECREP                         Y                             T:\MEDICAL\NA\RTP\TEAM CENTER\TEMPLATES\GRAPHICS\EC Rep.tif                                                                                                                                                                                                    
Z2BTLC01000                   500000000000254143500001700000204EXPDATE                       Y                             T:\MEDICAL\NA\RTP\TEAM CENTER\TEMPLATES\GRAPHICS\Expiration Date.tif                                                                                                                                                                                           
Z2BTLC01000                   500000000000254143500001800000204KEEPAWAYHEAT                  Y                             T:\MEDICAL\NA\RTP\TEAM CENTER\TEMPLATES\GRAPHICS\KeepAwayHeat.tif                                                                                                                                                                                              
Z2BTLC01000                   500000000000254143500001900000204LOTGRAPHIC                    Y                             T:\MEDICAL\NA\RTP\TEAM CENTER\TEMPLATES\GRAPHICS\Lot.tif                                                                                                                                                                                                       
Z2BTLC01000                   500000000000254143500002000000204MANUFACTURER                  Y                             T:\MEDICAL\NA\RTP\TEAM CENTER\TEMPLATES\GRAPHICS\Manufacturer.tif                                                                                                                                                                                              
Z2BTLC01000                   500000000000254143500002100000204REF                           Y                             T:\MEDICAL\NA\RTP\TEAM CENTER\TEMPLATES\GRAPHICS\REF.tif                                                                                                                                                                                                       
Z2BTLC01000                   500000000000254143500002200000204RXONLY                        Y                             T:\MEDICAL\NA\RTP\TEAM CENTER\TEMPLATES\GRAPHICS\RX Only.tif                                                                                                                                                                                                   
Z2BTLC01000                   500000000000254143500002300000204TFXLOGO                       Y                             T:\MEDICAL\NA\RTP\TEAM CENTER\TEMPLATES\GRAPHICS\TeleflexMedical.tif                                                                                                                                                                                           
Z2BTLC01000                   500000000000254143500002400000204SIZELOGO                      N                             T:\MEDICAL\NA\RTP\TEAM CENTER\TEMPLATES\GRAPHICS\No                                                                                                                                                                                                            
Z2BTLC01000                   500000000000254143500002500000204ADDRESS                       TFX4LINEADD3                  T:\MEDICAL\NA\RTP\TEAM CENTER\TEMPLATES\GRAPHICS\TFX4LINEADD3.tif                                                                                                                                                                                              
Z2BTLC01000                   500000000000254143500002600000204CE0120                        CE0120                        T:\MEDICAL\NA\RTP\TEAM CENTER\TEMPLATES\GRAPHICS\CE_0120_Below.tif                                                                                                                                                                                             
Z2BTLC01000                   500000000000254143500002700000204COOSTATE                      COOProdUSwUSFrnPackMex        T:\MEDICAL\NA\RTP\TEAM CENTER\TEMPLATES\GRAPHICS\COOProdUSwUSFrnPackMex.tif                                                                                                                                                                                    
Z2BTLC01000                   500000000000254143500002800000204ECREPADDRESS                  ATHLONE4LINE4                 T:\MEDICAL\NA\RTP\TEAM CENTER\TEMPLATES\GRAPHICS\ATHLONE4LINE4.tif                                                                                                                                                                                             
Z2BTLC01000                   500000000000254143500002900000204FLGRAPHIC                     LBL000020FL                   T:\MEDICAL\NA\RTP\TEAM CENTER\TEMPLATES\GRAPHICS\LBL000020FL.tif                                                                                                                                                                                               
Z2BTLC01000                   500000000000254143500003000000204LATEXSTATEMENT                LATEXSTMNT4                   T:\MEDICAL\NA\RTP\TEAM CENTER\TEMPLATES\GRAPHICS\LATEXSTMNT4.tif                                                                                                                                                                                               
Z2BTLC01000                   500000000000254143500003100000204LOGO1                         TAUTOPCHOLCATH                T:\MEDICAL\NA\RTP\TEAM CENTER\TEMPLATES\GRAPHICS\TAUTOPCHOLCATH.tif                                                                                                                                                                                            
Z2BTLC01000                   500000000000254143500003200000204STERILITYTYPE                 STERILEEO                     T:\MEDICAL\NA\RTP\TEAM CENTER\TEMPLATES\GRAPHICS\Sterile_EO.tif                                                                                                                                                                                                
